:020000040001F9
:10020000002C002055030100D7030100891A0100CA
:100210009D1A0100B11A0100D91A0100C51A010086
:10022000000000000000000000000000293801006C
:10023000F303010000000000E9370100FB030100A7
:10024000FF03010003040100000000000704010097
:10025000000000000B04010000000000000000008E
:100260000F04010013040100170401001B04010026
:100270001F04010023040100270401002B040100D6
:100280002F04010033040100000000000000000002
:10029000370401003B0401000000000000000000E2
:1002A0003F04010043040100470401004B04010026
:1002B0004F04010053040100570401005B040100D6
:1002C0005F04010063040100670401006B04010086
:1002D0006F04010000000000730401000000000032
:1002E00077040100000000007B0401007F0401008E
:1002F00000000000830401000000000087040100EA
:100300000000000000000000000000008B0401005D
:100310008F04010000000000930401009704010015
:10032000000000009B04010000000000000000002D
:1003300000000000000000000000000000000000BD
:1003400000000000000000000000000000000000AD
:100350009F040100002080F31488BFF36F8F80F3A7
:100360000A8880F30B8814490860BFF34F8F01F0AF
:10037000BDFC124C124DAC4209DA21686268A368D8
:10038000043BA2BFC858D050FAE70C34F3E70D4B3A
:100390000D4CA34208DA19685A680020043AA4BF39
:1003A0008850FBE70833F4E772B60848084908604C
:1003B00001F08AFE01F028FB94ED00E0A4040100A6
:1003C000C8040100C8040100E804010000020100A3
:1003D00008ED00E0FEE7FFF7FEBF01F055BB01F0BE
:1003E0005DBB01F065BB01F077BB01F06BBB03F0B7
:1003F0001BBAFFF7FEBF03F0F7B9FFF7FEBFFFF729
:10040000FEBFFFF7FEBFFFF7FEBFFFF7FEBFFFF720
:10041000FEBFFFF7FEBFFFF7FEBFFFF7FEBFFFF710
:10042000FEBFFFF7FEBFFFF7FEBFFFF7FEBFFFF700
:10043000FEBFFFF7FEBFFFF7FEBFFFF7FEBFFFF7F0
:10044000FEBFFFF7FEBFFFF7FEBFFFF7FEBFFFF7E0
:10045000FEBFFFF7FEBFFFF7FEBFFFF7FEBFFFF7D0
:10046000FEBFFFF7FEBFFFF7FEBFFFF7FEBFFFF7C0
:10047000FEBFFFF7FEBFFFF7FEBFFFF7FEBFFFF7B0
:10048000FEBFFFF7FEBFFFF7FEBFFFF7FEBFFFF7A0
:10049000FEBFFFF7FEBFFFF7FEBFFFF7FEBFFFF790
:1004A000FEBF00BF3CA20100204F00200801000059
:1004B00040A20100403C00200000000040A20100DA
:1004C000203C00200000000040500020701A000076
:1004D000403C0020E0120000203C002020000000F2
:0804E000003C002004000000B4
:10050000009A3D4B9A420FD1EFF314830CB41FB500
:100510003A486946002201F069FF0FBC0CBC9E46B8
:100520000CBC83F3148874470FDFFEE700BF184646
:10053000009A314B9A420FD1EFF314830CB41FB5DC
:100540002F486946002201F051FF0FBC0CBC9E46AB
:100550000CBC83F3148874470FDFFEE700BF184616
:100560000CB4029A244B9A4212D10CBC9C46EFF375
:1005700014830CB463461FB522486946002201F07B
:1005800035FF0FBC0CBC9E460CBC83F3148874472B
:100590000FDFFEE700BF1846009A174B9A4210D1B2
:1005A000EFF314830CB463461FB517486946002265
:1005B00001F01CFF0FBC0CBC9E460CBC83F31488DE
:1005C00074470FDFFEE700BF1846009A0A4B9A42B5
:1005D0000FD1EFF314830CB41FB50C486946002209
:1005E00001F004FF0FBC0CBC9E460CBC83F31488C6
:1005F00074470FDFFEE700BFA5EDF5FEBD24010047
:10060000CD24010015250100712801004D290100AC
:10061000C3438B4210B50ED332F01F030BD1013907
:1006200002F014030144102B81EA00043DD004DCE5
:1006300063B1042B32D0002041E0142BFBD11F2CDE
:1006400040E8C0F30CD941E8C0F105E01F2C40E8B8
:1006500000F305D941E800F11C460B468C42EAD173
:1006600022F01402013A0A2AE5D801A151F822F039
:10067000CD060100C7060100B906010037060100DA
:10068000370601003706010037060100D3060100D6
:10069000CD060100C1060100B90601001F2C40E88B
:1006A00040F3DDD941E840F1D6E71F2C40E880F364
:1006B000D6D941E880F1CFE713F4001FBBD010BDBD
:1006C00013F4801FFAE75B02F9D5B4E713F4002FA7
:1006D000F4E713F4802FF1E780B487B000AFF8603F
:1006E000B9607A60FB683B61BB68DBB21A06BB6825
:1006F000DBB21B041A43BB68DBB21B021343BA68AC
:10070000D2B213437B6108E03B695A1C3A61BA6874
:10071000D2B21A707B68013B7B607B68002B0DD0E6
:100720003B6903F00303002BEED107E03B691A1D80
:100730003A617A691A607B68043B7B607B68032BB3
:10074000F4D805E03B695A1C3A61BA68D2B21A7013
:100750007B685A1E7A60002BF4D1FB6818461C3760
:10076000BD4680BC704780B487B000AFF860B96008
:100770007A60FB687B61BB683B610AE03A69531CA5
:100780003B617B69591C796112781A707B68013B67
:100790007B607B68002B15D07B6903F00103002B85
:1007A000ECD13B6903F00103002BE7D10AE03A6981
:1007B000931C3B617B69991C796112881A807B6864
:1007C000023B7B607B68012B15D97B6903F0020338
:1007D000002BECD13B6903F00203002BE7D10AE0C8
:1007E0003A69131D3B617B69191D796112681A60B2
:1007F0007B68043B7B607B68032BF1D807E03A6998
:10080000531C3B617B69591C796112781A707B68B3
:100810005A1E7A60002BF2D1FB6818461C37BD4681
:1008200080BC704780B483B000AF084B1B687B600E
:100830007B685B68002B02D17B681B6800E0044B7F
:1008400018460C37BD4680BC704700BF003C0020F6
:100850005D080100FFF7E6FF004700BF90B595B0C7
:1008600000AF2F4B1B687B647B6C1B683B647B6C0D
:100870000833FB637B6C5B68012202FA03F3013BE4
:10088000BB633B6C002B06D03B6C98470346002BA8
:1008900001D008F0F5FF4FF00041B86B08F0C4FF3D
:1008A000F8640023BB642DE00122BB6C02FA03F361
:1008B0007B63FA6C7B6B1340002B20D0BB6C9B00DE
:1008C000FA6B13441B68002B01D108F0D9FF3B1DC4
:1008D0001946786B08F0AEFFBC68BB6C9B00FA6BE6
:1008E00013441B683A1D1046984703461946204694
:1008F00008F0B7FF7B6BDB43FA6C1340FB64BB6C07
:100900000133BB64FB6C002B04D07B6C5A68BB6C5E
:100910009A42C9D8FB6C002BBDD008F0B1FFBAE7F2
:10092000003C00200000000000000000000000006B
:1009300000000000000000000000000000000000B7
:1009400001015F5F030100001F010000BF0D0100F6
:10095000000800000000000001000000010000008D
:100960000000000000000000104200200000000015
:1009700070000000F89801008000000000070000EF
:1009800001000000E30D01000100000000015F5FB5
:10099000040100001F0300003D18010000050000D5
:1009A0000000000000000000030000000000000044
:1009B00000000000104A002000000000049901001F
:1009C00040000000000500000100000000000000E1
:1009D0001000000024990100410000000005000003
:1009E0000100000000000000200000003C99010010
:1009F00042000000000400000100000000000000B0
:100A00004000000000015F5F00000000FE030000E6
:100A10003D3901000004000000000000000000005B
:100A2000000000000000000000000000E051002075
:100A30000000000001015F5F01000000FF030000F3
:100A400075390100000100000000000000000000F6
:100A5000000000000000000000000000E055002041
:040A60000000000092
:100A800080B483B000AF7860044A7B68C2F8043455
:100A9000002318460C37BD4680BC7047403C002000
:100AA00080B483B000AF786039607B68033323F093
:100AB00003037B600F4BD3F80034C3F580637A687F
:100AC0009A4202D96FF08C030FE00A4BD3F800343E
:100AD000084A1A443B681A60064BD3F800247B6826
:100AE0001344044AC2F80034002318460C37BD46AC
:100AF00080BC7047403C002080B584B000AF0C4BF8
:100B00000022C3F804240A4BD3F80034084AFA60E0
:100B10000022BA607B607A68B968F868FFF7DCFD8C
:100B2000034B0022C3F8002400BF1037BD4680BD30
:100B3000403C002090B5A5B000AF78600023C7F816
:100B400080300423C7F88C300423C7F8883007F1BD
:100B50006003202200211846FFF7BEFD07F1400385
:100B6000202200211846FFF7B7FD07F10C033422BD
:100B700000211846FFF7B0FD0023BB6004E0D7F862
:100B80008C30013BC7F88C30D7F88C30002B08D064
:100B9000D7F88C305A1E7B68043253F82230002B71
:100BA000EDD0D7F88C30002B02D16FF08303EBE04F
:100BB0007B68586807F10C023423002108F040FEDE
:100BC0000346342B02D06FF08303DDE0FB68402B3B
:100BD00002D96FF08303D7E007F10C033B6634239F
:100BE0007B660123C7F884303BE07B68D7F884201C
:100BF000043253F8223007F1080211461846FFF775
:100C00004FFFC7F88000D7F88030002B04D0FFF7E3
:100C100073FFD7F88030B7E07B685868B9687B68A5
:100C2000D7F88420043253F822300A46D7F88410CB
:100C300008F006FE0246D7F88430DB0007F1900189
:100C40000B4443F82C2CBA68D7F88430DB0007F14A
:100C500090010B4443F8302CD7F884300133C7F8A7
:100C60008430D7F88420D7F88C309A42BDD304E082
:100C7000D7F88830013BC7F88830D7F88830002B88
:100C800008D0D7F888305A1E7B68083253F82230D3
:100C9000002BEDD00023C7F8843032E07B68D7F812
:100CA0008420083253F8223007F108021146184612
:100CB000FFF7F6FEC7F88000D7F88030002B04D08D
:100CC000FFF71AFFD7F880305EE0BA68D7F88430B3
:100CD000DB0007F190010B4443F8502C7B68D7F8F8
:100CE0008420083253F82220D7F88430DB0007F143
:100CF00090010B4443F84C2CD7F884300133C7F8EB
:100D00008430D7F88420D7F888309A42C6D37B68DD
:100D10009B681846FFF7B4FEFB681D4A52F8234053
:100D200007F1400207F16000D7F88830D7F88C103F
:100D3000A047C7F880000023C7F884301AE07B681A
:100D40005868D7F88430DB0007F19002134453F859
:100D5000502CD7F88430DB0007F190010B4453F896
:100D60004C3CD7F8841008F077FDD7F88430013375
:100D7000C7F88430D7F88420D7F888309A42DED379
:100D8000FFF7BAFED7F8803018469437BD4690BDBD
:100D9000A018010080B500AF0121044804F06EF8EE
:100DA00004F0D4F80346184680BD00BF4840002038
:100DB00080B500AF00F028F80346184680BD80B526
:100DC00082B000AFFFF7F4FF78607B68002B01D0A2
:100DD0007B6802E0FFF7DEFF034618460837BD4692
:100DE00080BD80B582B000AF78607B681B68002B47
:100DF00004D17868FFF79EFE034601E06FF085039B
:100E000018460837BD4680BD80B584B000AF084B9A
:100E1000FB600023BB604FF4E0737B607A68B968C5
:100E2000F868FFF759FC002318461037BD4680BD0F
:100E30005040002080B485B000AFF860B9607A609F
:100E40003B606FF0850318461437BD4680BC704781
:100E500080B485B000AFF860B9607A603B606FF035
:100E6000850318461437BD4680BC704780B485B0F2
:100E700000AFF860B9607A603B606FF08503184698
:100E80001437BD4680BC704780B485B000AFF860B1
:100E9000B9607A603B606FF0850318461437BD4631
:100EA00080BC704780B485B000AFF860B9607A60EC
:100EB0003B606FF0850318461437BD4680BC704711
:100EC00080B485B000AFF860B9607A603B606FF0C5
:100ED000850318461437BD4680BC704780B485B082
:100EE00000AFF860B9607A603B606FF08503184628
:100EF0001437BD4680BC704780B485B000AFF86041
:100F0000B9607A603B606FF0850318461437BD46C0
:100F100080BC704780B485B000AFF860B9607A607B
:100F20003B606FF0850318461437BD4680BC7047A0
:100F300080B485B000AFF860B9607A603B606FF054
:100F4000850318461437BD4680BC704780B485B011
:100F500000AFF860B9607A603B606FF085031846B7
:100F60001437BD4680BC704780B485B000AFF860D0
:100F7000B9607A603B606FF0850318461437BD4650
:100F800080BC704780B485B000AFF860B9607A600B
:100F90003B606FF0850318461437BD4680BC704730
:100FA00080B485B000AFF860B9607A603B606FF0E4
:100FB000850318461437BD4680BC704780B485B0A1
:100FC00000AFF860B9607A603B606FF08503184647
:100FD0001437BD4680BC704780B485B000AFF86060
:100FE000B9607A603B606FF0850318461437BD46E0
:100FF00080BC704780B485B000AFF860B9607A609B
:101000003B606FF0850318461437BD4680BC7047BF
:1010100080B485B000AFF860B9607A603B606FF073
:10102000850318461437BD4680BC704780B485B030
:1010300000AFF860B9607A603B606FF085031846D6
:101040001437BD4680BC704780B485B000AFF860EF
:10105000B9607A603B606FF0850318461437BD466F
:1010600080BC704780B485B000AFF860B9607A602A
:101070003B606FF0850318461437BD4680BC70474F
:1010800080B485B000AFF860B9607A603B606FF003
:10109000850318461437BD4680BC704780B485B0C0
:1010A00000AFF860B9607A603B606FF08503184666
:1010B0001437BD4680BC704780B485B000AFF8607F
:1010C000B9607A603B606FF0850318461437BD46FF
:1010D00080BC704780B485B000AFF860B9607A60BA
:1010E0003B606FF0850318461437BD4680BC7047DF
:1010F00080B485B000AFF860B9607A603B606FF093
:10110000850318461437BD4680BC704780B485B04F
:1011100000AFF860B9607A603B606FF085031846F5
:101120001437BD4680BC704780B485B000AFF8600E
:10113000B9607A603B606FF0850318461437BD468E
:1011400080BC704780B485B000AFF860B9607A6049
:101150003B606FF0850318461437BD4680BC70476E
:1011600080B485B000AFF860B9607A603B606FF022
:10117000850318461437BD4680BC704780B485B0DF
:1011800000AFF860B9607A603B606FF08503184685
:101190001437BD4680BC704780B485B000AFF8609E
:1011A000B9607A603B606FF0850318461437BD461E
:1011B00080BC704780B485B000AFF860B9607A60D9
:1011C0003B606FF0850318461437BD4680BC7047FE
:1011D00080B485B000AFF860B9607A603B606FF0B2
:1011E000850318461437BD4680BC704780B485B06F
:1011F00000AFF860B9607A603B606FF08503184615
:101200001437BD4680BC704780B485B000AFF8602D
:10121000B9607A603B606FF0850318461437BD46AD
:1012200080BC704780B485B000AFF860B9607A6068
:101230003B606FF0850318461437BD4680BC70478D
:1012400080B485B000AFF860B9607A603B606FF041
:10125000850318461437BD4680BC704780B485B0FE
:1012600000AFF860B9607A603B606FF085031846A4
:101270001437BD4680BC704780B485B000AFF860BD
:10128000B9607A603B606FF0850318461437BD463D
:1012900080BC704780B485B000AFF860B9607A60F8
:1012A0003B606FF0850318461437BD4680BC70471D
:1012B00080B485B000AFF860B9607A603B606FF0D1
:1012C000850318461437BD4680BC704780B485B08E
:1012D00000AFF860B9607A603B606FF08503184634
:1012E0001437BD4680BC704780B485B000AFF8604D
:1012F000B9607A603B606FF0850318461437BD46CD
:1013000080BC704780B485B000AFF860B9607A6087
:101310003B606FF0850318461437BD4680BC7047AC
:1013200080B485B000AFF860B9607A603B606FF060
:10133000850318461437BD4680BC704780B485B01D
:1013400000AFF860B9607A603B606FF085031846C3
:101350001437BD4680BC704780B485B000AFF860DC
:10136000B9607A603B606FF0850318461437BD465C
:1013700080BC704780B485B000AFF860B9607A6017
:101380003B606FF0850318461437BD4680BC70473C
:1013900080B485B000AFF860B9607A603B606FF0F0
:1013A000850318461437BD4680BC704780B485B0AD
:1013B00000AFF860B9607A603B606FF08503184653
:1013C0001437BD4680BC704780B485B000AFF8606C
:1013D000B9607A603B606FF0850318461437BD46EC
:1013E00080BC704780B485B000AFF860B9607A60A7
:1013F0003B606FF0850318461437BD4680BC7047CC
:1014000080B485B000AFF860B9607A603B606FF07F
:10141000850318461437BD4680BC704780B485B03C
:1014200000AFF860B9607A603B606FF085031846E2
:101430001437BD4680BC704780B485B000AFF860FB
:10144000B9607A603B606FF0850318461437BD467B
:1014500080BC704780B485B000AFF860B9607A6036
:101460003B606FF0850318461437BD4680BC70475B
:1014700080B485B000AFF860B9607A603B606FF00F
:10148000850318461437BD4680BC704780B485B0CC
:1014900000AFF860B9607A603B606FF08503184672
:1014A0001437BD4680BC704780B485B000AFF8608B
:1014B000B9607A603B606FF0850318461437BD460B
:1014C00080BC704780B485B000AFF860B9607A60C6
:1014D0003B606FF0850318461437BD4680BC7047EB
:1014E00080B485B000AFF860B9607A603B606FF09F
:1014F000850318461437BD4680BC704780B485B05C
:1015000000AFF860B9607A603B606FF08503184601
:101510001437BD4680BC704780B485B000AFF8601A
:10152000B9607A603B606FF0850318461437BD469A
:1015300080BC704780B485B000AFF860B9607A6055
:101540003B60FA68BB689A420DD3FA687B689A429E
:1015500009D83A68BB699A4205D33A68FB699A424E
:1015600001D8012300E0002318461437BD4680BC93
:10157000704780B588B002AFF860B9607A603B60B0
:1015800001230193002300933B6801220121B868E5
:10159000FFF7D0FF034683F00103DBB2002B02D03C
:1015A0006FF0800311E0FB685B68342B02D06FF0B2
:1015B00080030AE07B681B687B617B685B683B613A
:1015C0003969786903F0A6FC034618461837BD460A
:1015D00080BD80B500AF04F0FDFC0023184680BD3F
:1015E00080B582B000AF7860FFF7F3FF034618467E
:1015F0000837BD4680BD80B483B000AF78606FF01F
:10160000850318460C37BD4680BC704780B5AEB028
:1016100000AF78600023C7F8B4300023C7F8B030BB
:1016200007F1980300221A605A6007F19003002224
:101630001A605A6000233B6507F154033C220021E5
:101640001846FFF749F800233B6107F114033C22D9
:1016500000211846FFF740F80023FB600123C7F87C
:10166000A4300023C7F8A0300423C7F8AC3004230B
:10167000C7F8A83004E0D7F8AC30013BC7F8AC306D
:10168000D7F8AC30002B0ED0D7F8AC305A1E7B68A0
:10169000043253F82230002BEDD004E0D7F8A83004
:1016A000013BC7F8A830D7F8A830002B08D0D7F8EE
:1016B000A8305A1E7B68083253F82230002BEDD038
:1016C000D7F8AC30002B07D0D7F8AC30022B03D8BA
:1016D000D7F8A830012B01D901236DE07B68586849
:1016E00007F10C020423002108F0AAF80346C7F80A
:1016F000A030D7F8A030042B02D06FF080035BE05D
:10170000D7F8AC30012B27D97B685B69402B02D915
:101710006FF0800350E07B6858687B685B6907F175
:101720005002012108F08CF80346C7F8A0307B680E
:101730005A69D7F8A0309A4202D06FF080033BE09C
:1017400007F15003C7F898307B685B69C7F89C3095
:1017500007F19803C7F8B430D7F8A830002B12D09F
:101760007B681B6A402B02D96FF0800324E007F1ED
:101770001003C7F890307B681B6AC7F8943007F1F4
:101780009003C7F8B030FB68D7F8B020D7F8B41092
:10179000184604F023FCC7F8A400D7F8B030002B9B
:1017A00008D07B685868D7F89020D7F8943000218B
:1017B00008F052F8D7F8A4301846B837BD4680BDB7
:1017C00080B590B000AF7860396007F10C0319461E
:1017D000786808F02FF8F863FB68B3F57D7F26DAA8
:1017E00040F2F23293420FDA002B0DD0002B1EDCB8
:1017F00013F1020F15D0B3F1FF3F18D13B6900215F
:10180000184608F02EF815E007F10C023B68104668
:1018100098470346FB633B69F96B184608F021F8CB
:1018200008E03B690021184608F01BF802E008F0C8
:1018300027F800BF00BF4037BD4680BD80B582B0ED
:1018400000AF4FF000414FF0FF3007F0EDFF786040
:101850007B6803F01003002B04D00E491020FFF723
:10186000AFFFEEE77B6803F02003002B04D00A49AA
:101870002020FFF7A5FFE4E77B6803F04003002B7F
:1018800004D006494020FFF79BFFDAE707F0F8FF96
:10189000D7E700BFE11501000D160100F7150100A3
:1018A000711401008D1401001D1401003914010090
:1018B0000114010055140100A9140100C514010010
:1018C000E1140100FD140100D90F0100F50F010022
:1018D000310F01004D0F0100690F0100850F01005C
:1018E000A10F0100BD0F0100B9100100D5100100CA
:1018F000111001002D1001004910010065100100B8
:10190000811001009D100100F90E0100150F01006A
:101910006D0E0100890E0100350E0100510E01000F
:10192000A50E0100C10E0100DD0E0100F110010045
:101930000D1101002911010045110100991101004B
:10194000B5110100D111010009120100ED110100D2
:101950007D110100251201006111010041120100F9
:101960005D1201007912010095120100B11201000F
:10197000CD120100E912010005130100211301003D
:101980003D13010075130100C91301005913010033
:1019900091130100AD130100E5130100731501005F
:1019A0001915010000000000000000000000000008
:1019B0000000000000000000000000000000000027
:1019C00010B5054C237833B9044B13B1044800E03B
:1019D00000BF0123237010BDB051002000000000A3
:1019E00030A2010008B5034B1BB10349034800E0D6
:1019F00000BF08BD00000000B451002030A201006B
:101A0000A3F5803A704700BF174B002B08BF134B5C
:101A10009D46FFF7F5FF00218B460F461348144AF9
:101A2000121AFEF759FE0E4B002B00D098470D4BB3
:101A3000002B00D098470020002104000D000D4825
:101A4000002802D00C4800E000BF06F095FE200000
:101A5000290000F05BFC06F069FE00BF00000800F2
:101A60000000000000000000002C0020405000207A
:101A7000B06A0020000000000000000080B500AF48
:101A800001F051FD00BF80BDFFF7F8FFFEE700BF8A
:101A900080B500AF01F047FD00BF80BDFFF7F8FF44
:101AA000FEE700BF80B500AF01F03DFD00BF80BD87
:101AB000FFF7F8FFFEE700BF80B500AF01F033FD90
:101AC00000BF80BDFFF7F8FFFEE700BF80B500AFA5
:101AD00001F029FD00BF80BDFFF7F8FFFEE700BF62
:101AE00080B483B000AF786039607B683A689A60F0
:101AF0007B6800221A6100BF0C37BD4680BC70476E
:101B000080B582B000AF786079680348FFF7E8FFDE
:101B100000BF0837BD4680BD90ED00E080B483B0C3
:101B200000AF786039607B683A68C3F8082300BF6B
:101B30000C37BD4680BC704780B483B000AF78607E
:101B40000B46FB70FA787B6813441A460123136036
:101B500000BF0C37BD4680BC704780B483B000AF77
:101B6000786039607B683A68C3F8482300BF0C3757
:101B7000BD4680BC704780B483B000AF78603960E8
:101B80007B683A68C3F8082300BF0C37BD4680BCA9
:101B9000704780B483B000AF78607B680022C3F8E0
:101BA000002500BF0C37BD4680BC704780B483B0B1
:101BB00000AF786039607B683A68C3F8082300BFDB
:101BC0000C37BD4680BC704780B483B000AF7860EE
:101BD0007B684FF0FF32C3F8082500BF0C37BD46C5
:101BE00080BC704780B582B000AF0C4B1B681B0AED
:101BF000DBB23B6000237B6006E07B681846FFF7A2
:101C00007FFF7B6801337B607A683B689A42F4DB34
:101C100000BF00BF0837BD4680BD00BF90ED00E0AB
:101C200080B582B000AF786004217868FFF784FF48
:101C30004FF0FF317868FFF790FF4FF0FF31786881
:101C4000FFF76CFF00BF0837BD4680BD80B582B08E
:101C500000AF78607868FFF79CFF4FF0FF3178683D
:101C6000FFF789FF7B688033802200211846FEF74A
:101C700033FD7B6803F5C073802200211846FEF710
:101C80002BFD00BF0837BD4680BD000080B500AF0A
:101C90000248FFF799FF00BF80BD00BF00700150F0
:101CA00080B500AF4FF0FF314FF05020FFF77EFFBF
:101CB00000BF80BD80B500AF0848FFF7B1FF0848FE
:101CC000FFF7AEFF0748FFF7C1FF0748FFF7BEFF6A
:101CD000FFF7DCFFFFF7E4FF00BF80BD00400150CD
:101CE00000500150008000500090005080B584B03A
:101CF00000AF72B600BF00233B603B6883F31388DC
:101D000000BF00237B607B6883F3118800BFFFF76F
:101D100069FF0023FB6009E0154AFB6820334FF0A0
:101D2000FF3142F82310FB680133FB60FB680F2B87
:101D3000F2D90023BB6009E00D4ABB6860334FF065
:101D4000FF3142F82310BB680133BB60BB680F2B27
:101D5000F2D9FFF7AFFF62B600BFBFF34F8F00BFEE
:101D6000BFF36F8F00BF00BF1037BD4680BD00BFFF
:101D700000E100E080B483B000AF144B1B687B60CF
:101D8000134B1B683B607B68072B19D13B68023BF8
:101D9000032B13D801A252F823F000BFAD1D0100A0
:101DA000B11D0100B51D0100B91D0100012308E0AE
:101DB000002306E0002304E0002302E0002300E00B
:101DC000002318460C37BD4680BC70473001FF0029
:101DD0003401FF0080B483B000AF144B1B687B60FC
:101DE000134B1B683B607B68072B19D13B68023B98
:101DF000032B13D801A252F823F000BF0D1E0100DF
:101E0000111E0100151E0100191E0100012308E02A
:101E1000012306E0002304E0002302E0002300E0A9
:101E2000002318460C37BD4680BC70473001FF00C8
:101E30003401FF0080B483B000AF144B1B687B609B
:101E4000134B1B683B607B68072B19D13B68023B37
:101E5000032B13D801A252F823F000BF6D1E01001E
:101E6000711E0100751E0100791E0100012308E0AA
:101E7000002306E0002304E0002302E0002300E04A
:101E8000002318460C37BD4680BC70473001FF0068
:101E90003401FF0080B483B000AF144B1B687B603B
:101EA000134B1B683B607B68072B19D13B68023BD7
:101EB000032B13D801A252F823F000BFCD1E01005E
:101EC000D11E0100D51E0100D91E0100012308E02A
:101ED000012306E0012304E0012302E0012300E0E6
:101EE000002318460C37BD4680BC70473001FF0008
:101EF0003401FF0080B483B000AF144B1B687B60DB
:101F0000134B1B683B607B68072B19D13B68023B76
:101F1000032B13D801A252F823F000BF2D1F01009C
:101F2000311F0100351F0100391F0100012308E0A6
:101F3000002306E0002304E0002302E0002300E089
:101F4000002318460C37BD4680BC70473001FF00A7
:101F50003401FF0080B483B000AF144B1B687B607A
:101F6000134B1B683B607B68072B19D13B68023B16
:101F7000032B13D801A252F823F000BF8D1F0100DC
:101F8000911F0100951F0100991F0100012308E026
:101F9000002306E0002304E0002302E0002300E029
:101FA000002318460C37BD4680BC70473001FF0047
:101FB0003401FF0080B483B000AF144B1B687B601A
:101FC000134B1B683B607B68072B19D13B68023BB6
:101FD000032B13D801A252F823F000BFED1F01001C
:101FE000F11F0100F51F0100F91F0100012308E0A6
:101FF000002306E0002304E0002302E0002300E0C9
:10200000002318460C37BD4680BC70473001FF00E6
:102010003401FF0080B483B000AF144B1B687B60B9
:10202000134B1B683B607B68072B19D13B68023B55
:10203000032B13D801A252F823F000BF4D2001005A
:10204000512001005520010059200100012308E022
:10205000012306E0012304E0012302E0012300E064
:10206000002318460C37BD4680BC70473001FF0086
:102070003401FF0080B400AF064B074A1B68C2F86A
:102080004435044B044ADB69C2F84C3500BFBD46F9
:1020900080BC70470080FF000060005080B400AF3B
:1020A0004FF05023D3F8583503F00303044A22FAC3
:1020B00003F3044A136000BFBD4680BC704700BFF5
:1020C0000020A107204F002080B582B000AF614BF7
:1020D0001B68604A43F002031360FFF76BFF03467F
:1020E000002B0CD05C4B1B68002B08D15A4B0D22E7
:1020F0001A605A4B01221A60584B00221A600023C2
:102100007B6000237B6010E04FF47F014FF47F027F
:102110007B68603352F833207B686033DB000B440C
:102120005B6813607B6801337B607B681F2B08D87A
:102130004FF47F027B68603352F83330B3F1FF3FD6
:10214000E2D1FFF7D7FE0346002B05D0444B2922EE
:102150001A60444B03221A60FFF70CFE0346002B63
:1021600007D0414B414A1A604FF050230122C3F877
:102170005825FFF72FFE0346002B02D03C4B0022D0
:102180001A60FFF757FE0346002B11D04FF0502383
:10219000D3F8003403F00103002B09D04FF0502393
:1021A0000022C3F814214FF050230022C3F8182155
:1021B000FFF770FE0346002B0DD04FF05023D3F8ED
:1021C000003403F00103002B05D04FF050236FF0D3
:1021D0000102C3F80024FFF7BDFE0346002B02D026
:1021E0001F4B65221A60FFF715FF0346002B21D015
:1021F000204B1B68002B1DDA4FF050230322C3F83D
:1022000018254FF0502301229A6000BF4FF0502351
:10221000D3F80431002BF9D04FF050230022C3F83B
:1022200004214FF050230122DA604FF050230122A5
:10223000C3F81825104BD3F88C300F4A43F4406391
:10224000C2F88C30FFF716FFFFF728FF00BF0837F2
:10225000BD4680BDD0ED00E0204A00501C49005032
:102260000C4700503C470050309503504400EFBEEF
:102270004C2503502024035000ED00E080B485B0CD
:1022800000AF78607B68FB60FB6883F30A8800BF5F
:1022900000BF1437BD4680BC704780B582B000AF28
:1022A00043F65C237B6043F6DA333B6002F0BEFE0C
:1022B00038603B68002B01D01F2323E003F03EFE73
:1022C00038603B68002B01D01F231BE003F050FE59
:1022D00078607B68002B01D01F2313E003F04FFED2
:1022E0000346002B07D003F051FE78607B68002B7B
:1022F00003D01F2306E003F050FE01F0F5FA01F0D1
:1023000075FB002318460837BD4680BD80B582B0F6
:1023100000AF4FF0FF337B600B4B1846FFF7AEFF6B
:10232000FFF7BBFF78607B68002B01D001F05CFCFD
:1023300001F0A6FA01F0DEFA01F0F2F800231846E7
:102340000837BD4680BD00BF0024002090B587B08F
:1023500000AF786039603B687B610F4B1B685B683E
:10236000103B3B613B693A681A623B690B4A5A620F
:102370007C687B6918687B6959687B699A687B69A6
:10238000DB68A047F860F86800F077F8FB6818464B
:102390001C37BD4690BD00BFEC560020EDEEEEEEC2
:1023A00080B584B000AF786039600E4B1B685B6805
:1023B000103BFB603B68BB60FB685B6A0A4A934268
:1023C00002D17A68BB681A6001F0B4F80246054B86
:1023D0001B689A4201D001F063FC00BF1037BD4674
:1023E00080BD00BFEC560020EDEEEEEE80B586B06D
:1023F00000AFF860B9607A60EFF305837B617B69B9
:102400003B613B8AC3F308039BB2002B01D001F070
:10241000EBFB7B68002B03D00A4B1B681A6800E0BB
:1024200000227B68002B03D0064B1B685B6800E032
:102430000023B968F86801F0ABF900BF1837BD4652
:1024400080BD00BFE856002080B483B000AFEFF33A
:10245000108372B67B607B6818460C37BD4680BC23
:10246000704780B483B000AF78607B6883F31088D6
:1024700000BF0C37BD4680BC704780B582B000AF4E
:1024800078607B6813F1810F03D07B6813F1820FB2
:1024900009D101F06FFF034683F00103DBB2002B8B
:1024A00001D001F0A1FB00BF0837BD4680BD80B45C
:1024B00000AF00231846BD4680BC704780B400AF13
:1024C00040F201131846BD4680BC704780B584B009
:1024D00000AF786001F04EFF0346FB73786801F0AF
:1024E0002FFDB860BB68002B01D100230DE0FB7B02
:1024F0001A46B968786801F0A3FD0346002B01D0A5
:10250000002302E0BB681B68DB6818461037BD4635
:1025100080BD000080B5A8B006AFF860B9607A60F1
:102520003B6000233B6101F025FF034687F87730CD
:10253000BB681B0C1BB23B67BB681B0ADBB2FB66AC
:10254000BB68DBB2BB663B6F002B02DA6FF0800327
:1025500086E1FB6E042B07D8BB6E042B04D8FA6E01
:10256000BB6E1344042B02D96FF0800378E1FB6843
:10257000002B02D16FF0800372E197F87730184694
:1025800001F014FF7866FB6803F08043002B54D001
:10259000FB68DBB23B663B6E1F2B02D96FF08003FA
:1025A0005EE1B14A3B6E52F82330C7F88030D7F86D
:1025B0008030002B02D16FF0800351E1D7F88030DA
:1025C0001B685B68FB6597F877301A46D7F8801070
:1025D000F86D01F035FD0346002B02D06FF081034A
:1025E0003EE1FB681B12DBB2BB65B96DD7F880001A
:1025F00001F0F4FC0346002B02D06FF080032FE1C2
:10260000FFF722FF03463B6101F0F4FBC7F88400AB
:102610003B691846FFF725FFD7F88430002B02D11D
:102620006FF082031CE1D7F8843000221A60D7F8DB
:10263000840001F0A7FBF86020E0796EF86801F0F3
:102640004DFDC7F88400D7F88430002B02D16FF01D
:10265000800305E1D7F884305B68002B02D06FF06F
:102660008003FDE0D7F88430DB68C7F88030D7F806
:102670008030002B02D16FF08003F1E001237B65F5
:10268000FB6ED90097F877207B6D00930123786863
:1026900001F01EFE0346002B02D06FF08003DFE046
:1026A000BB6ED90097F877207B6D009302233868C2
:1026B00001F00EFE0346002B02D06FF08003CFE046
:1026C00007F1340320220021184601F046FA07F1F1
:1026D000140320220021184601F03FFAFB6EDA00B5
:1026E00007F134037968184601F0D8F9BB6EDA00B7
:1026F00007F114033968184601F0D0F90023FB678D
:102700001DE0FB6FDB0007F18802134453F8540C03
:10271000FB6FDB0007F18802134453F8501C97F855
:1027200077207B6D0093012301F0D2FD0346002B3F
:1027300002D06FF0800393E0FB6F0133FB67FB6F08
:10274000FA6E9A42DDD80023FB6740E0FB6F01334D
:10275000BB6735E0BB6FDB0007F18802134453F819
:10276000542CBB6FDB0007F188010B4453F8503C3D
:102770001A44FB6FDB0007F188010B4453F8543C0B
:102780009A421AD9BB6FDB0007F18802134453F851
:10279000542CFB6FDB0007F188010B4453F8541CE9
:1027A000FB6FDB0007F18800034453F8503C0B44F7
:1027B0009A4202D26FF0800352E0BB6F0133BB67D5
:1027C000BB6FFA6E9A42C5D8FB6F0133FB67FB6F94
:1027D00001331A46FB6E9342B8D80023FB671DE015
:1027E000FB6FDB0007F18802134453F8740CFB6F96
:1027F000DB0007F18802134453F8701C97F8772028
:102800007B6D0093022301F063FD0346002B02D091
:102810006FF0800324E0FB6F0133FB67FB6FBA6E40
:102820009A42DDD83B680593BB6E049307F114030D
:102830000393FB6E029307F1340301937B6E0093C5
:102840003B6FFA68D7F88010D7F8840001F086FC57
:10285000064B9B68D7F88410D7F88000984703464A
:1028600018468837BD4680BD08570020589901009A
:1028700080B58EB006AF7860396001F07BFD03460D
:10288000FB770023BB60786801F05AFBB861BB6935
:10289000002B02D16FF0810352E0BB691B689B687B
:1028A00003F40073002B02D06FF0800348E0FB7F3D
:1028B0001A46B969786801F0C3FB0346002B02D0C1
:1028C0006FF081033CE03968B86901F087FB03468B
:1028D000002B02D06FF0810332E0FB7F184601F03D
:1028E00065FD7861FFF7B0FD0346BB6001F082FA39
:1028F0003861BB681846FFF7B4FD3B69002B02D175
:102900006FF082031CE0386901F03CFAF8600023A4
:1029100005930023049300230393002302930023D1
:1029200001937B6900934FF0FF33FA68B969386906
:1029300001F014FC044B9B683969B8699847034659
:1029400018462037BD4680BD5899010080B58CB02F
:1029500006AF786001F00EFD0346FB757B68002B27
:1029600001D1002340E07B6803F08043002B02D0BC
:102970006FF0800338E0FB7D184601F017FD3861E9
:102980003969786801F0AAFBF860FB68002B02D176
:102990006FF0800328E0FB68DB68BB60BB68002B3E
:1029A00002D16FF080031FE0FB685B68012B02D14E
:1029B0006FF0800318E000230593002304930023A5
:1029C000039300230293002301933B6900936FF06C
:1029D00001037A68B968F86801F0C0FB044B9B6892
:1029E000F968B8689847034618461837BD4680BD51
:1029F0005899010080B584B000AF78603960002339
:102A0000FB603B6803F000433B60104B1B685B6856
:102A1000103BFB60FB689A6A7B681340002B01D176
:102A200001F0E2F83B68B3F1004F06D1084B1B6997
:102A30007968F8689847034603E0FB681A6B7B687F
:102A4000134018461037BD4680BD00BFEC5600202D
:102A50005899010080B588B002AF786039600023D2
:102A60007B6100233B617B68002B05D07B685A1E8D
:102A70007B681340002B01D001F0B6F81C4B1B689B
:102A80005B68103B3B610123FB60FB680093022302
:102A900000223021386801F01BFC0346002B01D0D6
:102AA00001F0A2F83B691B6B002B01D101F09CF8EF
:102AB0003B691A6B7B681340002B01D101F094F83D
:102AC0007968386901F0F0F978617B69002B02D1EF
:102AD0006FF08B0307E07B691833302219463868A2
:102AE00000F0DCFF002318461837BD4680BD00BF4C
:102AF000EC56002080B58AB002AFF860B9607A6009
:102B00003B600023FB61F86801F005FBF861FB699D
:102B1000002B01D101F068F80123BB61FB699B69BF
:102B2000002B01DA01F060F8BB68032B01D901F03A
:102B30005BF8FB69BA680A3253F82230002B01D1E6
:102B4000002339E0BB6900930223002239687868CA
:102B500001F0BEFB0346002B01D001F045F8FB69F4
:102B6000BA680A3253F822303A68934228BF1346B3
:102B70007B61FB69BA68093253F832307A691946C9
:102B8000786800F08BFFFB69BA68093253F832208D
:102B90007B69D118FB69BA68093243F83210FB69C6
:102BA000BA680A3253F822207B69D11AFB69BA68E5
:102BB0000A3243F822107B6918462037BD4680BD93
:102BC00080B586B000AFF860B9607A6000237B61A1
:102BD000F86801F0A0FA78617B69002B01D101F05F
:102BE00003F87B699B69002B01DA00F0FDFFBB68ED
:102BF000032B01D900F0F8FF7B69BA680A3253F859
:102C00002230002B01D1002326E07B69BA680A320A
:102C100053F822307A689A4205D97B69BA680A3239
:102C200053F822307B607B69BA68093253F832204E
:102C30007B68D1187B69BA68093243F832107B6926
:102C4000BA680A3253F822207B68D11A7B69BA68C5
:102C50000A3243F822107B6818461837BD4680BDFB
:102C600080B588B002AFF860B9607A603B6000233D
:102C70007B61F86801F04FFA78617B69002B01D124
:102C800000F0B2FF01233B617B699B69002B01DAF5
:102C900000F0AAFFBB68032B01D900F0A5FF7B69F8
:102CA000BA680E3253F822207969BB680D33DB0015
:102CB0000B445B68D31A3A689A4201D900F094FF3A
:102CC0003B690093012300223968786801F000FB1A
:102CD0000346002B01D000F087FF7B69BA680D32F4
:102CE00053F832207969BB680D33DB000B445B6815
:102CF00013443A687968184600F0D0FE7A69BB68D8
:102D00000D33DB0013445A683B681A447969BB6889
:102D10000D33DB000B445A6000BF1837BD4680BD41
:102D200080B586B000AF7860396000237B610023F6
:102D3000BB60786801F0EFF938613B69002B01D185
:102D400000F052FF3B69DB68FB60FB68002B01D1A0
:102D500000F04AFF3B699B6913F1020F1ED0B3F1EB
:102D6000FF3F1FD13B68002B02D17B687B612FE0C6
:102D70003B6813F1820F06D16FF081037B613B69E1
:102D800002225A6024E03B6813F1830F03D16FF0F5
:102D900082037B611CE000F027FF19E03B690222FF
:102DA0005A6015E03B699B69002B0FDB3B687B6138
:102DB000386901F0E1FBFB681B689B6803F4007352
:102DC000002B05D03B6902225A6001E000F00CFFA5
:102DD0007B6913F1810F05D13B691B6A002B01DB75
:102DE00000F002FFFFF730FB0346BB600C4BDB68D3
:102DF0007969386998477861BB681846FFF731FBF5
:102E00003B695B68022B03D1386901F02DF802E0C1
:102E10003B6900225A607B6918461837BD4680BD61
:102E20005899010080B584B000AF7860786801F0EF
:102E3000B7F8F8600821F86801F0E4FB00BF10372C
:102E4000BD4680BD80B582B000AF00233B6000234B
:102E50007B600F4B1B685B68103B7B607B681B6B68
:102E600003F00803002B01D100F0BEFEFFF7ECFADF
:102E700003463B607B681B6B23F008027B681A6388
:102E80003B681846FFF7EDFA00BF0837BD4680BD26
:102E9000EC56002080B500AF03F0D4F800BF80BD31
:102EA00080B584B000AF78603960786801F033F99C
:102EB000F860FB68002B01D100F096FEFB68DB6830
:102EC0001B689B6803F40073002B01D000F08CFE9C
:102ED000FB683A685A62FB683A681A6000BF1037AC
:102EE000BD4680BD80B483B000AFEFF3108372B6EF
:102EF0007B607B6818460C37BD4680BC704780B449
:102F000083B000AF78607B6883F3108800BF0C3714
:102F1000BD4680BC704780B48BB000AF78607B68E2
:102F20001B68FB61FB699B699A00FB6913443033A2
:102F3000BB617B6810337B6108237B62FB699B6804
:102F400003F40073002B05D1FB69DB699B007A6AEF
:102F500013447B627B699A687B6A073323F007031B
:102F60001A447B699A607B691A687B699B68D21AEC
:102F70007B691A607B691B683B61FB69DA683B69A6
:102F80001A603B6900225A603B690833FB60FB69A9
:102F90009B6803F40073002B1DD100233B6211E0FA
:102FA0003A6A13465B001344DB001A46BB691344BC
:102FB00019693B6A9B00FA6813440A461A603B6A27
:102FC00001333B62FB69DA693B6A9A42E8D8FB69E4
:102FD000DA693B695A607B683A69DA6000BF2C376E
:102FE000BD4680BC7047000080B586B000AF7860F9
:102FF000396000237B6100233B610023FB603B6859
:10300000002B0AD07B68002B07D07B681B68002B45
:1030100003D07B685B68002B02D16FF0800340E037
:103020007B685B687B617B681B685B693B61FFF762
:1030300059FF0346FB607B699A6C3B68C3F88C20A0
:103040007B693A689A647B691A6B3B691A437B69AE
:103050001A637B69DA6A3B691340002B11D07B69E4
:1030600003F134007B691A6B7B69DB6A13401946F4
:1030700000F036FB7B69DA6A3B69DB431A407B6907
:10308000DA62FB681846FFF73AFF3B681033074ADD
:1030900012681146184600F007FB3B6801225A608F
:1030A000002318461837BD4680BD00BFEC560020EF
:1030B00080B582B000AF786039607B6810333A68C1
:1030C0001146184600F00CFB002318460837BD4691
:1030D00080BD000080B584B000AF786039607B6847
:1030E0001B68FB607B689B6A43F008027B689A62FE
:1030F0007B689A6A3B681A437B689A627B68294AB4
:103100005A637B6800229A637B68002B02D07B683D
:1031100000229A64FB6828331A68FB681B69134411
:1031200023F007027B681A61FB6828331B680733AA
:1031300023F007027B685A617B6800229A617B68F2
:103140000022DA617B6800221A627B68164A5A62A2
:103150007868FFF7E0FEFB689B68DAB27B6883F86B
:103160003C207B68002283F83D207B680022DA87C0
:103170007B6803F110027B681A64FB685B68002BB4
:1031800003D17B681033094A13607B683C336FF0CE
:1031900001020749184600F01FFA00BF1037BD466C
:1031A00080BD00BF6A626F73EDEEEEEEE856002060
:1031B0005508010080B582B000AF0D4800F05AFA02
:1031C00078600B4B1B685B68103B3B603B681A6880
:1031D0003B685B681946104601F0DCFF0346002B94
:1031E00001D000F001FD7B6818460837BD4680BD60
:1031F000EC56002080B584B000AF786039600023C1
:10320000BB60FFF76FFE0346BB607B681B6B3A68D1
:103210001340FB60FB68002B0AD17B683A68DA62D6
:103220007B683433074A12681146184600F03CFAAE
:10323000BB681846FFF763FEFB6818461037BD46AB
:1032400080BD00BFEC56002080B582B000AF786032
:103250007B6803F134007B681A6B7B68DB6A134080
:10326000194600F03DFA7B680022DA6200BF083799
:10327000BD4680BD80B483B000AF78607B6803F04A
:103280004003002B14BF01230023DBB218460C3788
:10329000BD4680BC7047000080B586B000AF0346D5
:1032A000B9607A60FB7300237B61FB7B102B00F21B
:1032B000BE8001A252F823F0FD3201000533010067
:1032C000B333010013330100C93301001934010085
:1032D000ED330100D73301003533010057330100CE
:1032E0007333010003340100933301009F33010065
:1032F0002F340100A5330100AB330100FFF7DEF8E6
:1033000003469BE0BB681B681846FFF7DFF80346DF
:1033100094E0BB681B681846BB6804331968BB6837
:1033200008331B681A46BB680C331B68FFF7F2F8BA
:1033300078617FE0BB681B681846BB680433196876
:10334000BB6808331B681A46BB680C331B68FFF761
:10335000D1FB034672E0BB681B681846BB680433A8
:103360001968BB6808331B681A46FFF729FC034637
:1033700064E0BB681B681846BB6804331968BB6807
:1033800008331B681A46BB680C331B68FFF768FCE0
:1033900050E0BB681B681846FFF744FD4AE0FFF7A2
:1033A00051FD47E0FFF776FD44E0FFF780F8034664
:1033B00044E0BB681A68BB6804331B6819461046B2
:1033C000FFF756FA786135E0BB681B681846FFF7CF
:1033D000BDFA78612EE0BB681B681A46BB680433EF
:1033E0001B6819461046FFF75BFD23E0BB681A68AF
:1033F000BB6804331B6819461046FFF72BFB0346D6
:103400001CE0BB681B681A46BB6804331B6819467E
:103410001046FFF785FC0DE0BB681A68BB680433F3
:103420001B6819461046FFF7E5FA034606E06FF001
:10343000830303E07869FFF720F87B6918461837A3
:10344000BD4680BD80B586B000AFF860B9607A60D7
:103450000023FB75FB683B61BB6803F00803002B8E
:1034600006D0BB6803F00403002B01D07B683B61EE
:10347000B868FFF7FFFE0346002B06D03B69183300
:103480001B68023B1B78FB7501E000F0ADFBBB68DD
:1034900003F00803002B0CBF01230023DAB297F9D5
:1034A0001730DBB2DB09DBB25340DBB2002B01D0BB
:1034B00000F09AFBFB7D402B0AD0412B0CD100F091
:1034C00091FFB860144BB968184600F0C1FB1EE0CC
:1034D000386900F097FA1AE00F4AFB68D31A082BF4
:1034E00001D900F081FBFB7DBA6839691846FFF706
:1034F000D3FE03461A463B691A6000F01BF80246E9
:10350000064B1B689A4201D000F0CAFB00BFBB68A3
:1035100018461837BD4680BD002C0020EC56002010
:1035200041DF704700BF80B500AF00F05DFB00BF1A
:1035300080BD000080B483B000AF0A4B1B687B6085
:1035400002E07B689B687B607B68002B03D07B6814
:103550005B78012BF5D17B6818460C37BD4680BCE3
:10356000704700BFF456002080B485B000AF78608B
:1035700039607B681B68002B06D03B681A787B6833
:103580001B681B789A4207D87B681A683B689A6068
:103590007B683A681A6019E07B681B68FB6002E090
:1035A000FB689B68FB60FB689B68002B06D03B6850
:1035B0001A78FB689B681B789A42F1D8FB689A6876
:1035C0003B689A60FB683A689A6000BF00BF143796
:1035D000BD4680BC7047000080B584B000AFF86085
:1035E000B9607A60FB68002B00D1FEE7F9680948F2
:1035F000FFF7BAFFFB685868B9687B68002200F0E3
:103600005DFB0121F86800F007F800BF1037BD46E8
:1036100080BD00BFF056002080B483B000AF78605A
:1036200039607B68002B00D1FEE73B68DAB27B682B
:103630005A707B685B78012B0ED10C4B1B68002BFA
:1036400006D07B681A78094B1B681B789A4203D214
:10365000064A7B68136004E0054B1B68034A13604D
:1036600000BF00BF0C37BD4680BC7047F456002039
:10367000F056002080B584B000AF7860FFF75AFFA5
:10368000F86000F00DFB7B68002B02D07B68FA68C5
:103690001A60FB685B68184600F03FFB034618465B
:1036A0001037BD4680BD000080B582B000AF7860A5
:1036B00039607B68002B04D07B681B68074A934203
:1036C00000D0FEE77B683A685A6002213868FFF74D
:1036D000A3FF00BF0837BD4680BD00BF6A626F739D
:1036E00080B582B000AF786039607B68002B04D071
:1036F0007B681B68104A934200D0FEE77B685B68DA
:10370000002B14D07B685B685B78022B0FD17B6841
:103710005B6801211846FFF77FFF7B685B685B6889
:103720003968184600F09CFA7B6800225A6000BF96
:103730000837BD4680BD00BF6A626F7380B483B036
:1037400000AF03463960FB7197F90730002B0ADBA5
:103750003B68DAB20C4997F907305201D2B20B44F8
:1037600083F800230AE03B68DAB20849FB7903F0EA
:103770000F03043B5201D2B20B441A7600BF0C3740
:10378000BD4680BC704700BF00E100E000ED00E0F6
:1037900070B572B61446EFF30B855FF0000C002A8B
:1037A0001FBF8CF30B886C46954683F30B880D4A3C
:1037B0000123136062B60E46FEF7C8FD72B63146AD
:1037C000FEF7EEFD5FF0000C002C1EBF8CF30B88A3
:1037D000A54685F30B88034C0025256062B670BDB5
:1037E00000BF0000F8560020402010EA0E0018D05C
:1037F00001B500F057FEBDE80440884211D072B612
:10380000EFF30982EFF30B8322E9F00F80E81C400D
:1038100091E81C40B2E8F00F82F3098883F30B882B
:1038200062B6704700BF0000EFF308807146EFF307
:103830000982EFF30B830CB406B4FFF703FE864650
:1038400006BC0CBC00F0080001F00801401A01DCC5
:103850000DDB70470CB42DE9F00F084C25462646C9
:103860002746A046A146A246A34630B4704730BCC6
:10387000BDE8F00F06BC704700BF0000A5EDF5FEE7
:1038800080B584B000AF174BFB60FB68DB68BB60A2
:10389000BB68DB431B0C1B047B60BB689AB27B6874
:1038A000134343F48042FB68DA6000216FF00B00A1
:1038B000FFF744FF00216FF00A00FFF73FFF0021F0
:1038C0006FF00800FFF73AFF00216FF00400FFF7E8
:1038D00035FF03216FF00100FFF730FF00BF103705
:1038E000BD4680BD00ED00E080B400AF00BFBD4626
:1038F00080BC7047EFF3148030F0040080F314882C
:10390000BFF36F8F704700BF90B583B000AF0A4C14
:1039100001F0C0FE0346A36001F0C6FE03467B60D3
:103920007B6883F3888800BF01F0CAFE034618460F
:103930000C37BD4690BD00BF00ED02E0FFF7E4FF8D
:10394000009A0B4B9A4210D1044601229443204620
:10395000214622462346254626462746A046A1461E
:10396000A246A346A446A6460447FEE700BF0000C1
:10397000A5EDF5FE80B500AF00214FF0FF3005F05A
:1039800053FF0346002BF7D130BFF5E780B586B073
:1039900000AF0346FB714FF0FF333B610023FB6038
:1039A00000F07AFCB86000237B6114E00E4A7B696A
:1039B00052F83330BA689A420AD1FA790A497B69D7
:1039C000DB000B445B689A4202D100233B6106E0B6
:1039D0007B6901337B617A69FB689A42E6D33B6974
:1039E00018461837BD4680BD7099010080B400AFFD
:1039F000034B01221A6000BFBD4680BC704700BF68
:103A0000FC56002080B58AB002AF78607B681B68E6
:103A1000FB777B6804331B68BB617B6808331B68DA
:103A2000FB8201233B61F98A3B6900930223002258
:103A3000B86900F04DFC0346002B03D07B680322DD
:103A40001A6026E0144B1B68012B03D07B6803220D
:103A50001A601EE0FB7F1846FFF798FF0346002B15
:103A600003D07B6803221A6013E0FB8A032B03D880
:103A70007B6803221A600CE0BB69FB60FB6842F2C2
:103A800016021A80FB6804225A807B6800221A60A2
:103A900000BF2037BD4680BDFC56002080B487B0F3
:103AA00000AFF860B9607A60FB687B61BB683B611E
:103AB0000AE03A69531C3B617B69591C79611278B1
:103AC0001A707B68013B7B607B68002B15D07B699B
:103AD00003F00103002BECD13B6903F00103002B41
:103AE000E7D10AE03A69931C3B617B69991C7961D3
:103AF00012881A807B68023B7B607B68012B15D99A
:103B00007B6903F00203002BECD13B6903F0020355
:103B1000002BE7D10AE03A69131D3B617B69191D4F
:103B2000796112681A607B68043B7B607B68032BB9
:103B3000F1D807E03A69531C3B617B69591C7961F4
:103B400012781A707B685A1E7A60002BF2D1FB68DB
:103B500018461C37BD4680BC704780B487B000AFA4
:103B6000F860B9607A60FB683B61BB68DBB21A063B
:103B7000BB68DBB21B041A43BB68DBB21B021343F6
:103B8000BA68D2B213437B6108E03B695A1C3A61C0
:103B9000BA68D2B21A707B68013B7B607B68002BED
:103BA0000DD03B6903F00303002BEED107E03B6926
:103BB0001A1D3A617A691A607B68043B7B607B68F6
:103BC000032BF4D805E03B695A1C3A61BA68D2B2BB
:103BD0001A707B685A1E7A60002BF4D1FB68184675
:103BE0001C37BD4680BC704780B500AF02F02AFA92
:103BF00000BF80BD80B485B000AF78607B68FB609B
:103C0000FB6883F30B8800BF00BF1437BD4680BC40
:103C10007047000080B483B000AF78607B6803F029
:103C20000703002B00D0FEE77B68083B7B607B68C6
:103C3000064A1A607B6804331A46044B13607B689B
:103C400018460C37BD4680BC704700BFA5EDF5FE99
:103C50008546024A014B0CB4084700BFA5EDF5FEAE
:103C600080B485B000AF786039607B68FB60FB682A
:103C70001B69002B09D0FB681B691A463B6813605F
:103C8000FB684FF0EE325A6104E0FB681B681A468D
:103C90003B68136200BF1437BD4680BC704700000C
:103CA00005484FF080510160BFF34F8FBFF36F8F16
:103CB000704700BF1846000004ED00E080B586B0F4
:103CC00000AFF860B9607A603B60FB681B687B619D
:103CD0007869FFF79FFF03463B613B69403B3B61CF
:103CE000402200213869FFF738FF7A683B691A6281
:103CF0003B69BA689A633B693A685A633B694FF01B
:103D00008072DA63FB686FF00202DA603A69FB687E
:103D10001A6000BF1837BD4680BD80B586B000AFC1
:103D200078607B687B617B691B6820333B617B69C2
:103D30005B681846FFF75EFF3B69FB60FB6883F337
:103D4000098800BF7B69DB6818461837BD4680BD0F
:103D500080B483B000AFEFF3108372B67B607B68F2
:103D600018460C37BD4680BC704780B483B000AFA6
:103D700078607B6883F3108800BF0C37BD4680BC39
:103D80007047000080B485B000AF78600B4B1B68B3
:103D9000013303F00703094A13607B68084A12687D
:103DA0009B1ADA00054B1B6813440133FB60FB6868
:103DB00018461437BD4680BC704700BF385C0020F1
:103DC000244F002080B485B000AF78607B68002B62
:103DD00001D1002307E07B68013BDB08044A12683D
:103DE0001344FB60FB6818461437BD4680BC70471F
:103DF000244F002080B582B000AF0C4B1B681846E2
:103E000000F06CFE78607B68002B01D1002308E095
:103E1000902200217868FFF7A0FE7B6800225A609C
:103E20007B6818460837BD4680BD00BF244F002080
:103E300080B582B000AF7860094B1B68796818467E
:103E400000F083FE034683F00103DBB2002B01D0B8
:103E5000044B00E0002318460837BD4680BD00BF74
:103E6000244F00200500008080B584B000AF78604A
:103E70000023FB607B68002B00D1FEE7FFF768FFA3
:103E80000346FB60074B1B687968184600F049FE43
:103E9000FB681846FFF769FF002318461037BD4638
:103EA00080BD00BF244F002080B588B000AF78608F
:103EB000396000237B610023FB6000233B61FFF737
:103EC00047FF0346FB607B684833BB617B689B6CA4
:103ED000FB6112E0FB69DB681B685B693A689A4228
:103EE00004D1BB697B613B6901333B61FB698C3366
:103EF000BB61FB69D3F88C30FB61FB69002BE9D116
:103F00007B69002B12D07B691B68FB617B691B6896
:103F1000D3F88C207B691A603B69012B06D17B6842
:103F20001A6B3B68DB431A407B681A63FB681846D0
:103F3000FFF71BFFFB6918462037BD4680BD000018
:103F400080B485B000AF78600023FB60134B5B68E2
:103F5000BB601AE0BB681B685B687A689A420FD145
:103F6000FB68002B0AD0BB689A68FB689A600B4B11
:103F70005A68BB689A60094ABB685360BB6808E02E
:103F8000BB68FB60FB689B68BB60BB68002BE1D132
:103F9000002318461437BD4680BC704700570020E8
:103FA00080B485B000AF78600B4B5B68FB600AE0C3
:103FB000FB681B685B687A689A4201D1FB6806E07F
:103FC000FB68DB6CFB60FB68002BF1D1002318461B
:103FD0001437BD4680BC7047E056002080B483B0E3
:103FE00000AF786039607B68002B00D1FEE77B680A
:103FF0001B689B6803F48063002B03D0B3F5806FCC
:1040000008D00FE07B681B68DB683A689A420BD9DE
:104010000A4B0DE07B681B68DB683A689A4205D062
:10402000064B05E0054B03E000BF00E000BF0023A6
:1040300018460C37BD4680BC704700BF03000080A7
:1040400080B588B000AFF860B9601346FB710023FB
:10405000BB61BB68002B00D1FEE7FB79002B08D0C9
:10406000BB681B689B6803F48073002B2DD1194B30
:104070002CE0194B1B685B68103BBB61BB69002BD4
:1040800001D1FFF7B1FDBB691B6830337B610023B1
:10409000FB610AE0FB699B007A6913441B68FA68BC
:1040A0009A4209D0FB690133FB61BB691B689A69BD
:1040B000FB699A42EED800E000BFBB691B689A69B1
:1040C000FB699A4201D1034B00E0002318462037D8
:1040D000BD4680BD05000080EC56002080B584B050
:1040E00000AF786039607868FFF76CFEF860F868B8
:1040F000FFF79EFE0346002B01D0002307E0FB687C
:104100001B6A3A689A4201D0002300E0FB68184617
:104110001037BD4680BD80B584B000AF7860786848
:10412000FFF750FEF860F868FFF782FE0346002BA9
:1041300001D000230DE000F0AFF8B860FB68DB6849
:104140005B681B685B68BA689A4201D0002300E094
:10415000FB6818461037BD4680BD000080B586B0AC
:1041600000AFF860B9607A603B60FB68002B00D15B
:10417000FEE7BB68002B00D1FEE77B6A002B03D172
:10418000BB6A002B00D0FEE7FB6A002B03D13B6B20
:10419000002B00D0FEE7BB6A042B00D9FEE73B6B87
:1041A000042B00D9FEE7BA6A3B6B1344042B00D9F9
:1041B000FEE7FB681833302200211846FFF7CDFCDC
:1041C000FB68334A1A61FB6800225A61FB68BA68CF
:1041D000DA60304B1B685B68103B1A46FB689A60DC
:1041E000FB687A6BC3F88820FB683A6A1A62FB683E
:1041F0003A689A6100237B6116E07B69DB007A6A8A
:1042000013445968FB687A690A3243F822107B69C3
:10421000DB007A6A13441968FB687A69093243F84B
:1042200032107B6901337B617A69BB6A9A42E4D3BD
:1042300000237B611DE07B69DB00FA6A1344596847
:10424000FB687A690E3243F822107B69DB00FA6A58
:1042500013441968FB687A690D3243F83210FA6822
:104260007B690D33DB00134400225A607B69013304
:104270007B617A693B6B9A42DDD3FB687A68DA61CD
:10428000FB681A68FB685A6200BF1837BD4680BDDC
:104290006A626F73EC56002080B483B000AF0B4BA2
:1042A0001B685B68103B7B607B68002B07D07B68DA
:1042B0001B68002B03D07B681B685B6801E04FF034
:1042C000FF3318460C37BD4680BC7047EC560020C3
:1042D00080B586B000AFF860B96011461A460B464B
:1042E000FB711346BB7100237B61BB68002B01D1BE
:1042F000002337E0FB68002B01D11C4B32E0BB6888
:10430000DA43FB689A4201D2194B2BE0BB79022BAE
:1043100004D17B6943F006037B6103E07B6943F0D2
:1043200002037B613B6A002B04D17B6943F00803E5
:104330007B6103E07B6923F008037B61FB79002B41
:1043400003D07B6943F020037B61FB687A69B9681D
:10435000184601F00FF838613B69002B01D10023AA
:1043600000E0034B18461837BD4680BD01000080B1
:104370000400008080B582B000AF0B4B1B685B6807
:10438000103B7B607B68002B01D1FFF72DFC7B6825
:104390001B685B68002B0CBF01230023DBB21846AF
:1043A0000837BD4680BD00BFEC56002080B584B004
:1043B00000AF0346FB71FB79002B03D000F0FEFB3E
:1043C000F86002E0FFF768FFF860FB79FA68D20F47
:1043D000D2B2934201D0FFF707FCFB6818461037B2
:1043E000BD4680BD80B584B000AF0023FB60264B86
:1043F00018680823902240F2AC4100F023FB234BC5
:1044000000225A60224B00225A6000F0DFFB1F4856
:1044100000F068F9B860BB68002B27D0BB681B6848
:104420007B607B68DB69002B06D08023194A184922
:10443000B86800F0F9F9F8607B685B6A002B02D07D
:10444000B86800F0A2FABB681A68BB680433194662
:10445000104600F00BFE0346002B01D0FFF7C4FB13
:104460000D4B1B68F968B8689847D0E700BF0B4B45
:104470001B681A460A4B1A60074B5B68984703464D
:1044800018461037BD4680BD244F0020E05600205E
:10449000005700200857002058990100444F002081
:1044A0008857002080B58AB000AFFFF743F87862E4
:1044B00000237B602D4B1B685B683B623B6ABB60E3
:1044C0003B6AFB60294B1B685B68103BFB617B6AA6
:1044D0003C3BBB61264B1B68012B33D07B6A002B16
:1044E00030D0FA69BB699A422CD03B6A5B6803F111
:1044F0002002EFF309837B617B699A4201D9FFF7C0
:1045000073FBFFF725FC03467B60FB695A68BB69B8
:104510005B689A420CD0BB691A68BB695B68194634
:10452000104600F037FE0346002B01D0FFF75CFB7E
:104530007B6A5B68FB600D4A7B6A13607B68184688
:10454000FFF713FC0B4B1B68002B08D0BB69DB6823
:10455000002B04D0BB69DA68064B1B681A60D7E9E8
:104560000223104619462837BD4680BDEC56002070
:10457000F85600208857002080B485B000AF7860DE
:104580007B681B691E4A934205D07B685B695B7838
:10459000022B00D0FEE70023FB6027E07B68FA686F
:1045A0000E3253F82230002B1CD07B68D3F88820C1
:1045B000FB68DB0013441A687B68F9680D3153F817
:1045C00031309A4200D0FEE77B68D3F88820FB6840
:1045D000DB001A447968FB680D33DB000B445B6831
:1045E000536000E000BFFB680133FB60FB68032BF6
:1045F000D4D900BF00BF1437BD4680BC704700BF90
:104600006565212180B584B000AF786039600023F2
:10461000BB607B68FB60FB68002B01D1FFF7E4FA0D
:10462000FFF796FB0346BB60FB681A6B3B681A43B7
:10463000FB681A63FB68DA6A3B681340002B03D0FF
:10464000054B5B69F8689847BB681846FFF78DFB18
:1046500000BF1037BD4680BD5899010080B582B0BB
:1046600000AF0A4B1B687B60084B1B685033074A3E
:104670001360064B1A68064B1B689A4201D9FFF774
:10468000B3FA7B6818460837BD4680BD304F00201E
:10469000344F002080B584B000AF78600F4B1B68AA
:1046A000FB607B68002B01D1002313E07A6813467E
:1046B0005B0013449B001A46084B1B681344074ACF
:1046C0001360064B1A68064B1B689A4201D9FFF724
:1046D0008BFAFB6818461037BD4680BD384F002066
:1046E0003C4F002080B584B000AF78607B68002B21
:1046F00001D1FFF779FA494B1B6813F1290F07D84D
:10470000464B1B6803F12802454B1B689A4201D3B4
:1047100000237FE0414B1B68FB60404B1B68D94383
:10472000FB689869FB68DA6913465B0013445B0019
:104730001844FB681A6A13465B0013441844FB686C
:104740005A6A13469B00134403440C339B0099425E
:104750001DD3FB689969FB68DA6913465B00134453
:104760005B001944FB681A6A13465B001344194442
:10477000FB685A6A13469B0013440B440C339A009F
:10478000264B1B681A44264B1B689A4201D9FFF737
:104790002BFAFB681B681B0C1B04224A934201D0B6
:1047A000FFF722FAFB681B689BB2B3F5817F01D348
:1047B000FFF71AFAFB685B68002B01DAFFF714FABF
:1047C000FFF74CFFB860BB68FA681A60FB6899692C
:1047D000FB68DA6913465B0013445B001944FB680D
:1047E0001A6A13465B0013441944FB685A6A13465D
:1047F0009B0013440B440C339A00084B1B68134472
:10480000064A13607B685A68BB68DA647B68BA68DA
:104810005A60BB6818461037BD4680BD284F00203F
:104820002C4F002000005F5F80B58CB000AFF860B7
:10483000B9607A603B600023BB62FB68002B02D04A
:10484000BB68002B01D1FFF7CFF9FB681B687B62C7
:104850007B6A9B699A007B6A134430333B627B6AB4
:10486000DB691846FFF716FFF8610023FB627EE064
:10487000FA6A13465B001344DB001946FA6A1346D2
:104880005B0013449B001A46FB6913443A6A0A44CE
:104890001A60FA6A13465B0013449B001A46FB69D0
:1048A0001344FA685A60FA6A13465B0013449B008B
:1048B0001A46FB69134400229A60FA6A13465B00A9
:1048C0001344DB001A463B6A13445B69BA6A13431C
:1048D000BB62FA6A13465B001344DB001A463B6A6C
:1048E00013449B68BB61BB6903F40073002B26D0A3
:1048F0007B68002B05D03B68002B02D03B68802BE7
:1049000001D0FFF771F9BB69DBB27B617B691F2BBB
:1049100006D87B699B007A6813441B68002B01D082
:10492000FFF762F9FA6A13465B0013449B001946CD
:104930007B699B007A681344FA690A441A60FA6A30
:1049400013465B0013449B001A46FB691344BA6884
:1049500052689A60FA6A13465B0013449B001A4639
:10496000FB691A44BB685A60FB6A0133FB627B6ACD
:10497000DB69FA6A9A4203D2FB69002B7FF478AFB5
:10498000BB6A18463037BD4680BD80B586B000AFE3
:1049900078607B68002B01D1FFF726F97B681B68E4
:1049A000FB60FB689B699A00FB68D118FB68DA69B9
:1049B00013465B001344DB001944FB681A6A134674
:1049C0005B0013449B000B4430337B6100233B614D
:1049D0002EE07B689A6A7B691B691A437B689A623E
:1049E0007B691B687969786898470346002B01D07A
:1049F000FFF7FAF8FB681B689BB2B3F5807F05D11F
:104A00007B69DB68184600F0A7FE0BE0FB681B68BB
:104A10009BB240F20112934204D17B69DB681846D5
:104A200000F0A8FE7B6914337B613B6901333B6175
:104A3000FB685B6A3A699A42CBD300BF00BF183764
:104A4000BD4680BD80B586B000AFF860B9607A60C1
:104A50003B60FB68002B02D03B68002B01D11E4B52
:104A600035E07B6804333A6802FB03F30C33BA6821
:104A70009A4201D0184B2AE0BA680021F868FFF783
:104A80006CF8FB68002B02D0FB6800221A60FB6800
:104A90000C337B6100233B610EE0FB681A687B6985
:104AA0001A60FB687A691A607A697B681344043378
:104AB0007B613B6901333B613A693B689A42ECD3C5
:104AC000FB687A685A60FB683A689A600023184667
:104AD0001837BD4680BD00BF0100008080B485B09E
:104AE00000AF78607B68002B01D1002314E07B6865
:104AF000002B03D07B681B68002B01D100230BE047
:104B00007B681B68FB60FB681A687B681A60FB683F
:104B100000221A60FB68043318461437BD4680BC77
:104B2000704780B485B000AF786039603B68043B63
:104B3000FB607B681A68FB681A607B68FA681A6019
:104B400000BF1437BD4680BC704780B489B000AF49
:104B5000786039607B680C33FB617B685B68043389
:104B6000BB617B689B687B61BB697A6902FB03F36D
:104B7000FA6913443B610023FB603B68FA699A427F
:104B800003D83B683A699A4201D8002311E03B6898
:104B9000043BFB60FA68FB69D31ABA69B3FBF2F213
:104BA000B96901FB02F29B1A002B01D0002300E03F
:104BB000012318462437BD4680BC704780B400AF3F
:104BC0004FF0FF331846BD4680BC704780B400AF3D
:104BD00000BFBD4680BC70470F4B02689A4206D1A9
:104BE000C269A3F11023A3F1EF139A4201D001206F
:104BF00070478368012BFAD8C36813B102699342E6
:104C0000F5D043692BB18069C01AB0FA80F0400931
:104C100070471846704700BF55AA00FF174B9968A8
:104C200049B370B50846FFF7D7FF08B9CB680BB199
:104C3000012070BD0B69002BFBD0114C114D1A687F
:104C4000A242F5D1DA69AA42F2D19A68012AEFD8D4
:104C5000DA6812B11E69B242EAD05E691EB1D3F8B9
:104C600018C06645E4D08A42E2D11A691946002A82
:104C7000DFD01346E3E70120704700BF3C5C002013
:104C800055AA00FF669911EE002866D070B5384D20
:104C90002B68002B55D0AA68002A52D083420146C7
:104CA00062D86A68134498425ED2A0F1200630466A
:104CB000FFF792FF002857D151F8183C012B53D130
:104CC00051F8144C41F8180C51F8100C002C39D044
:104CD000A368002B36D151F81C2C63682032134492
:104CE0002061636000B1C460202200213046FBF7E0
:104CF000F3FC2069F8B18368EBB926464268736813
:104D000013440269203373603261D6E9051339B365
:104D10008B61B36903B15961416983697161B361A1
:104D2000E1B18E61B36903B15E6102B1D660202248
:104D30000021FBF7D1FC2B699B0702D5FFF76EFF23
:104D400090B970BD10B18368002BD7D0EB6841F8E3
:104D5000083C03B15E61EE60EDE77047EE60E2E7AC
:104D6000002BD9D0EB60D6E7012003F0DFFC00BFB9
:104D70003C5C00202DE9F0473D4D2C68002C3FD0D5
:104D8000AC68002C3CD0002839D0002937D001FB7A
:104D900000F6B6FBF0F0884231D1301D2FD8B107B4
:104DA00031D13146EC6814B92AE0A46944B3636890
:104DB0008B42FAD3D4F80880B8F1000F55D1D4E96A
:104DC00005705B1A232B22D80123A360002F48D043
:104DD000B861A06900B1476100232A69C4E90533BD
:104DE000D20703D5FFF71AFF00283ED12034324600
:104DF00000212046FBF770FC2046BDE8F087002428
:104E00002046BDE8F08726F003010431CAE7D4F854
:104E100010E001F1200CDFF85CA0DFF85C9004EBFF
:104E20000C02203BC2E90138C2E9034E44F80CA051
:104E3000C2F81C90BEF1000F01D0CEF80C20C2E9E0
:104E4000057087B1BA61906900B142610023616069
:104E5000296922610122C4E90533CB07A260C5D5C7
:104E6000C0E7E860B6E7EA60EEE7012003F05EFC29
:104E70003C5C002055AA00FF669911EE38B50D463E
:104E80001422002104461148FBF726FC1049114862
:104E900003F018FC232D18D914F0030304D0043DAB
:104EA000C3F104021D4414442A4600212046FBF7A6
:104EB00013FC064B084A0948A5F12001C3E9015437
:104EC0001C60E061C4E90021DC6038BD3C5C00206E
:104ED000894C0100754D010055AA00FF669911EE3D
:104EE00038B50446406A18B1A16A01F05DFE606AF7
:104EF00003F0E2FB0021236A2C22012B0CBF0D469C
:104F00006FF096052046C4E90911FBF7E5FB28463A
:104F100038BD00BF70B50C4D82B02B78DB0710D5C3
:104F20000C4600260146224601AB281D019600F0E2
:104F30006DF820B9019BA34218BF6FF0930002B037
:104F400070BD6FF08800FAE7505C002038B51A4D4C
:104F5000297811F0010102D00024204638BD082232
:104F6000281DFBF7B9FB02222B7862F342032B705A
:104F700000F026F8044668B100F02EF82B7813F004
:104F8000060F12D10C210C4801F00EFE00F03CF887
:104F9000204638BD00F036F804460028ECD12B78C6
:104FA000204643F001032B7038BD0822002103483E
:104FB000FBF792FBE6E700BF505C0020545C00204A
:104FC000044A002092F8803543F0010382F88035CE
:104FD000704700BF5C5C0020F8B5094F01263C46D5
:104FE00007F5B065266220462C34FFF779FFAC4206
:104FF000F8D197F880356FF3000387F88035F8BD56
:105000005C5C002000207047704700BF38B500206E
:1050100014461D4601F09AFD28B92B68A34218BF1B
:105020006FF0930038BD6FF0920038BD80B500AFCF
:1050300000F0F4FD00F000FE0346002B02D043F622
:10504000DA3310E000F022FE0346002B02D043F6D4
:10505000DA3308E000F020FA0346002B02D043F6D2
:10506000DA3300E00023184680BD000080B58EB022
:1050700000AF786039607B68002B02D03B68002B62
:1050800002D143F6DA337DE0012387F8333097F815
:1050900033301A463B681A6000237B636CE07B6800
:1050A0009B699A007B68D1187B68DA6913465B00BC
:1050B0001344DB000B443033FB627A6B13465B0016
:1050C00013449B001A46FB6A13449B6803F00803D1
:1050D000002B4BD0002387F82B3000237B6200BFCE
:1050E00097F82B3083F00103DBB2002B02D043F69C
:1050F000DA3347E07A6B13465B0013449B001A4691
:10510000FB6A13441B683B623B6A1B68002B2FD071
:105110003B6A1B68184600F0D5FE97F8333083F0E1
:105120000103DBB2002B24D0184B1B685A1C174913
:105130000A60BB603B6A1B68FB603B6A5B683B6163
:1051400000237B6101237B760023BB7601233B7622
:1051500007F1080319460E4800F0A8FF0346FB7745
:10516000FB7F002B05D043F6DA330BE000BF00E0F5
:1051700000BF7B6B01337B637B681B6A7A6B9A424F
:105180008DD3002318463837BD4680BDE06100202E
:10519000404F002080B487B000AF78603960EFF3F3
:1051A00014833B613B69FB603B6803F00F03002BFA
:1051B0000CBF01230023DAB23B7B62F300033B7395
:1051C000FB687B617B6983F31488BFF36F8F00BF3B
:1051D00000BF002318461C37BD4680BC704790B501
:1051E00091B000AFF860B9607A60FB687B627B6A5F
:1051F00043E800F3BB61BB693B62FA68BB681344D8
:10520000013BBB62BB6A43E800F37B617B69FB61E6
:1052100097F82330BB63FB7F7B63FB683B6301F044
:105220001DFA0246BB6B93424BD301F01EFA0246B5
:105230007B6B934245D8B86B01F003FA02463B6B97
:10524000D31A0133FB623B6B7A68F96A1846FBF7A5
:10525000DFF90346002B01D1002387E0BB6B01334C
:10526000FB6315E0FB6B184601F0E0F938633C6B1B
:1052700001F002FA03467A6819462046FBF7C8F99E
:105280000346002B01D1002370E0FB6B0133FB636D
:10529000FB6B7A6B9A42E5D8786B01F0C7F93863FB
:1052A000FA68BB681A443B6BD31AFB623B6B7A68A3
:1052B000F96A1846FBF7ACF90346002B55D10023D9
:1052C00054E001F0FEF90246BB6B93424BD301F070
:1052D000FFF902467B6B934245D8B86B01F0E2F9C7
:1052E00002463B6BD31A0133FB623B6B7A68F96A67
:1052F0001846FBF78DF90346002B01D1002335E05A
:10530000BB6B0133FB6315E0FB6B184601F0BCF986
:1053100038633C6B01F0E3F903467A68194620468E
:10532000FBF776F90346002B01D100231EE0FB6B4F
:105330000133FB63FB6B7A6B9A42E5D8786B01F023
:10534000A3F93863FA68BB681A443B6BD31AFB6253
:105350003B6B7A68F96A1846FBF75AF90346002B4B
:1053600003D1002302E0002300E001231846443764
:10537000BD4690BD80B58EB000AFF860B9607A6070
:1053800000237B637B6803F02003002B18D0EFF32E
:105390009483FB62FB6A3B6297F8203003F00103C1
:1053A000DBB2002B04D07B6843F008037B6003E092
:1053B0007B6823F008037B607B6B43F012037B6305
:1053C0007B6803F00803002B03D07B6B43F00403DE
:1053D0007B637B6803F00203002B09D07B6803F03A
:1053E0000403002B04D07B6B43F001037B630CE0D0
:1053F0007B6803F00203002B04D07B6B43F00803AF
:105400007B6302E04CF2DA2341E0FB687A6BB96817
:105410001846FBF7FDF80346002B14BF01230023B9
:10542000DBB23B633B6B002B2AD1FB687B627B6A60
:1054300043E800F37B617B69FB61FA68BB68134456
:10544000013BBB62BB6A43E800F33B613B69BB6164
:10545000BB7F23F07F03DBB2002B11D0BB7E23F098
:105460007F03DBB2002B0BD0FA7FFB7E9A4207D082
:10547000FB687A6BB9681846FFF7B1FE03463B63D9
:105480003B6B002B01D0002301E06FF07F03184637
:105490003837BD4680BD000080B586B000AF5548A6
:1054A00000F08DFE544B1B685A1C53490A603B6048
:1054B000524BDB687B60514B1B69BB600123FB6077
:1054C00003237B740023BB7400233B743B461946C3
:1054D000484800F0EBFD0346FB75FB7D002B02D036
:1054E00043F6DA3381E0444B1B685A1C42490A6098
:1054F0003B60434B7B60434BBB600123FB6003235A
:105500007B740023BB7400233B743B461946394827
:1055100000F0CCFD0346FB75FB7D002B02D043F66B
:10552000DA3362E0344B1B685A1C33490A603B6033
:10553000354B7B60354BBB600123FB6003237B74E1
:105540000023BB7400233B743B461946294800F0F6
:10555000ADFD0346FB75FB7D002B02D043F6DA332D
:1055600043E0254B1B685A1C23490A603B60284BCB
:105570007B60284BBB600223FB6001237B7400230C
:10558000BB7401233B743B4619461A4800F08EFD5C
:105590000346FB75FB7D002B02D043F6DA3324E093
:1055A000154B1B685A1C14490A603B601A4B7B6000
:1055B0001A4BBB600223FB6001237B740023BB7486
:1055C00001233B743B4619460A4800F06FFD034631
:1055D000FB75FB7D002B02D043F6DA3305E0012298
:1055E0000121044800F032FD002318461837BD465B
:1055F00080BD00BF404F0020E0610020849A010080
:105600000005010040090100C0190100C019010096
:10561000203C0020403C0020003C0020043C0020B6
:1056200080B582B000AF43F65C237B6000F080FA67
:1056300078607B68002B02D043F6DA3326E000F076
:1056400089FA78607B68002B02D043F6DA331DE0DC
:1056500000F09AFA78607B68002B02D043F6DA33C8
:1056600014E062B600BF00F0ADFA78607B68002BF2
:1056700002D043F6DA3309E000F0C2FA78607B68C2
:10568000002B02D043F6DA3300E000231846083737
:10569000BD4680BD80B400AF024B1B681846BD46B6
:1056A00080BC7047849A010080B400AF034B1B6834
:1056B0001B681846BD4680BC704700BF849A010035
:1056C00080B400AF034B1B6804331B681846BD460B
:1056D00080BC7047849A010080B483B000AF034659
:1056E000FB7197F90730002B0BDBFB7903F01F02EE
:1056F000064997F907305B09012000FA02F241F8E8
:10570000232000BF0C37BD4680BC704700E100E09D
:1057100080B483B000AF0346FB7197F90730002BCC
:1057200012DBFB7903F01F020A4997F907305B0986
:10573000012000FA02F2203341F82320BFF34F8FFB
:1057400000BFBFF36F8F00BF00BF0C37BD4680BCEA
:10575000704700BF00E100E080B582B000AF786024
:105760007B685BB21846FFF7B7FF0023184608377F
:10577000BD4680BD80B582B000AF78607B685BB20B
:105780001846FFF7C5FF002318460837BD4680BD01
:1057900080B483B000AF0346FB7197F90730002B4C
:1057A0000BDBFB7903F01F02064997F907305B0911
:1057B000012000FA02F241F8232000BF0C37BD4659
:1057C00080BC704700E100E080B483B000AF0346C6
:1057D000FB7197F90730002B0CDBFB7903F01F02FC
:1057E000074997F907305B09012000FA02F260339C
:1057F00041F8232000BF0C37BD4680BC704700BF76
:1058000000E100E080B483B000AF0346FB7197F97C
:105810000730002B24DB154A97F907305B09A033CA
:1058200052F82310FB7903F01F03012202FA03F35D
:10583000DA430E4897F907305B090A40A03340F875
:1058400023200A4A97F907305B09A03352F8232036
:10585000FB7903F01F0322FA03F303F0010300E0D6
:10586000002318460C37BD4680BC704700E100E0BD
:1058700080B483B000AF03463960FB7197F90730FD
:10588000002B0ADB3B68DAB20C4997F9073052016A
:10589000D2B20B4483F800230AE03B68DAB208492D
:1058A000FB7903F00F03043B5201D2B20B441A768A
:1058B00000BF0C37BD4680BC704700BF00E100E070
:1058C00000ED00E080B400AF044B1B68034A23F0F6
:1058D0000103136000BFBD4680BC7047D0ED00E0FF
:1058E00080B584B000AFF8607A601A460B46FB7250
:1058F0001346BB72FB7AFA689033DB0013445B6893
:1059000003F00103002B06D00D4B0E4A40F25B1151
:105910000D4802F0E5FEFA7AFB689032796843F8A8
:105920003210BB7A002B06D0FB7AFA689033DB008A
:10593000134401225A6000BF1037BD4680BD00BF2E
:1059400070990100A09A0100A099010080B584B06F
:1059500000AFF8607A601A460B46FB721346BB72C2
:10596000FB7AFA689833DB0013445B6803F00103A9
:10597000002B06D00D4B0E4A4FF4B5710D4802F0C6
:10598000AFFEFA7AFB689832796843F83210BB7A36
:10599000002B06D0FB7AFA689833DB00134401220F
:1059A0005A6000BF1037BD4680BD00BFE0990100BE
:1059B000B89A0100A099010080B582B000AF78606C
:1059C0000B46FB70FB787A6800210348FFF788FFDD
:1059D00000BF0837BD4680BD0030005080B582B0A2
:1059E00000AF03463960FB711346BB71BB79F9798F
:1059F0003A680348FFF7AAFF00BF0837BD4680BDDD
:105A00000030005080B582B000AF78607B681B68C2
:105A1000184600F04EF80346002B06D10E4B0F4AF5
:105A200040F247210E4802F05BFE786800F06DF806
:105A30000346002B08D0012B08D00A4B074A4FF42D
:105A40001371074802F04CFE074B00E0074B184665
:105A50000837BD4680BD00BF189A0100D09A0100EA
:105A60003C9A0100809A010000258450002884504F
:105A700080B584B000AF78600B46FB703B1D1846C4
:105A8000FFF7C0FFF8607A68FB68803253F8223075
:105A900023F0E043BB60FB781B0719467A68BB68BC
:105AA0001943FB68803243F8221000BF1037BD460F
:105AB00080BD80B485B000AF78607B685B09BB6057
:105AC0000023FB60BB68002B03D0BB68012B04D014
:105AD00007E04FF0FF33FB6003E04FF6FF73FB601E
:105AE00000BF7B6803F01F037B60FA687B6822FAC3
:105AF00003F303F00103002B14BF01230023DBB2E7
:105B000018461437BD4680BC704780B485B000AFDE
:105B100078607B681B68FB60FB6803F01F027B6892
:105B20001A60FB685B0918461437BD4680BC704795
:105B300080B500AF00216FF00800FFF799FE044B1D
:105B40005B6A034A43F4702353620023184680BD06
:105B500000ED00E080B483B000AF094BDB687B60F0
:105B60007B689BB27B607A68064B13437B60044A78
:105B70007B68D360002318460C37BD4680BC704755
:105B800000ED00E00800FA0580B400AF0B4B0C4AB2
:105B90001B68C2F84435094B094ADB69C2F84C3529
:105BA000074B0222C3F84025054B0222C3F84825C3
:105BB00000231846BD4680BC704700BF0080FF0030
:105BC0000060005080B582B000AF0023FB7109E097
:105BD0000A4AFB79A0334FF0FF3142F82310FB79DA
:105BE0000133FB71FB790F2BF2D90320FFF70AFE7B
:105BF000002318460837BD4680BD00BF00E100E025
:105C000080B500AF00F028FC0320FFF7DDFD032086
:105C1000FFF7BEFD0023184680BD000080B500AF31
:105C2000FFF750FE034B1B68024A43F00203136068
:105C300000BF80BDD0ED00E080B500AF00F016FCE5
:105C40000F4B5B680E4A92681146184600F03CFC08
:105C50000C490D4800F05EFC094BDA68084B1B69E3
:105C6000013B1946104600F07FFC054B5B69044A76
:105C700092691146184600F027FC0023184680BDA3
:105C8000849A0100FFFF072000A0002080B500AF2C
:105C900000214FF0A04000F059FD0021604800F0C5
:105CA00055FD00214FF0502000F050FD00215D48CF
:105CB00000F04CFD00215C4800F048FD00215B48ED
:105CC00000F044FD00215A4800F040FD00215948F1
:105CD00000F03CFD0021584800F038FD00215748F5
:105CE00000F034FD0021564800F030FD00215548F9
:105CF00000F02CFD0021544800F028FD00215348FD
:105D000000F024FD0021524800F020FD0021514800
