:1000000088130620E53E000095B40000B93E0000CC
:10001000B93E0000B93E0000B93E0000B93E000004
:10002000000000000000000000000000293C00006B
:10003000B93E000000000000D13B0000B93E0000C6
:10004000A93C0000A93C0000A93C0000A93C00001C
:10005000A93C0000A93C0000A93C0000A93C00000C
:10006000A93C0000A93C0000A93C0000A93C0000FC
:10007000A93C0000A93C0000A93C0000A93C0000EC
:10008000A93C0000A93C0000A93C0000A93C0000DC
:10009000A93C0000A93C0000A93C0000A93C0000CC
:1000A000A93C0000A93C0000A93C0000A93C0000BC
:1000B000A93C0000A93C0000A93C0000A93C0000AC
:1000C000A93C0000A93C0000A93C0000A93C00009C
:1000D000A93C0000A93C0000A93C0000A93C00008C
:1000E000A93C0000A93C0000A93C0000A93C00007C
:1000F000A93C0000A93C0000A93C0000A93C00006C
:10010000A93C0000A93C0000A93C0000A93C00005B
:10011000A93C0000A93C0000A93C0000A93C00004B
:10012000A93C0000A93C0000A93C0000A93C00003B
:10013000A93C0000A93C0000A93C0000A93C00002B
:10014000A93C0000A93C0000A93C0000A93C00001B
:04015000A93C0000C6
:1001540053B94AB9002908BF00281CBF4FF0FF312A
:100164004FF0FF3000F00CB8ADF1080C6DE904CE8F
:1001740000F008F8DDF804E0DDE9022304B070477C
:10018400704700BF2DE9F04F07468C460846099E8C
:1001940015463C461946002B40F0C5808242B2FA0F
:1001A40082F746D94FB1C7F1200E00FA07F3BD40DC
:1001B40024FA0EFEBC404EEA030C4FEA15481FFA1F
:1001C40085FE220CBCFBF8F908FB19C309FB0EFAE7
:1001D40042EA03439A4528D9EB1809F1FF3004D2C7
:1001E4009A4502D9A9F102002B44A3EB0A03A4B255
:1001F400B3FBF8F208FB123302FB0EFE44EA03449D
:10020400A64514D92C1902F1FF3303D2A64501D90E
:10021400931E2C44A4EB0E0443EA00401EB1FC40A0
:10022400002334607360BDE8F08F4846DDE7134671
:10023400F0E702B9FFDE87BB831A01214FEA154EAE
:10024400AAB2200CB3FBFEFC0EFB1C330CFB02F821
:1002540040EA0343984562D9EB180CF1FF3004D20D
:10026400984502D9ACF102002B44A3EB0803A4B2D5
:10027400B3FBFEFC0EFB1C330CFB02F244EA03440A
:10028400A2424ED92C190CF1FF3304D2A24202D956
:10029400ACF102032C44A41ABEE7C7F1200CBD4004
:1002A40000FA07F320FA0CF84FEA154E24FA0CFC76
:1002B400BC404CEA0302ABB2B8FBFEFC110C0EFBD3
:1002C4001C800CFB03F941EA0040814523D928181E
:1002D4000CF1FF3104D2814502D9ACF1020128446A
:1002E400A0EB090092B2B0FBFEFC0EFB1C000CFB61
:1002F40003F842EA004398450FD9EB180CF1FF329A
:1003040004D2984502D9ACF102022B44A3EB0803B2
:1003140042EA014192E76146E2E76246F6E7604657
:10032400A3E76346B7E7834205D90EB1C6E9007077
:100334000021084677E7B3FA83F181B9834201D3F8
:10034400BA420AD8BC1A60EB030301209C46002E73
:1003540067D0C6E9004C002165E70846F7E7C1F11C
:10036400200C8B4002FA01F522FA0CF420FA0CFB63
:1003740027FA0CF28F401C4300FA01F34FEA1449A8
:1003840013431FFA84FE1A0CBBFBF9F809FB18BBD4
:1003940008FB0EFA42EA0B4292453ED9A21808F134
:1003A400FF3004D2924502D9A8F102002244A2EB04
:1003B4000A029BB2B2FBF9F809FB182208FB0EFEF5
:1003C40043EA024296452AD9A21808F1FF3304D21F
:1003D400964502D9A8F10203224443EA0040A2EB65
:1003E4000E02A0FB05939A42CE46984602D306D14C
:1003F4004F4504D20138B9EB050E63EB040886B10E
:10040400B7EB0E0362EB080707FA0CFCCB40CF40B6
:100414004CEA0303C6E900379DE74046C7E7434675
:10042400DBE73146FFE60000F0B5414B414A85B0B9
:10043400C2F80036C2F80436C2F80836C2F80C36E0
:10044400C2F81036C2F81436C2F81836C2F81C3690
:1004540002F58052C2F80036C2F80436C2F80836F3
:10046400C2F80C36C2F81036C2F81436C2F8183680
:10047400C2F81C3600F082F82F4C20460DF04EFADC
:1004840000B32569A6682B680D2143F400532B6043
:1004940020463368294A98472046736801A998473B
:1004A40020B92A68019B53409A040BD54FF050237E
:1004B400D3F800340BB1DB0704D502F031FE204839
:1004C40003F05CF901A800F0C3FE1E4B1B688342D5
:1004D40000D0FEE74FF48031002005F0E9FC04462B
:1004E40000B1FEE705F06EFD69469DF8080009F0CD
:1004F4008DFC009B039D1D44019B1E8901F032FE6F
:10050400AF1900F0D1FE00F0B3FE03F02BFD84F32D
:100514000B8884F30A88AB5983F3088884F314881E
:10052400BFF36F8FBFF36F8F7B689847FEE700BF01
:100534003546526E0080015020E000001100010099
:1005440048E3000018A7002003289ABF024B18565E
:100554006FF01500704700BF9EE800001FB50C4601
:10056400014601AA04480BF09AFA18B9019B2360CA
:10057400029B636004B010BD68E000004FF4C051FA
:10058400014805F097BF00BF6AC501207FB51C462E
:100594008388204E3F2B2FD10378022B2CD1C57991
:1005A40055BB0D2001A902F0E5FB002822DB2946FA
:1005B4004FF4803201980AF059FC054601980AF07C
:1005C4002AFC003D18BF01250A2120460AF0AEFE90
:1005D400022302A92046029603930AF095FE2946B7
:1005E40020460AF08DFE0A2120460AF0BDFE0020B6
:1005F40004B070BD0125E7E70A2120460AF096FE03
:10060400022302A92046029603930AF07DFE0821E4
:10061400E6E700BFA2E800002DE9F04FDFF8ECA107
:10062400F9B038A8DDE9844817461D46DAF80060B9
:100634000CF0B9FE002138A806F042F83CB1B8F13C
:10064400000F04DD4246214638A80CF0B0FE4FF0FE
:1006540000097B89B7F808809844FB689844C8452A
:100664004BD80DA938A80CF0DFFE869B23B12022BD
:1006740018460DA90AF047FF00232A46009339467D
:100684004FF6FF7307A809F0DEFB0446002840F08C
:10069400B68080464FF0FF37DFF874910DF11603F2
:1006A40005AA06A907A809F01AFC041EC0F2A7802F
:1006B40040F09880BDF816B0BBF1100F34D1BDF8EE
:1006C4001480B8F1200F40F09880434628460699DC
:1006D40038AA0AF0A1FB0446002840F09080424664
:1006E40038A90DA809F046FC04464A4B1B6883420E
:1006F40040F085804FF00108D0E7DDF80CB2A8EB9C
:1007040009039B4528BF9B4649465B462846829A77
:100714000AF082FB0446002871D15A46829938A80F
:100724000CF045FED9449AE7BBF1010F36D1BDF870
:100734001430202B61D82846069938AA0AF06CFB9D
:10074400044600285BD19DF814B0BBF1200F03D9F7
:100754004FF0FF342746A1E7D9F800302E4F03931A
:10076400039B9C42F4DA1DA80CF01DFE00211DA879
:1007740005F0A6FF7A681DA8126857F8081B0CF04C
:1007840016FE15A91DA80CF04FFE5A4638A915A847
:100794000AF090FE0028DDD00134E1E7BBF1200F20
:1007A4007FF47CAF7B1C3FF479AFD9F80030BB42B7
:1007B40015DDBDF81430B3F5807F1ED128460699A7
:1007C40038AA0AF029FB0446C8B9FFB25946BDF855
:1007D4001430009738AA0DA800F020F806464FF010
:1007E400FF375BE7B8F1000F0DD00A4B1B68B3422B
:1007F40001D0DAF80060344601E04FF0FF342046BF
:1008040079B0BDE8F08F0124F9E700BF00A0002013
:1008140050E3000018A7002054E300002DE9F04F36
:100824009846ADF54B7D6B4B074627A89DF8506362
:100834008A4691461D680CF073FD674B8AAA53F8EB
:10084400364003EBC6035B680294196802A80C44A3
:10085400302321460BF0EEFA68BB029B8A9A1344BC
:100864009C4228D1214629AA02A80BF0F7FA10BB12
:100874000DF1B00B5A46214602A80BF0EFFA0646DA
:10088400C8B929A80BF00CFE029B28909C4212D1F7
:1008940033463246CDE9006B29A927A80CF0FCFCAD
:1008A40048B927A805F0AAFE28B929A80BF0F8FD35
:1008B400804528900AD027A80CF03CFD27A80CF00E
:1008C40039FD28460DF54B7DBDE8F08FB8F5807FE6
:1008D40002D04FF0FF35F1E7BAF1200FF9D14946C4
:1008E4008AAA27A805F0AEFE04460028F1D19DF897
:1008F4002733BC2BEDD10DF5A478DF2645460390B4
:100904000CA80CF050FD00210CA805F0D9FE202203
:100914000DF207310CA80CF04AFD042203A90CA81F
:100924000CF045FD04A90CA80CF07EFD1F2ED4BFCD
:10093400B1464FF020099DF80F30404601334A4636
:1009440004A9A6EB09068DF80F300AF0DCFD002E91
:10095400C844D5DC28462A46DF238AAE117816F827
:1009640001CB013B81EA0C0102F8011BF6D12B7883
:1009740003F07F032B7010F8016B002EA9D1013412
:10098400BE2CF8D195F8BE30012BA2D10CA80CF0E6
:100994000AFD31460CA805F093FE08220F490CA865
:1009A4000CF005FD394620220CA80CF000FD202295
:1009B4000DF207210CA80CF0FAFC04A90CA80CF009
:1009C40033FD20220DF2073104A809F0D3FA0546BD
:1009D40081E700BF00A0002054E30000A5E8000068
:1009E4002DE9F04F5B4B89B0044690F8B8000E46F1
:1009F4001D6809F011FA06A98046C0B202F0BAF9DE
:100A0400002858D194F8B8703146384609F004FAF1
:100A14004FF02C0907A9C0B209FB06F902F0AAF9A4
:100A240000284CD04FF0580B2C220BFB07F302FB91
:100A3400063323441B6913F0100A51D1314694F84C
:100A4400B80005F0DDFA0546012812D14FF4807391
:100A540007FB0B920193404B50460093CDE903AA48
:100A6400069B94F8B810CDF808A02244FFF7D4FDF3
:100A7400054658235F432C2303FB0677374BE15984
:100A84000698994204EB07020CD1D3681289D1432A
:100A94008B4207D813448268934203D2304B1B68BD
:100AA400AB4224D0E6B1002182680AF0DFF9354672
:100AB40006980AF0B0F9284609B0BDE8F08F079807
:100AC4000AF0EFF9054607980AF0A5F9582394F8B7
:100AD400B82002FB039323445A1E0333934201D1EB
:100AE4000125E5E712F8011FA942F7D09AE794F827
:100AF400B83063B3012B0CBF0B22FF229045D7D132
:100B040058214B432C21E21801FB06332344198955
:100B1400176A042300221944079207AA0AF07CF9F1
:100B24000028DDD194F8B8300799012B0BBF0D4A8A
:100B3400D7E901234FF082739B18914201D3994264
:100B4400B6D90698002182680AF090F9C8E7022213
:100B5400D4E700BF00A000206ADD01203DB8F39671
:100B640018A70020008800012DE9F84F8846914617
:100B74009A460026DFF88CB0234D244C0B9B9E42F2
:100B840001D300200FE00B9B40469F1BB7F5806FFD
:100B940028BF4FF480671B4A3B4606EB0A010AF064
:100BA4003BF910B10120BDE8F88F0A993B465A463B
:100BB400484671180AF045F90028F3D1144BC5F8DA
:100BC40000463E44C5F80446C5F80846C5F80C4638
:100BD400C5F81046C5F81446C5F81846C5F81C46AD
:100BE400C3F80046C3F80446C3F80846C3F80C46E5
:100BF400C3F81046C3F81446C3F81846C3F81C4695
:100C0400BCE700BFD8A70020008001503546526ED3
:100C1400009001502DE9F04F0027044689464FF01B
:100C2400FF35884B95B0D3F8008080F8B87094F8FD
:100C3400B860012E16D9002F00F0728100235826C7
:100C44002C2784F8B83094F8B800012800F26781A2
:100C5400231893F8B920002A00F0D880013084F8D2
:100C6400B800F0E7A31993F8B91000294FD158251B
:100C740005FB0643744A304602EB86325A62734AD5
:100C840002EB86321A6509F0C7F894F8B810C0B2BE
:100C940005FB0141203102F06DF80121304609F0D5
:100CA400BBF894F8B810C0B205FB01414C3102F016
:100CB40061F80546204609F0A0F900BB0022204651
:100CC400114609F0C5F9064690B9204609F021FA03
:100CD40070B10AA809F0EBF909F0F2F9029068BBC7
:100CE40094F8B830CBB9002120460AAA09F0B0F92B
:100CF400012294F8B830234483F8B02007E001229D
:100D040094F8B8309042234483F8B020D6D194F8B4
:100D1400B830013384F8B83089E794F8B020042A55
:100D240004BF012284F8B020012BDCD094F8B13048
:100D3400042BD8D1012384F8B130D4E79DF82F30A7
:100D4400012B4FD1582394F8B800414903FB0043C9
:100D5400DB6C5B681A6803938A4209BF1A89B2463E
:100D640002EB030ADAF8046005F0F0F9811E0229A7
:100D740083460CD801212046FFF732FE3549039BF8
:100D84000968884222D0012829D14FF0010B94F838
:100D9400B830234483F8B0B094F8B8306BB1E2189B
:100DA40092F8B020012AB2D0042A2DD094F8B020B1
:100DB400042A02D1012284F8B020234493F8B030ED
:100DC400029A023B022B98BF1746A0E7B6F1807F38
:100DD400DDD95046D96805F0BFF80028D5D04FF0CA
:100DE400050BD4E701212046FFF7FAFD194B1B68D8
:100DF400984218BF052294F8B83008BF9DF82F20F8
:100E0400234483F8B020C7E7029F80E793F8B050EB
:100E140005F0FB05013D18BF0125294608F0FCFF3C
:100E240005A9C0B201F0A6FFB0B10125059809F0EB
:100E3400F2FF002D6DD194F8B830013384F8B83046
:100E440001E700BF00A00020D8AB0020D82B012070
:100E54003DB8F39618A7002001237D4394F8B810F9
:100E6400009301FB06514023059A21440EA808F083
:100E7400EAFF05460028D9D100230DF1120206A984
:100E84000EA809F02CF800284ADB0598CED1BDF84D
:100E940012300C2B39D1069907AA09F0BDFF00289E
:100EA400C3D19DF81C20012A31D8A31893F8B0307F
:100EB400023B022B8CBF0021012106FB02F307FB3E
:100EC40001332344197D9DF820209142D4D80AD3BC
:100ED400597D9DF821209142CED804D3DA8ABDF8F9
:100EE40022309A42C8D294F8B830234493F8B02000
:100EF400012A08D0023A012A02D8012283F8B0203C
:100F04004FF0FF3592E70422F8E703258EE7072523
:100F14008CE7032D04BF40F20113A4F8B030002580
:100F24000023582784F8B83094F8B830012B3CD902
:100F34000023BB4E84F8B83094F8B830012B40F24B
:100F44004681102200210AA80AF0E8FA002384F856
:100F5400B83094F8B830012B40F25981582606FB7A
:100F64000343186A08F06DFF89F8040094F8B83058
:100F740006FB034203FB0646126AA94B5268D3F8E8
:100F84000080C9F80820C9F800600023582684F8B6
:100F9400B83094F8B830012B40F24481002D14BFCE
:100FA4002846404615B0BDE8F08F234493F8B93085
:100FB400002B40F006810AA809F079F894F8B800EB
:100FC400221892F8B030042B8DF82F3007D8012B5B
:100FD40007D800F0AF80FF2382F8B030AAE0052BD9
:100FE400F7E707FB00431946DA6C2C310AF050FE90
:100FF4000128054640F09E80014694F8B80008F0A8
:101004000BFF07A9C0B201F0B5FE002800F09A80DA
:101014000025079809F0FFFE94F8B860002E00F050
:10102400C980012E0CBF0120FF2007A901F0A2FEF8
:10103400002E00F0C180012E0CBF0B20FF200026E3
:10104400B2460EA901F096FE94F8B83007FB0343AC
:10105400D3F828B0D34517D094F8B830314607FBFD
:1010640003435B6A079803EBCA035A68029209F0C8
:10107400FDFE029A1644AE42C0F0A080D4F8B460DB
:10108400B5FBF6F506FB0566D4F8B40008F074FF6A
:1010940094F8B82007FB0242536A926A1968013A2D
:1010A40003EBC20300225D689C462A449042A3F1EC
:1010B4000803F8D8DCF800300798591A09F0D6FE6E
:1010C40000232046079A0E9901960093FFF74CFDE2
:1010D400054678BB079804F0C5FF054650BB94F855
:1010E400B800324607FB0043196A0AF0DFFD0546E3
:1010F40000BB94F8B830014607FB03431B6D0E9800
:101104005A6809F0B3FE94F8B83007FB0343D3E9F7
:101114001423013B52F8331002EBC30013684268F6
:10112400C91A0E9809F0A2FE079809F074FE0E98E9
:1011340009F071FE94F8B830234493F8B030FF2BD3
:101144003FD1FEE794F8B830079807FB03439D8E20
:101154009E6B0EAA2E440423314609F05DFE00283E
:101164007FF456AF94F8B830BDF8382007FB03433A
:10117400DD8E46F608139A4219D1BDF83A309D42E5
:101184007FF446AF042307980EAAA91909F044FE78
:1011940000287FF43DAF46F60713BDF838209A4285
:1011A4007FF436AFBDF83A301D44354431E7002DA5
:1011B400F1D02DE7042038E7022040E70AF1010AC4
:1011C40048E794F8B830013384F8B830ACE62344E7
:1011D40093F8B910A9B993F8B030012B07D0204681
:1011E4000AAA08F035FF054600287FF4CEAE002198
:1011F4002046FFF7F5FB8046336883427FF4C5AE93
:10120400002594F8B830013384F8B83094E6E21835
:1012140092F8B920002A3FF4A1AE013397E600BF4B
:1012240018A70020E21892F8B9205AB906FB034324
:10123400D86C09F0F0FD94F8B83006FB0343186A43
:1012440009F0E9FD94F8B830013384F8B830A0E629
:1012540038B5064D0446BC22002128460AF05EF942
:1012640021462846FFF7D6FC38BD00BF1CA7002046
:10127400BFF36F8F72B600234FF0FF30094A03F1BA
:1012840020010133102B42F82100F8D100234FF044
:10129400FF3003F160010133102B42F82100F8D133
:1012A400704700BF00E100E038B501224FF0FF3481
:1012B40000251A4B29465A60C3F84843C3F808432B
:1012C40003F580535A60C3F84843C3F80843A3F5B1
:1012D4005043C3F800558022C3F8084310480AF06D
:1012E4001DF9802229460F480AF018F90E4B802276
:1012F400C3F800552946C3F808430C480AF00EF910
:10130400802229460A480AF009F90A4BC3F808451D
:101314004FF05023C3F8084338BD00BF00400150CC
:1013240080800050808100500090005080900050D8
:1013340080910050007001502DE9F0430546079854
:1013440010B91060BDE8F0830324B0FBF4F404EB9F
:101354004407B84218BF0134B4F1804F05D34FF0AD
:10136400FF3313606FF00B00ECE7A40001348C42F0
:1013740000D80DB91460F5E72E460024DFF8B4E078
:10138400BC4231469C4606F1040603F1030329D30B
:10139400844222D20134844228BF00239CF8006096
:1013A400244F38BF9CF801304FEAA60C17F80CC044
:1013B400844281F800C007EB131C2FBF3D239B0020
:1013C40003F03C03FB5C36018B703D2306F03006D2
:1013D4001CF80660CB704E70043100204D1B156064
:1013E4000870AFE713F803CC13F8021C4FEAAC09FA
:1013F4001EF809904FEA0C1C13F8018C0CF0300C09
:1014040006F8049C0EEB111919F80CC0890006F8B3
:1014140003CC01F03C010EEB981C1CF8011008F001
:101424003F0806F8021C1EF80810033406F8011CD5
:10143400A6E700BF3BEA00008C4600212DE9F043FB
:1014440007460D460846079EDFF81881B5420AD3C1
:101454002E4604E00135AE420EF1010E05D190BBDB
:101464001060BDE8F0834FF0000E5C5D202CF1D0DD
:10147400AE42F4D0A6EB0509B9F1010F13D00D2C3F
:1014840011D103EB050999F80190B9F10A0F18D0AD
:10149400BEF1000F04D13D2C07D10131022907D937
:1014A4006FF01500DDE70A2CF1E714F0800FF7D197
:1014B40018F804407F2CF3D03F2C01D80029EFD139
:1014C40001300135C2E74FF0060E00F00705C408ED
:1014D4000EFB05F50EFB04F40735641A04EBD50482
:1014E4008FB164450FD800249C461E4403203B461C
:1014F4002146DFF870E0DFF87080664507D1DB1B1A
:1015040000201360ADE76FF00B001460A9E71CF82E
:10151400019BA9F10A05EDB2162D03D828FA05F5A9
:10152400ED07EAD41EF809500131402D08BF0138F7
:1015340005F03F05042945EA8414DED178B1210C75
:101544000128197002D101330021D6E702284FEA9D
:101554001421597016BF9C7002330333F4E701461B
:10156400CBE700BFBBE90000090040002DE9F84FBC
:10157400B0F81890044619F0080893460DD00129D4
:101584000CBF49F0100949F02009A0F818908BF31A
:101594001188BFF36F8FBDE8F88F09F0070902299E
:1015A40007D1204608F045FE0028F0D00128238BFF
:1015B4004ED16769218B002F15DA256821F00701C8
:1015C400C4E9008841F0010121830026218B01F048
:1015D400070ACA4502D0A368002B5AD10DB9002EC0
:1015E40071D0002356E001F007035A1F012A1ED8C8
:1015F40021F00701062B256889B2C4E900880AD1C5
:101604003DB12A46638B126801339BB2002AFAD19A
:10161400638341F002012046218308F00AFE064656
:101624000028D3D0238B43F020032383CDE7042B5E
:101634000CD121F0070189B22046218308F0F9FD7D
:1016440005460028C1D041F0200121830025BCE7D4
:10165400032809D1226923F00703166843F006031F
:10166400002523832F46B1E7042806D1226923F0FD
:101674000703566843F00403F2E7052806D12269FC
:1016840023F00703966843F00503E9E700252E4697
:10169400E8E7012341F0080121838BF31188BFF3AC
:1016A4006F8FFBB985BB16B120461F49B0474FF079
:1016B4002003EFF3118B83F31288BFF36F8F238B17
:1016C40023F008032383238BDA0625D5012123F095
:1016D40010032383B4F8189009F0070900297FF454
:1016E4005EAF54E7A1680029DCD0D1F800903B46F6
:1016F40052462046D1F804B0D847B9F1000FD1D0F2
:101704004946D9F80090F2E729463B46524620461E
:101714002D6808F0AAFDC5E713F020011EBF23F0D1
:10172400200302212383D5E79BA200002DE9F04F7B
:101734008A464FF000098FB01D46531E0190029354
:10174400029B58785C1C252821D14FF0000C4FF0E7
:10175400FF37184661463C460A260230CDF80CC0D5
:1017640002780290392A00F1010059D81F2A18D8AA
:10177400002A00F0F7815146019B25209847029BDF
:1017840051461878019B984709F10209D8E70028C7
:1017940000F0E8815146019B984709F10109029440
:1017A400CEE7A2F12003192BE5D80FF2080E5EF85C
:1017B40023F000BF211800007B1700007B170000F6
:1017C400211800007B170000A51800007B170000FB
:1017D4007B1700007B1700007B170000E718000050
:1017E400211800007B170000FB180000B31800004C
:1017F4007B170000BF180000DB180000DB18000096
:10180400DB180000DB180000DB180000DB18000008
:10181400DB180000DB180000DB18000094469FE78B
:10182400582A00F01B81A2F163035FFA83FEBEF124
:10183400170FA0D8172B9ED80FF2040E5EF823F0D2
:10184400C31A0000211900007B1700007B17000059
:101854007B17000001190000211900007B1700000C
:101864007B170000011900007B1700007B170000A4
:101874007B1700000B1A00007B1700007B17000089
:10188400A31A00007B170000211900007B17000039
:101894007B1700000B1A00007B17000001190000E1
:1018A40051462520019B984709F1010948E7039B0C
:1018B400002703F0FE03039352E7002C0BDA002FFA
:1018C4000BDA039B002B00F0498124EAE47406FB45
:1018D4000424303C44E7002FF7DB06FB0727303FA6
:1018E4003EE7002F55F8043B01DB1F4638E71C1E7A
:1018F400BFF636AF64420223039331E7682A03D16B
:10190400682906D148212BE76C2A02D16C2900F002
:10191400278100297FF42FAF114621E77A2907D1C7
:10192400752A05F104062D6862D14FF000080DE018
:101934006C29F5D04C29F3D1EB1D23F007031E4687
:10194400752AF6E8020107D1D3E90058BCF1200F4B
:1019540051D1864B013C09E005468846B8F1000F99
:10196400F4DA6D42824B68EB4808013C4FF0000BFF
:1019740000930DAB0593284641460A220023CDF877
:1019840010B0FEF7E5FB059B303203F80129CDE9E1
:1019940005352846002341460A22CDF81C80FEF76F
:1019A400D7FB069B05460A2B079B884673F1000369
:1019B4000BF1FF3BDFD2049B049AC3F1010B0EAB86
:1019C4009D18002FA5F1040504DA039B13F0010F01
:1019D40018BF2746039BA7EB0B08B8F1000FD4BF31
:1019E400A4EB0B04E41B9B0700F18180274677E0FE
:1019F4004FEAE578B2E7BCF12B0F0ABF5D4B5E4BB3
:101A040004F1FF34B2E7702A28D12E4656F8041B9D
:101A1400002300295CD059480090023C002502F0C4
:101A24006002A2F139080DF1340E01F00F02092A07
:101A340088BF424430320EF8012910294FEA1112AE
:101A440042EA03724FEA131073F1000305F1FF3CFD
:101A540021D20EABC5F1010B1D44B2E76C2904D1B0
:101A64002E46002356F8041B08E04C29F8D107350C
:101A740025F007052E466B6856F8081BBCF1230FAA
:101A840006D13F4D12F0200F3C4808BF2846C3E75B
:101A940039480090C2E7654611460346C5E72E461D
:101AA40056F8045B284609F0FEFC002F834602DB4F
:101AB400B842A8BFBB46304B002700938AE72E46A6
:101AC40056F8043B4FF0010B8DF8203008ADF2E7D7
:101AD4004FF0050B2B4DEEE751462020019B984714
:101AE400013FF9D524EAE473013C9944E41A009BCC
:101AF400A9EB030904E000935146019B9847009B1E
:101B040009EB030713F8010B0028F4D1C146B9F11E
:101B1400010913D5D94628EAE878B9F1010912D5A3
:101B2400BBF1000FA8BFD8442546013D11D5002CB8
:101B3400A8BFA044354608EB070901E65146019BBE
:101B440030209847E3E7514615F8010B019B98476D
:101B5400E3E75146019B20209847E6E70123CBE6C3
:101B64004C21FDE548460FB0BDE8F08F7DEA00004A
:101B74007BEA00007FEA000005EB000084EA000035
:101B840081EA000087EA0000054B03EB8000D0F8EF
:101B9400003223F0E04343F04053C0F80032704772
:101BA4000025845010B54FF02003EFF3118483F324
:101BB4001288BFF36F8F01220C4B0D49C3F8002527
:101BC40002230020C1F8D036FFF7DEFF1046FFF7EE
:101BD400DBFFC1F80427C1F80429C1F8002B84F302
:101BE4001188BFF36F8F002010BD00BF001000509C
:101BF4000040005048B1054B1A68054BB2FBF3F2A4
:101C0400044B504343F00103184770475CA1002084
:101C140040420F0040E3000004F070BE0C4BF0B4EF
:101C24005F6A0C4E0C4BB34203D36FF08500F0BCDB
:101C340070475D68BD4209D31C693CB195F802C088
:101C44000579AC4502D12346F0BC18472433EAE7B2
:101C5400D8AB012038A4002014A400202DE9F047BB
:101C640005460E461746124CDFF84880DFF84890C8
:101C7400444503D36FF08500BDE8F0876268D9F866
:101C840024309A4212D3A36983B190782979884287
:101C940005D13A4631462846BDE8F04718475279FF
:101CA400012A03D13A463146284698472434DFE7CF
:101CB40014A4002038A40020D8AB01202DE9F04161
:101CC40005460E4617460A4CDFF82880444502D3E1
:101CD4006FF0850009E063690BB92434F6E73A46EE
:101CE4003146284698470028F7D1BDE8F08100BF67
:101CF40014A4002038A4002007B583788DF80030A0
:101D04000379427943EA0223ADF80230C378684686
:101D140003F003038DF8043002F098FD10F1780FFE
:101D240004D018B1002003B05DF804FB9DF8000056
:101D340002F012FE10F1780F01D00028F2D1012038
:101D4400014B83F8B900EEE7D8AB0120082200214B
:101D5400014809F0E3BB00BF93AC012070B50B4B05
:101D64000B4CA34201D3002070BD0022196A1E7FD0
:101D74000439D5B2AE4201D82433F2E7013211F866
:101D840032508542F5D10120EEE700BF14A40020B3
:101D940038A40020094808B50378C3F341130A3373
:101DA40050F823303BB100F1080200F110019847CC
:101DB400C043C00F08BD1846FCE700BFD8AB0120E4
:101DC40004282DE9F04704460E46DFF884800ED13E
:101DD400FFF7BCFFDFF87C9099F8B9305BB100F0F5
:101DE40097FD042C01D0012C05D11B4D16E00528CC
:101DF400F0D00128EED0184D45451FD3154B1B6A72
:101E040023B331462046BDE8F04718470027D5F8EC
:101E140020A02A7FFBB29A4203D824354545F5D346
:101E240008E00AEBC303187902F0C0FD002807F1AB
:101E34000107EEDA002389F8B930DCE7EB681BB15F
:101E440032462146284698472435D5E7BDE8F08731
:101E540038A40020D8AB012014A4002073B5C4B268
:101E640063060D468DF8074007D02046FFF776FF3E
:101E740088B10F4B93F8BA0068B120460C4E65B197
:101E840002F006FDF3690BB9012004E008200DF10E
:101E940007019847284602B070BD02F021FDF3699E
:101EA400002BF1D009200DF107019847ECE700BFA2
:101EB400D8AB01202DE9F047964E0546B3690F468D
:101EC40090465BB9287800F01F03012B7AD0022BCF
:101ED40000F0E3803BB16FF015008DE098470028D7
:101EE400F0D1002088E095F900206878002A2BDAE8
:101EF4000628D8F8002009D008281FD00028EAD1E5
:101F040001235070137002233B6075E069880A0A4C
:101F1400101F0128DFD9072ADDD81846CCB2716A10
:101F24000B78002BD7D04D78954203D1844200F032
:101F3400E98001301944F3E70B78E9E096F8BA1028
:101F4400117001223A60CCE7052818D00928C2D1C3
:101F54006C8844B14FF0FF081846C146776A3C7854
:101F64009CB90028B7D0FFF7F1FE6B8886F8BA3029
:101F7400F369002BB5D0032067499847B1E7A878E7
:101F840002F052FC0028ACD0A5E77B78042B0CD0DF
:101F9400052B0DD0022B05D197F805806A884245A0
:101FA40008BF01203B781F44D9E797F80390F9E76D
:101FB4006B884345F6D1B9F1000FF3D13846FFF7EA
:101FC4009BFEEFE796F8BA30002B84D0746AB5F81C
:101FD40004C0234628791A78002A3FF47CAF597844
:101FE400022904D193F804E0864500F29780134453
:101FF400F1E7107050703960BDE8F0870C449BE045
:102004000B287FF468AF00274FF0FF0AB946D0468B
:1020140006E06378042B0FD0052B22D023781C44D0
:102024002378002BF5D1F36913B14946072098476B
:10203400002F7FF456AF4EE794F802A0AA885346C7
:10204400924594F80380E9D169881FFA88F288459B
:10205400E4D1072B1ED8A146334483F8BB200127C3
:10206400DCE7AB885345D9D1AB7843450DD0A7788D
:10207400384600F02FFC384602F098FC10F1780F37
:10208400EDD0B0FA80F77F09C8E72046FFF734FEA9
:102094000746C3E7A1460027C0E795F900206B78FF
:1020A400002A19DA002B7FF416AF2C7963060AD0C4
:1020B4002046FFF753FE00283FF40DAF96F8BA30E0
:1020C400002B3FF408AFD8F800502046294602F010
:1020D40027FC0020687016E7012B08D0032B7FF43F
:1020E400FAAE6B88002B7FF4F6AE012103E0698819
:1020F40000297FF4F0AEA888FFF7B0FE00287FF433
:10210400F0AEE8E6022AC8F800107FF415AF4B8859
:102114003B60E6E6D8AB012092AC012095F9003093
:102124006878002BBFF66CAFD8F8002000283FF485
:1021340060AF0A287FF4CFAE217800293FF4CBAEFC
:102144006378042B7FF45AAFA3789C457FF456AF91
:10215400072B8EBF00239B1993F8BB301370012308
:10216400D6E700BF10B5064C94F8B80030B102F0C1
:102174000FFB0028A4BF002084F8B80010BD00BFE6
:10218400D8AB012013B5134C237DCBB9E26801AB66
:102194008020A168019208F0D2FC019AA36813443C
:1021A400A360E3689B1AE36043B93AB12369E28808
:1021B4009A4203DD9B0601D10123237502B010BDB1
:1021C400002380201A461946237502B0BDE810404A
:1021D40002F012BCD8AB0120002330B585B0024612
:1021E4000D46019300285FD100293CD108220B46FB
:1021F4000DEB020109F0DCF9002804DA802002F07A
:1022040047FB05B030BD2D4C9DF809309DF80820E2
:102214006370BDF80A3022706380BDF80C3004F19D
:102224003801A380BDF80E301206C4E90355E380DB
:10223400A16025750AD4802B04D9802002F028FBE4
:102244000020DCE713B1C4E90333DAE7FFF7A2FDAA
:102254000028D3D0E28823699A42D4BFE260E360C5
:10226400FFF790FFCDE7154C01ABD4E90215002D23
:1022740004DC09F09DF90028C3DABFE72A4609F017
:1022840097F90028D9DB0199A268E3680A445B1A2C
:10229400A260E360002BB4D104F13803A360FFF71C
:1022A40079FD0028DCD1A9E78028AAD1034BDA689C
:1022B400002AD5D11B7D002BD2D1A2E7D8AB0120B7
:1022C400054B064A58629A62054A0020DA62054ABA
:1022D4001A63054A9A617047D8AB0120B91E000001
:1022E400211C0000C11C0000611C0000084B10B53B
:1022F40093F8B84034B900F0A3F930B1FFF7E0FF28
:10230400204610BD6FF07700FBE74FF0FF30F8E791
:10231400D8AB01202DE9F3410446354D4FF0FF328F
:102324004FF0FF33334806F0C5FC95F8B860002E33
:102334005BD131482C62E86102F074FC02F0E8F9E8
:10234400041E36DB00F00CFB041E32DB402368461F
:10235400ADF802308DF804608DF8006002F076FA72
:10236400041E26DB802768468DF8007002F06EFAA2
:10237400041E1EDB3046214902F040FC041E18DB1B
:1023840038461E4902F03AFC041E12DB1C4CDFF8EE
:102394007480444514D3002002F0DEFA041E08DBE6
:1023A400802002F0D9FA041E03DB0123002485F8FF
:1023B400B830104806F0F6FC204602B0BDE8F081C3
:1023C4000026276A227FF3B29A4201D82434E0E738
:1023D40007EBC30257F83310107902F00FFC0136F3
:1023E4000028EFD04FF0FF34E3E76FF07704E0E725
:1023F400D8AB01200CA30020C51D0000DD21000086
:1024040014A4002038A4002030B51F4B8BB005AABB
:1024140003F11005144618685968083303C4AB4225
:102424002246F7D11B7810222370002101A809F05D
:1024340075F812220021154809F070F8102101A83E
:1024440009F0B1F900281BDD0828B8BF08200021D5
:10245400083801AB0D4A184410F8013B0AAC04EBF0
:10246400131414F8144C03F00F0314700AAC23442F
:1024740013F8143C01310829537002F10202EBD124
:1024840002480BB030BD00BF8DEA00006ADE0120B7
:102494002DE9F04F044685B000254FF0011BA946F5
:1024A4002E46AA46207820B9614B02349C421FD0A4
:1024B400F2E76378052B05D8DFE803F078040378A6
:1024C4000720A24623781C44ECE7E378002BF9D1DB
:1024D400A37883B109F101095FFA89F9F2E7726817
:1024E400944200F09D8024369E42F8D34FF0FF3092
:1024F40005B0BDE8F08F4F4E4F4BF5E7002EF5D0F9
:1025040000230121327F9342F0D2326AA77802EB92
:10251400C3021079874201D00133F3E70127E07841
:1025240094F805C000F003008DF80C0020795FFAE0
:1025340087F840EA0C20ADF80A0094F9020000285C
:1025440028DA07F1100001FA00F010EA0B0F29D184
:1025540068F07F008DF8080002A8CDE9003209F088
:102564000FF8DDE900320121E0B99DF8083013F0DD
:10257400800FA37013710B461DBF08F110085FFA9A
:1025840088F801FA08F8BB4014BF4BEA080B4BEA81
:10259400030B97E701FA07F010EA0B0F02D18DF84D
:1025A4000880D9E70137102FB9D1B5E7032D1DD124
:1025B400FFF72AFF074668B108F075FF804648B167
:1025C4001E4808F070FF804504D142463946A01CDD
:1025D40008F099FF6FF002012378091BE21804EB5D
:1025E4005303D14213D50135EDB26BE7002DF1D180
:1025F400BAF1000F3FF47AAFA4EB0A038AF8023071
:10260400C3F307238AF803308AF80490EBE74FF00A
:10261400000002F8010C13F8010902F8020DE0E7CA
:10262400B368002B3FF456AF49462046984751E71C
:1026340011A4002014A4002038A400208DEA000076
:1026440008B50448FFF724FF0028024818BF0020FB
:1026540008BD00BF30A30020094B00211A4610B565
:102664001C78844204D15C6814B102EB811010BD63
:102674000131042903F14003F2D10020F7E700BF40
:102684009CAC01202DE9F34150F8283C044610335A
:1026940010F82C6C10D1036950F8202C99073CD504
:1026A40002BB13F0040304D11A461946304608F05D
:1026B40046FA002344F8283C54F8283C10330ED042
:1026C40054F8185C5DB154F81C7C54F8148C0BF06D
:1026D4009EF900284CD021462D480BF070FA02B028
:1026E400BDE8F08150F8241C01AB304608F027FA0D
:1026F40010B16FF01503DDE7019A54F8243C13443C
:1027040044F8243C54F8203C9B1A44F8203C54F8E8
:102714001C3C134444F81C3CCEE750F8241C01AB89
:10272400304602F0E1F90028E3D1019D54F8243C3D
:102734002B4444F8243C54F8203C5B1B44F8203CD4
:1027440054F81C3C2B4444F81C3C002DB1D03046BA
:1027540002F06EFAB5FBF0F303FB1055002DA8D17F
:1027640054F8203C002BA4D0304602F005FAA3E72D
:1027740044F8180CA4F1100006F084FB54F8283C2B
:102784008C33ACD0424639463046A847A7E700BF51
:1027940038A400204B1E012B73B506460D460FD8F6
:1027A400FFF75AFF044668B9012D09D101AB012294
:1027B40030460DF1030102F097F9019B002BF5D18E
:1027C40002B070BD0BF023F904F12C0108B1012D06
:1027D40005D1084602B0BDE87040FFF753BF034877
:1027E40002B0BDE870400BF0EAB900BF38A4002085
:1027F4002DE9F74F064615469846019108F0E5F98C
:10280400044600285CD14FF02003EFF3118A83F3D0
:102814001288BFF36F8FDFF8B0B0A7010022002346
:10282400584606F04FFB68B9DFF8A09009EB07049F
:10283400636813F1100F14D10193584606F022FB7C
:10284400019B06E00134042C0BF1400BE5D16FF041
:102854000B038AF31188BFF36F8F184603B0BDE8EA
:10286400F08F019B2061C4E902350C9B3046636103
:102874000D9BC4F83C80A3616FF00F03636009F8FB
:10288400076002F0D5F958B1304602F0D1F9B5FB32
:10289400F0F202FB10551DB1E36B43F00403E36354
:1028A40018F0020F07D02C37094809EB07010BF089
:1028B40086F90023CDE7304602F05EF90346C8E707
:1028C4006FF00F03C9E700BFB8AC01209CAC012036
:1028D40038A4002010B54FF02003EFF3118483F3E4
:1028E4001288BFF36F8FFFF7B7FE50B14368103300
:1028F40007D16FF08B0300F12C01436003480BF008
:102904005EF984F31188BFF36F8F10BD38A40020E3
:102914002DE9F04104256FF08B070F4CDFF83C8064
:102924004FF02003EFF3118683F31288BFF36F8F08
:102934006368103305D1404604F12C0167600BF045
:102944003EF986F31188BFF36F8F013D04F1400413
:10295400E6D1BDE8F08100BF9CAC012038A4002082
:1029640070B50025094C0A4E314620460BF00AF991
:102974000122A4F11000114601350BF0E5F8042DF5
:1029840004F14004F0D1002070BD00BFC8AC0120A8
:102994008926000070B504460E4601791248154692
:1029A40008F0F0F8E8B194F900206378002A11DB0C
:1029B400202B04D0222B09D06FF0850005E00722DC
:1029C4002968103808F09FFD002070BD638800F866
:1029D400093CF9E7212BEFD1072310382860336035
:1029E400F2E76FF01200F0E79CAD0120014608B554
:1029F400034808F0D4F810B1012300F8073C08BDDF
:102A04009CAD01200123016981F82B300B6833B19F
:102A140091F829301BB1024808310BF0D0B8704747
:102A240038A400200123016981F82A300B6833B1EE
:102A340091F828301BB1024808310BF0C0B8704738
:102A440038A40020012310B582F8283013681446F6
:102A54003BB192F82A3023B1084802F108010BF087
:102A6400AEF8236F9A681B699A4206D004F11801E4
:102A74000248BDE810400BF0A2B810BD38A40020F5
:102A8400002103460B4A0185106883F87C105867BF
:102A940090889279A3F8780083F87A2083F87B10E1
:102AA4004022A3F87E1083F8801003F12C0008F074
:102AB40035BD00BF30E3000038B5056995F87E00E8
:102AC40070B195F87F3063B985F82830286F07F026
:102AD400B5FF044605F1180103480BF070F82046D1
:102AE40038BD0020FCE700BF38A4002013B50469FA
:102AF4008DF8071094F87E308BB194F87F3073B959
:102B04000DF107010122206F84F8283007F096FFA9
:102B1400014630B10A4804F118010BF050F802B034
:102B240010BD0122206F07F0DBFF0028F7D001223F
:102B3400206F0DF1070107F081FF0028EAD1EEE7CD
:102B440038A40020C36EF0B55B6805461B6A85B0E7
:102B54001F7D384608F039F80646D8B94FF480622C
:102B6400A86D03A907F089FF044698B18306A5F16F
:102B740018030193084B08BF00F1FF340399009335
:102B84002246022338462E74FFF732FE2146A86DF2
:102B940007F092FF05B0F0BD492A0000002310B5EC
:102BA4000469C4F888300C4BC4F88400596804F1F3
:102BB400880269B9C3E9002204F1080007490AF050
:102BC400E1FF04F1180006490AF0DCFF002010BD03
:102BD4000A605A60F0E700BF9CAD0120F9AB000029
:102BE400492B0000A12330B585B08DF80430202393
:102BF4008DF80530002342680569022085F87D3090
:102C0400ADF80A00106AADF80C10ADF808300A22CD
:102C1400007901A9ADF8063007F091FF054C95F84D
:102C24007D3023B901200BF0EAF8013CF7D105B05F
:102C340030BD00BFA186010073B5144602F12C0615
:102C44000A1E05461DDD3146E06E07F0F7FE01233E
:102C540084F8293023683BB194F82B3023B10E4813
:102C640004F108010AF0ABFFE16E4B684A699A1A55
:102C7400CB699B1A3F2B04D8012384F8803002B01F
:102C840070BD064B4022009331460123284601942F
:102C9400FFF7AEFDF3E700BF38A400203D2C000091
:102CA40038B50D460146244807F061FF044680B359
:102CB400024652F88439691E5B68052929D8DFE881
:102CC40001F020280320252914F8061C31B91B6AB9
:102CD400187BFFF7B1FF012304F8063C14F85C3CB1
:102CE400BBB9012304F85C3C54F8843C8BB114F860
:102CF4005A3C73B1A4F17C011048BDE838400AF095
:102D04005EBF1046BDE83840FFF7BABE012304F8A1
:102D1400053C38BD14F8051C0029FAD0002114F82C
:102D2400060C04F8051C0028F3D01B6A187BBDE8C8
:102D34003840FFF781BF00BF9CAD012038A40020BC
:102D440037B50024084D4FF0FF334FF48062284616
:102D54000649009406F0BEF9054928460AF05DFECE
:102D6400204603B030BD00BF38A4002088E305200E
:102D7400A8EA0000114B70B51B680C468BB1104AD1
:102D8400116800228A4202DB6FF0010070BD1D460B
:102D940013F8106B864207D00132F3E70020256058
:102DA400F4E76FF00C00F1E7E86818B10AF0B6FD3B
:102DB4000028F3D16FF01200E8E700BFE8A000207C
:102DC400A4E4000070B588B005460C46C0B269465C
:102DD4001646FFF7CFFF00281BDB0098C8B14368F5
:102DE4002268029383680195CDE903360023C56800
:102DF400CDE90623059308F00EF86DB1284608497D
:102E040001AA08F050FE079808B9059B236008B092
:102E140070BD6FF01500FAE76FF01200F7E700BF1E
:102E2400B5AE0000014806F0BDBE00BFA8E4000036
:102E340010B5044618B90D4B0D485B689847616896
:102E440008290DD031F004030AD011F0020108D092
:102E5400214608480AF0B2FD002323600023636082
:102E640010BD1422206808F059FBF7E7E4A1002004
:102E7400B1EA0000A4AD012008B540B34368042BB7
:102E84000BD0082B16D003B300684FF0FF324FF07D
:102E9400FF3305F00FFF58B115E001220368D3E8B2
:102EA400EF1F002903D1C3E8E02F0028F7D10AD18E
:102EB400002008BD0368074A1B7803F5807352F8A5
:102EC4002330002BF4D00448F3E70448F1E76FF40F
:102ED400E040EEE700000350E98FFFFFEA8FFFFFB9
:102EE40008B508B34368042B07D0082B13D0F3B1FB
:102EF400006805F057FF00200CE000220368D3E8C7
:102F0400EF1F012903D1C3E8E02F0028F7D10948B6
:102F140008BF104608BD036800201B78064A03F565
:102F2400807342F82300F5E76FF4E040F2E70348CA
:102F3400F0E700BFE98FFFFF00000350EA8FFFFFB7
:102F440010B5044618B9164B16485B689847636871
:102F5400042B23D0082B21D0CBB92368BBB94FF065
:102F6400FF324FF0FF3321460F4805F0BDFD08B98D
:102F740023681BB90A4B0D485B689847142200214B
:102F8400206808F0CBFA636843F0020363602068AA
:102F94000AF05CFD636843F00103636010BD00BF89
:102FA400E4A10020B1EA0000A4AD0120D7EA0000AA
:102FB40008B506494023142205480AF0E4FCBDE89C
:102FC40008400449044806F04FBE00BFC0AD0120CC
:102FD400A4AD0120C0E40000B0E40000F7B5234E26
:102FE400306883685B6C03B19847306883685B6BB7
:102FF400002B32D11E4C1F4D306883689B69002B17
:103004002ED001220DF107019847012828D1236809
:1030140043B92B6823B369681A688B422A6000D1CC
:103024006A602360144A9DF807001188B1F5007F97
:1030340004D223684F1C0B44178018720A28DBD172
:10304400002023681188186059600C494D684DB9F7
:10305400C1E9003310802060CDE798470028C9D12A
:1030640003B0F0BD2B604B60F4E700BFE8B601206D
:10307400C8B20120C0B2012068C50120E0B6012019
:10308400044B10B5044618688368E1B25B6898473E
:10309400204610BDE8B60120F8B506460F46154691
:1030A4004FF02003EFF3118C83F31288BFF36F8F7B
:1030B40018490B6843B1184A5068984204D0002458
:1030C4001C6090B9C2E90033144B186828B15C68DD
:1030D4000268A0421A6008BF5A608CF31188BFF3DB
:1030E4006F8F086020B92860F8BD03605360EBE778
:1030F400446800F10801A742D8BF07F1FF34224613
:10310400304608F000FA0023335501232B60E01801
:10311400EAE700BFCCB20120C0B20120E0B6012032
:1031240037B500241F4B204AC3E900441F4B204DF0
:10313400204803F502711360C3F808421960516016
:1031440028600AF0EBFB20B94FF0FF34204603B0AF
:1031540030BD2046FFF7DEF804460028F4D1286885
:10316400836823B19B6C13B122461349984728689E
:1031740083685B6B0BB1984748B1286883689B6987
:1031840003B9FEE701220DF107019847F4E7002295
:103194000A4B28681A8083689B6A002BD6D098470C
:1031A400D4E700BFE0B60120C0B20120D0B20120B4
:1031B400E8B6012038E00000E12F000068C50120D6
:1031C40040F6061300202DE9F043DFF8EC90ADF54E
:1031D400257DD9F80010ADF80C30384BDFF8E080CD
:1031E4001E680B78A6EB080601330B7073BA4B808C
:1031F4008B8808225BBA8B80487006F0CEFF32467B
:103204004146ADF8100006F0C8FF02272D4D40BA24
:103214002B68B4B2ADF81000022103A85B6898478C
:1032240004F10A035BBA0DF11201022206A8ADF8FB
:10323400123008F068F9D9F8001008220DF11A00CC
:10324400ADF8127008F05FF9BDF8120006AB083053
:1032540080B232464146ADF81200184408F053F9E2
:10326400BDF8120006AB204480B23A46ADF8120015
:1032740004A9184408F047F9BDF8123005AA3B44E4
:103284009BB2ADF81230009340F2691106AB49A825
:10329400FEF752F805992B68ADF8121049A85B683F
:1032A40089B298472B6801215B68074898470DF558
:1032B400257DBDE8F08300BFF0B60120F4B60120FF
:1032C4007DDE0120ECB6012004EB0000F0B50C68B3
:1032D400164F85B002380D46C4F500710090144BAA
:1032E400381903AA0131FEF7A7F80446D8B92B68A8
:1032F400039A1344022B2B6012D93E88023B76BA00
:10330400B6B29E420CD13246B91C06F046FF38B91B
:10331400022E05D92B68023B1F442B60BC7001248C
:10332400204605B0F0BD4FF0FF34F9E77DDF012002
:1033340080E1012007B5CDE900016946024807F0A4
:10334400E3FF03B05DF804FBF4B6012038B505468D
:103354000A4C0A21204607F0E9FF02210848FFF73A
:10336400E9FF2946204607F0CBFF20460A2107F053
:10337400FBFFBDE83840FFF723BF00BFF4B60120D0
:10338400A2E80000002307B5054A0093022102F5D4
:103394008073044807F0F7FF03B05DF804FB00BF37
:1033A4007DDE0120F4B601202DE9F04F0729044603
:1033B400A1B040F2B680037813F0FD0740F0B1806D
:1033C4004388A1F108055BBA9BB2AB42C0F0A98067
:1033D4008B4B00F10806186083885BBA8380FFF783
:1033E400D1FFA088012840F09E81E47944B1012CEA
:1033F40000F09A80082021B0BDE8F04FFFF7A6BF87
:103404000146804807F092FF06217F48FFF792FFAC
:1034140005217C4807F07BFFDFF8F081DFF8F091AD
:103424000026784F00E001263146204606F0F4FCE1
:1034340007A9C0B2FFF79EFC054600284CD13146CF
:10344400204608AA02F0C6FD012806D120232946F9
:1034540007980DEB030207F0DFFC089B434540D0BF
:103464006C4B1D68079807F0D6FCD9F80030AB42C6
:1034740032D11421384607F059FF05216648FFF779
:1034840059FF2146384607F03BFF04216348FFF704
:1034940051FF3146384607F033FF07216048FFF7F4
:1034A40049FF40210E9B5F4A0293BDF836300DEB75
:1034B400010001939DF8353000939DF8343000F0FD
:1034C4009DFD10A807F0EFFF014610A8FFF732FF9B
:1034D4001421384607F048FF002EA4D0BCB9344666
:1034E4009EE73146204602F08BFD05460128B9D1FE
:1034F4004023002101936B4400930846CDE9031156
:10350400079B029108AAFDF787F80546AAE705215B
:103514003C4807F01AFF21463A4807F025FFFFF719
:103524004FFE21B0BDE8F08F3046294607AB10AA04
:10353400069700F015FA064600B303240A21314821
:1035440007F0F4FE02213848FFF7F4FE21462D4827
:1035540007F0D6FE44B903213448FFF7EBFE344BA1
:103564002848196807F0CCFE0A21264807F0FCFE1B
:10357400FFF726FE069807F04EFCD2E7079B9D4214
:10358400DBD14FF0FF3A3246D0463546B1461F985C
:1035940010AB824220D1B8F1FF3FCED0B9F1000F79
:1035A400CBD03046FCF7D0FF06A9C0B2FFF7E2FB50
:1035B40004460028C1D11E4FB8F1000F40F08A80A4
:1035C40006983C60D0F8088006F0DBFC1949FCF74B
:1035D400C5FF88B30124B1E7197A032904D8DFE8C9
:1035E40001F00206090C1E6801320C33D1E7D3E95D
:1035F4000095F9E7D3F800A0F6E7D3F80080F3E7E5
:10360400F0B60120F4B6012006EB00003DB8F396B5
:1036140018A7002000A000200DEB000013EB000011
:1036240018EB000020EB0000A2E800002FEB0000E4
:1036340024B7012030B70120D045FFF47EAF4B4BB7
:103644001C604B4BC3F800A03A68DFF82081013AB4
:10365400D8F8001006982A4407F05AFC0028C8F845
:103664000000FFF66AAF069807F014FCB5FBF0F211
:1036740002FB1052DFF8F8A03968DAF800305FFA7C
:1036840082F8A5EB08080D449D4238BF0022069835
:10369400D5B243464A4607F0D4FB00287FF44DAF29
:1036A40015BB3A68DAF8003042442A449A423A6038
:1036B4007FF444AF2F4B06981A68114607F028FC94
:1036C400002887DB3046DAF80020069908F0F4FA7F
:1036D400044633E73B6843457FF430AF244BA844AA
:1036E4001B689845B0D928E7069807F0DAFB08224A
:1036F400014608A807F012FF2A4609EB080108A8AA
:1037040007F001FFDDF818903968484608EB010B13
:1037140007F0C0FB5946034608AA484607F091FB48
:103724000028BED009E798B9E379012B3FF463AED2
:10373400052B03D0002B7FF45DAEF2E6FFF706FE07
:103744004FF40050002105F001FF012007F0E8F9D3
:103754002A4631462046084BFCF718FF00287FF420
:10376400E0AE21B0BDE8F04FFFF72ABD2CB7012031
:1037740028B7012030B70120F4B6012001232DE938
:10378400F74300250646304FDFF8C0803B70304BCE
:10379400304C00951860304BDFF8C090C5F50071CF
:1037A400C8F8004601AAC8F804460131C8F808461A
:1037B40009EB0500C8F80C46C8F81046C8F81446CA
:1037C400C8F81846C8F81C46C3F80046C3F80446AF
:1037D400C3F80846C3F80C46C3F81046C3F81446A9
:1037E400C3F81846C3F81C46336898470028019B61
:1037F40000DC33B1054453B940F201239D4200D1AA
:1038040000253B78002BC6D103B0BDE8F08399F8BE
:103814000030062B0AD199F80130092B0CD1002372
:1038240000936946A81EFFF751FD05E0042B03D160
:1038340099F80130142BF4D00128E1D100990848FB
:103844000239FFF7B1FDDBE77CDE01200080015087
:10385400ECB601203546526E009001507EE1012005
:103864007FDF012073B504460E4607F0DCFD0546F4
:1038740038B3364B6946009305232046019307F07D
:10388400B2FC38B13146204607F08FFC10B100235A
:10389400337240E0204607F0C9FDA8B12C4B6946BD
:1038A400009304232046019307F09DFC60B1314648
:1038B400204607F095FC38B101253572204607F003
:1038C400B9FD284602B070BD204607F0AFFD78B1BF
:1038D400204B6946009303232046019307F083FCA1
:1038E40030B13146204607F060FC08B10223CFE72F
:1038F400204607F09BFD80B10325174B69462046FF
:103904000093019507F06FFC38B13146204607F06B
:103914004CFC10B135720125D0E7204607F086FD36
:1039240008B90025CAE70D4B6946009303232046D6
:10393400019307F058FC0028F3D03146204607F0E5
:103944004FFC0028EDD00423A2E700BF0DEB0000DC
:1039540033EB000038EB00002FEB00003CEB0000E1
:103964002DE9F0434FF001099DB004AD07460E4622
:1039740090461C4602460B4628460421CDF800908A
:1039840007F05CFD284607F031FC70B10C230521DB
:10399400CDE901834846114B009508F13C0207F03C
:1039A40046FC50B9284607F03DFC0022099BD86824
:1039B400DA60904208BF1F200CE0284607F030FC74
:1039C4000028F2D02CB10498C01BB04294BF2060F0
:1039D400266000201DB0BDE8F08300BF69380000F8
:1039E4000246084603460138115C11B90028F9D192
:1039F4007047022B81BF0120044A9B1813F8021C54
:103A040086BF8840C0B21846704700BF40EB000034
:103A1400F8B504460E46104619461546FFF7E0FF72
:103A2400012804D12878172894BF00200120226897
:103A3400E168431C1344994204D2082200206369BC
:103A4400DA60F8BD2B7838B1831E062B8EBF0023B5
:103A54000D4FFB5C1833DBB28A42EED203F01F0336
:103A640043EA4613511C216013702B189D4204D164
:103A7400A36801200133A360E3E72268511C21609D
:103A840013F8011D1170F1E740EB00000149102209
:103A94000A60704710ED00E072B6404080F3118870
:103AA400BFF36F8FBFF34F8F30BF62B6BFF36F8F1B
:103AB400704700BF72B6494081F3118820BF80F37C
:103AC400118862B6704700BF43B2002B08DB0122A5
:103AD40000F01F0002FA00F0024A5B0942F82300DA
:103AE400704700BF00E100E043B2002B0DDB012270
:103AF40000F01F0002FA00F05B09044A203342F888
:103B04002300BFF34F8FBFF36F8F704700E100E0D6
:103B1400054B420953F82220012300F01F0003FA49
:103B240000F01040704700BF00E100E043B2002BFA
:103B340001F10101ACBF03F16043064B4FEA4111AF
:103B4400C9B2ABBF03F5614300F00F0083F8001363
:103B54001954704714ED00E030BFFFF7FDBF00BFFC
:103B64000B4A08B50B4B22F07F029A60BFF34F8FCC
:103B7400BFF36F8FD3F8882022F47002C3F8882033
:103B840004F0EAFE05F074FD00F09EF904F024FF51
:103B94000000000000ED00E0094A0A499368096842
:103BA4001867596708494B6843F080534B600023FA
:103BB40083F31188BFF36F8F9368586F704700BF0A
:103BC40064C30120C4E7000000ED00E013498A68E3
:103BD4004FF030001044EFF3098C80E8F01F2020F0
:103BE40080F31288BFF36F8F0D4F4FF000664A6960
:103BF4008A603E60106F0023136780F3118802F11E
:103C0400300090E8F01F8CF3098802F1000004B53D
:103C140007F045FCBDE804407047000064C3012080
:103C240004ED00E01EF0040F0CBFEFF30880EFF387
:103C34000980816911F8021C0229FFD001B507F03F
:103C44001FFC01BD42F8203C009B0B4942F81C3C80
:103C5400019B21F0010142F8183C029B42F8081C28
:103C640042F8143C4FF0807342F8043C0023203A9D
:103C740002650367704700BF67A40000084B9860A3
:103C8400036E83F30B88104681F30988002163B621
:103C940081F31188BFF36F8F0022002306F0E1FB4C
:103CA40064C3012001B5EFF30580A0F110004FEAD1
:103CB400C0000449014409C99847BDE801400249CC
:103CC40008470000C8E00000D13C0000044B99689C
:103CD4005869884203D003494FF080520A60704704
:103CE40064C3012004ED00E0094B9A6A9A6A986A59
:103CF4009A6A9A6A9A6A9A6A9A6A10F480106FEABF
:103D040002426FEA124218BF02209A62704700BF53
:103D140000ED00E00D4B9A6A9A6A9A6A920507D5FB
:103D24009A6A120404D518B19A6A22F400429A627B
:103D34000020064B9A6A9A6AD20558BF9A6A9A6A10
:103D440042F47F429A620870704700BF00ED00E0C1
:103D5400124B9A6A9A6A9A6A920708D55A6B9A6AB7
:103D6400120604D518B19A6A22F080029A620B4BAB
:103D74009A6A9A6A9A6AD0064FF0000058BF9A6A03
:103D84009A6A920642BF5A6A22F400525A62034A5D
:103D9400936A43F0FF0393620870704700ED00E0FC
:103DA40070B53D4B0E465B6800258AB0C3F308032B
:103DB40085F31188BFF36F8F02F07F41B1F17F4F1C
:103DC40011D102F00C0108290DD0120701D40646C6
:103DD40001250022033B8DF80720032B55D8DFE88B
:103DE40003F0044C50492E46F3E72B4BDC6A14F0E5
:103DF40002044AD1DA6A002A15DBDC6A14F0804432
:103E040011D0B26932F8021C4DF60272914209D007
:103E14009A6AD2B2FAB101200DF10701FFF798FFB7
:103E2400044600E034689DF8073093B920223146F7
:103E340002A807F068FB099B4DB3C3F3080222B93B
:103E44006FEA53236FEA43230993204602A907F03C
:103E540015FB0AB070BD9A6A12F47F4F05D0012099
:103E64000DF10701FFF756FFDAE79C6A240C2404DE
:103E7400002CD8D0FFF738FFD2E700200DF107015E
:103E8400CCE700200DF10701ECE70024CBE723F495
:103E9400FF7323F00103D7E700ED00E0044B5A69F8
:103EA40042F010025A615A6942F480625A617047C2
:103EB40000ED00E0EFF30880EFF3098101B57246ED
:103EC400FFF76EFF01BD00BF002320210348C21885
:103ED4000133452B82F80013F9D1704700E100E06B
:103EE400002080F31488BFF36F8F002080F30A88CA
:103EF40080F30B88FDF790FE00200E490860BFF3A5
:103F04004F8F0D4880F3088800F03EF8202080F39E
:103F140011880A484FF40061401880F30988EFF3D0
:103F240014800221084380F31488BFF36F8FFFF7D6
:103F340017FE000094ED00E088130620C814062044
:103F4400BFF34F8F0549064BCA6802F4E06213437E
:103F5400CB60BFF34F8F00BFFDE700BF00ED00E073
:103F64000400FA05002318460649D1F89020C2F34C
:103F74000722934200D17047C1F89830C1F8A000DD
:103F84000133F6E700ED00E010B572B6002484F3C7
:103F94001388FFF7E7FF23464FF0FF300B4A03F186
:103FA40020010133102B42F82100F8D100234FF0F7
:103FB400FF3003F160010133102B42F82100F8D1E6
:103FC40062B6BFF34F8FBFF36F8F10BD00E100E007
:103FD400084B9B6883420BD1EFF3058343B1064B37
:103FE4005A6842F080525A605A6A22F400425A6275
:103FF40005F0CCBA64C3012000ED00E00CB410B5A8
:1040040086B009B90DF10B000024CDE9040109AB18
:10401400089A009404A905480393FDF787FB049BC1
:104024001C7006B0BDE8104002B0704733B5000004
:104034000146014809F07DBD20A300200149024842
:1040440009F0BDBD60BD0120D0A4002000F07F03B5
:10405400082B42B204D010F0780F01D00020704732
:10406400002A00F00F0300F0080005DA58B90848E8
:1040740000EB43104C30704738B9054800EB43104F
:1040840000F5B6707047034870470348704700BF97
:1040940038BD012084BE0120A4BF012013B5002433
:1040A400002201213720FFF741FD3720FFF70CFDE7
:1040B4000A4803F07DF90A4804F0D4FB4FF0FF33BB
:1040C4004FF4806207490848009405F003F8074953
:1040D400074809F057FD204602B010BD47EB000029
:1040E400D4E4000088E70520D0A400203544000073
:1040F40060BD012000220023014804F08FBE00BFF0
:1041040020A3002010B5054CFFF7F4FF20B1011DDA
:10411400204609F053FCF7E710BD00BFA0A2002021
:1041240007B5002300220E4801A904F0DDFC90B17C
:10413400FFF7E8FF00220023094801A904F0D4FC9A
:1041440038B90423019840600374FFF771FFFFF747
:1041540075FF002001E00198406003B05DF804FBA6
:10416400A0A2002010B50446FFF7DAFF60B10022D8
:1041740004720274FFF75CFF044B93F824301BB104
:10418400BDE81040FFF75ABF10BD00BF38BD012085
:10419400817870B506460846FFF758FF0B060446BB
:1041A400F57812D5002D43D1FFF7BAFF0346002856
:1041B4003ED00122A5770274032202739C60FFF7AC
:1041C40037FFBDE87040FFF739BF4DB1012D2FD146
:1041D400FFF7A6FF034658B3657705740573EDE74B
:1041E400FFF79EFF20B3B278124B12F0800F02F05B
:1041F400080111D041B1D3F8A836E3600123037458
:10420400022384600373DAE7142102F00F0201FB36
:104214000233D3F80836F0E711B1D3F8A837ECE746
:10422400142102F00F0201FB0233D3F80837E4E74C
:1042340070BD00BF00600350012807B50FD00228ED
:104244000ED048B9002200230848CDE9002345F6E2
:104254009A12002305F0B8FB03B05DF804FB0020BC
:1042640003B05DF804EBFFF77DBF00BF68A2002038
:10427400002210B50C4901F12003D3E8EF0F012807
:1042840003D1C3E8E42F002CF7D10BD1CC690C3156
:10429400204606F09EF8783004D12046BDE8104050
:1042A40006F072B810BD00BF38BD0120F0B5064657
:1042B40089B01422002103A807F030F93378013BB8
:1042C400052B21D8DFE803F07A0314146A160323BC
:1042D40000248DF81430FFF723FF0346A0B100F14A
:1042E40008020474DDE9050182E8030018461DE0B4
:1042F4000423EDE7B1780846FFF7A8FE837A044665
:1043040023B1013B022B43D909B0F0BD0B06F5786C
:1043140013D5002DF8D1FFF703FF03460028F3D08F
:104324000122A5770274032202739C60FFF780FECA
:1043340009B0BDE8F040FFF781BE55B1012DE3D1CE
:10434400FFF7EEFE03460028DED06577057405739B
:10435400EBE7FFF7E5FE07460028D5D001230374F9
:1043640002238460037304F10C01B07809F0A7FA06
:10437400134AE168B2F88C328B4206D95B1AA2F870
:104384008C3203F0CFFF3846D0E7A2F88C52FAE71C
:10439400304609B0BDE8F040FFF7FABE01A803F0CB
:1043A4009BFF9DF80530052B04D19DF8043013F0D4
:1043B400600FA9D0034B012405938CE702248AE7FC
:1043C40038BD0120A4BE012038B5002464F07F006C
:1043D400C0B2FFF73BFE013407F0B8F8082CF5D162
:1043E40000240F4DE0B2FFF731FE036903B9056104
:1043F400013407F0ABF8082C05F14005F2D1094C63
:1044040004F5A67007F0A2F8D4F87C3213B9064B71
:10441400C4F87C32054807F099F8002038BD00BF85
:1044240038BB012038BD012038B70120A4BF0120CA
:104434002DE9F0430746AE4CDFF8B88285B0FFF7AC
:1044440059FE10B905B0BDE8F08394F82530027C1C
:1044540000F104093BB9002A00F086804946404631
:1044640009F0ACFAEBE7042AF8D8DFE812F07D0093
:104474000500FF0015013001037B8568032BEDD88F
:10448400DFE803F0023D5A5F6E69082200213046DE
:1044940007F044F8984B9948D3F880243270D3F845
:1044A40084247270D3F88824D3F88C1442EA01224D
:1044B4007280D3F89024D3F8941442EA0122B28093
:1044C400D3F89824D3F89C34314642EA03230822D3
:1044D400F380EA6007F017F82B680021687A9847A0
:1044E40096F90030002B06DBF38823B1A4F88C3254
:1044F40003F018FFB2E70023A4F88C32AEE76B7F19
:10450400002BABD02B7F002BA8D000264FF0FF321E
:104514006E774FF0FF337A482E7707F02DF86B69EA
:1045240001A901936B68CDE90236687A03F00AFDAC
:10453400734807F023F891E701212B68687A9847BC
:104544008CE7AB7A6BB9EB7F5BB96D484FF0FF3208
:104554004FF0FF3307F010F803F018FF684807F036
:104564000DF802212B68E9E7027A042A3FF676AFB8
:10457400DFE802F057032165710003F093FC054660
:1045840000287FF46BAF03F031FC01235D49D1E8CF
:10459400EF2F002A03D1C1E8E03F0028F7D17FF4D0
:1045A4005DAF41F8105C41F8085CE069143963615F
:1045B40005F0A1FE52E7002565F07F00C0B2FFF7C9
:1045C40045FD037A13B1407A04F0CAF80135082D89
:1045D400F2D194F854311BB194F8550104F0C0F8A9
:1045E4000025E8B2FFF732FD037A13B1407A04F0F4
:1045F400B7F80135082DF4D194F874321BB194F84E
:10460400750204F0ADF8012003F026FC012384F8C0
:1046140025302368002B3FF421AF00210220984766
:104624001CE7002584F8255004F028F8FFF720FE45
:104634002368002B3FF412AF29460420EFE7002B38
:104644003FF40CAF04F034F82368002B3FF406AFBA
:1046540000210520E3E72268002A3FF4FFAE002B87
:104664003FF4FCAE002106209047F7E607F1100561
:104674004FF0FF334FF0FF32284606F07DFFFFF77F
:10468400A3FE284606F07AFF57F8283C002B3FF497
:10469400E5AE00210120C2E794F874327BB1012514
:1046A40084F8895284F88852FFF73AFD38B1164AE3
:1046B400057405738260FFF7BBFCFFF7BFFC57F876
:1046C400283C002B3FF4CAAE00210A20A7E704F0DF
:1046D400B1F803F0D3FF03F07FFBFFF713FDFFF7FF
:1046E40073FE04F09FF8094803F0E6FBB6E600BF4A
:1046F40038BD0120A0A20020006003503CBD012071
:1047040070BD012058BD0120A4BF0120B1420000AA
:1047140038B51A4D95F8244054BB05F1380009F01A
:1047240095F9022000F092FB22460121E86136202F
:10473400FFF7FCF9124803F0BFFB124B984219D162
:1047440004F070F8FFF740FE044610B9012385F821
:1047540024300D4B1B680BB1FFF770FC0B4BD3F8E7
:104764000034DB0702D50020FFF766FD204638BD84
:104774000024FBE76FF00404F8E700BF38BD012014
:10478400B14200000000AD0B20A3002000700350D4
:1047940010B54FF0FF324FF0FF331F4806F0ECFE28
:1047A4000024FFF7AFFC64F07F00C0B2FFF74EFCBB
:1047B40000212022013406F0B1FE082CF3D100249C
:1047C400E0B2FFF743FC00212022013406F0A6FEEC
:1047D400082CF5D120220021104806F09FFE20224B
:1047E40000210F4806F09AFE03F05CFB08B103F0C9
:1047F40045FF03F04FFB08B103F0EEFA0024FFF786
:1048040037FD04F017F8074880F82440383006F0E4
:10481400B5FE204610BD00BF70BD012084BE01203E
:10482400A4BF012038BD0120074B93F824203AB1DE
:1048340093F82530002B0CBF6FF012000020704756
:104844006FF01200704700BF38BD01200F4B0146C6
:1048540093F8243010B5B3B104782046FFF7F6FB83
:1048640010B96FF0150010BD44720B79837249883A
:104874002307416002D44B1E0B42F2D1204609F0BB
:1048840019F80020EFE76FF01200ECE738BD0120C3
:10489400124B014693F8242010B5CAB193F8253081
:1048A400B3B1FFF7D3FB0446A8B1837A012B12D02E
:1048B40007D9023B012B07D900206369E060A3619B
:1048C40010BD03F06BFDF7E7084603F0D7FCF3E7F0
:1048D4006FF01200F4E76FF01500F1E738BD012026
:1048E40038B50E4B054693F8242082B193F8253051
:1048F4006BB1FFF7ABFB68B115F008040AD1284689
:1049040003F0DEFC284603F07DFF204638BD6FF03F
:104914001200FBE76FF01500F8E700BF38BD012077
:1049240038B50C4B054693F824200C4662B193F835
:1049340025304BB1FFF78AFB48B141B1284603F05B
:10494400A5FC2070002038BD6FF01200FBE76FF06B
:104954001500F8E738BD0120F8B5134F044697F861
:104964002430BBB1FFF772FB0546B0B1230705D471
:10497400204603F0A5FC204603F044FF2E7A7EB9BE
:10498400012397F825002B7218B1204603F0E8FEA6
:104994003046F8BD6FF01200FBE76FF01500F8E742
:1049A4006FF07700F5E700BF38BD012038B5114B33
:1049B400014693F824209AB193F8253083B1FFF788
:1049C40045FB054678B1037A83B10024084603F019
:1049D4009FFE2846AC7706F0B9FD20462C7238BD00
:1049E4006FF01200FBE76FF01500F8E76FF0770047
:1049F400F5E700BF38BD01202DE9F043DFF8DC8086
:104A04001C4698F8243007468946164685B0002B84
:104A14005DD098F82530002B59D003065AD5FFF7FE
:104A240015FB0546002855D0037A002B52D04FF0D1
:104A3400FF334FF0FF3208F1380006F09DFDAB7FE5
:104A44004BB108F1380006F099FD6FF00A042046D6
:104A540005B0BDE8F08316B9EB7F03B1EE77AB7A0E
:104A6400BBB95EB1B8F80A30B34207D96A68B6FB7D
:104A7400F2F302FB13630BB90123EB7703F096FC0B
:104A8400B84206D003F082FC154806F077FD0024F6
:104A9400DDE701234FF00008AB77384601A9CDE9E3
:104AA4000196CDF80C8003F04DFA0E4B984207D0D6
:104AB40085F81E800CB1C4F800806FF0040402E095
:104AC4000CB126604446064806F058FDBFE76FF077
:104AD4001204BCE76FF01504B9E700BF38BD01202C
:104AE40070BD01200000AD0B2DE9F0411D46204BA7
:104AF400174693F824200E46002A33D093F8253025
:104B040083B3030631D401B97FBBFFF79FFA044690
:104B140058B3037A4BB34FF0FF334FF0FF321548CD
:104B240006F02AFDE368B8469F4228BF984646B976
:104B34003FB905B12B600F4806F020FD0020BDE809
:104B4400F08142463046A16906F0DDFCA369434486
:104B5400A361E368A3EB0803E360002DEBD0C5F881
:104B64000080E8E76FF01200E9E76FF01500E6E770
:104B740038BD012070BD012070B51E4D034695F867
:104B8400242082B395F825206AB31B062ED4FFF7A0
:104B94005DFA044650B3037A43B34FF0FF334FF04A
:104BA400FF3205F1380006F0E7FCE368B3B90126EB
:104BB40063692677A361637F83B1FFF7B1FA30B9E4
:104BC40005F1380006F0DAFC6FF00B0070BD0674D6
:104BD40084600673FFF72CFAFFF730FA064806F0F4
:104BE400CDFC0020F2E76FF01200EFE76FF0150044
:104BF400ECE700BF38BD012070BD012008B5084BAB
:104C040093F824302BB1FFF721FA28B1016000207A
:104C140008BD6FF01200FBE76FF01500F8E700BF66
:104C240038BD0120014B1860704700BF38BD01201A
:104C340008B5074B93F8243023B1FFF707FA20B1E6
:104C4400406808BD6FF01200FBE76FF01500F8E74D
:104C540038BD0120084B70B5C31A0D4607499B1097
:104C6400044659434022064806F0CDFC2B46014633
:104C74002046BDE870401847D8BF0120B76DDBB6A9
:104C8400F0DF0000402373B50B4C0093041B0B466C
:104C94000D460A49A41061430646094A094806F02C
:104CA400DEFC011E05DA30462B4602B0BDE870403A
:104CB400184702B070BD00BFD8BF0120B76DDBB686
:104CC400D3B60000F0DF00002DE9F84300220121F3
:104CD40006460520FEF72AFF114801F003FF114B99
:104CE400984219D101F00EFF00244FF01C080C2744
:104CF400DFF834903569494608FB045005F0E8FABA
:104D0400002807DB012307FB04551C44042CAB6774
:104D1400F0D10020BDE8F8836FF00400FAE700BF8B
:104D2400654D00000000AD0B18E5000001460C23A2
:104D340000224B43084870B5C4187833D4E91C5694
:104D44001844226706F04CFC2DB132462B46BDE8D0
:104D540070400248184770BDD8BF0120F0DF000042
:104D6400052811D8DFE800F0030E10100C0A074BD9
:104D7400986F10F0070007D1FFF7D8BF0220FBE7B8
:104D84000320F9E70120F7E7704700BFD8BF0120EF
:104D940008B54FF02003EFF3118183F31288BFF3BA
:104DA4006F8F124A136843F0020013F0010310607E
:104DB4000CD04FF05022D2F80C34D2F80C2413F05B
:104DC400010303D00A4806F00BFC012381F3118888
:104DD400BFF36F8F23B1BDE808400020FFF7A6BFE3
:104DE4000120BDE8084008F01FBC00BF78C00120C6
:104DF40050C001201FB500220123CDE902236B46D8
:104E0400084ACDF800D0CDF804D006F059FC0028AB
:104E140005DB4FF480420023684604F053F805B0E4
:104E24005DF804FB09B70000074BD3E8EF2F22F02D
:104E34000201C3E8E01F0028F7D1D30702D4012000
:104E440008F052BC704700BF78C00120C3B21C20D8
:104E5400014A03FB00207047D8BF01202DE9F0412F
:104E6400012207463749D1E8EF3FC1E8E02F002887
:104E7400F9D133B9344935484B60CB608A6005F0C9
:104E84003AFA7B1E012B2FD8012F07D14FF0502364
:104E9400D3F81C3403F00303022B25D008F0B7FD2C
:104EA400044618B92A4B1B78002B44D14FF0200339
:104EB400EFF3118683F31288BFF36F8F01244FF051
:104EC4005025DFF89080D5F81834D5F81824D2038B
:104ED4000CD503F00303022B01D0012F06D124B318
:104EE40086F31188BFF36F8FBDE8F081C4B13046FB
:104EF400FEF7E0FDD5F81835DBB2012BE3D1D5F888
:104F04000421002ADFD00022C5F80421D5F80421A9
:104F14000222C5F818252022C8F88021AB60D2E708
:104F24000021212004F012FBE4E74FF05023022279
:104F3400C3F80423D8E74FF0502302220646C3F8EF
:104F44000823BCE77CC00120C8BF0120F4BF0120B6
:104F540086E3052000E100E030B5406801F01F055C
:104F6400047BB2F5001F45EA441585B04FF00004F8
:104F740005D1284602F074F8002005B030BDB2F522
:104F8400800FCDE9024433D1B3F1007F0CBF042379
:104F940005238DF80830836823FA01F1C90719D471
:104FA400B2F1A07F16D11E4A1E486909012908BF23
:104FB400024605F01F03803352F82330DB0709D47F
:104FC4000DF107042146284601F0B0FF164B984224
:104FD40019D0039400232846194602AA01F080FE42
:104FE400124B984218D10121284601F0F3FFC3E780
:104FF400B3F1C06F05D0B3F1007F0CBF02230123CE
:10500400C7E70323C5E7204601F0DEFF074B9842BC
:10501400DFD06FF00B00B0E76FF01500ADE700BF15
:1050240000258450002884500400AD0B0000AD0B13
:1050340010B501F0B9FF044668B901F08DFF084BC3
:1050440098420AD12146074801F06AFF2246052109
:105054000D20FEF76BFD002010BD6FF00400FBE790
:105064000000AD0B6D5000004209034670B502D03C
:10507400012A15D070BD0B4E326951680029F9D050
:10508400012503F01F030C689D408A682A4002D062
:1050940030464B689847002CECD021462468F4E74E
:1050A400014EE9E708E0000020E000002DE9F043AC
:1050B400D0F8048001F01F0698F80C3085B046EA59
:1050C400431614460F4630460DF1030101F02EFF3E
:1050D40014F4403581460BD1304601F0E9FF424BD0
:1050E400994503D19DF8030001F068FF002056E0C4
:1050F40000233046194602AACDE9023301F0F0FD3F
:10510400394B984202D06FF0150048E0814503D135
:105114009DF8030001F052FFA50352D540F2063377
:105124002340B3F5837F3DD00CD8062B15D004D88B
:105134009BB1022BE7D104230FE0B3F5807FE2D1CA
:1051440001230AE040F2022293422DD0B3F5407FBE
:105154002CD0B3F5007FD6D102238DF8043084F42B
:105164008033C3F30043E0068DF805304CBF0323BE
:10517400C4F3401321038DF8063019D50121D8F862
:10518400043001FA07F79F600022304601A901F0BC
:1051940053FE154B984214BF6FF01500002005B064
:1051A400BDE8F0830723D8E70523D6E70323D4E734
:1051B400620341BF0121D8F8043001FA07F7DF6028
:1051C400E2E7E3064FF000034CBF0324C4F34014AA
:1051D4001A46304601A98DF8044001F081FD024BC6
:1051E400984283D08FE700BF0000AD0B00F17440FC
:1051F40000F5A6000A289ABF024B33F910006FF09D
:105204000F00704754E80000024B0B600123136049
:10521400704700BFC4E5000000487047CCE50000BB
:10522400054B994206D14FF0FF324FF0FF33203047
:1052340003F048BE704700BF0000AD0B70B50569B0
:1052440004460F4E284606F052FB05F1300006F0E6
:1052540046FB33788BB92A460A49606802F010FA93
:10526400FFF7C4FFB0FA80F305465B093370206989
:10527400103006F034FB284670BD0025F7E700BF68
:105284007FE30120E7B8000038B50446006906F062
:105294002EFB25690022002305F1300003F012FEE5
:1052A400AB6B4BB90A4D02F00FFBA8420AD102F0D6
:1052B40031FB0022074B1A702069BDE838401030DA
:1052C40006F00DBB002140F2676004F03FF9EAE705
:1052D4000000AD0B7FE301202DE9F04F074688461F
:1052E4001C46164685B0002A00F09A80002B00F078
:1052F400958000294268C0F293809269CB1893424A
:1053040000F28E80FFF79AFF054600287DD1C8F190
:10531400000505F00305386906F0E9FAA54228BF3F
:105324002546734203F0030306F0030B58BFC3F191
:10533400000BCBF1000B0BF0030BA34528BFA346D6
:10534400631BA4EB0B0424F0030423F00309A1451D
:10535400C8BFA14603F0030AC8BFA3EB040AB9F10E
:10536400000F18D006EB0B0308EB0502494618465C
:10537400019308F03AFA044601463869FFF750FFF2
:10538400294A944239D15D4505D0019B4A461946C4
:10539400701906F0A0F8B5B1C5F1040B0421A8EB0F
:1053A4000B0202A808F021FA044601463869FFF707
:1053B40037FF1D4B9C4220D102AB2A46304603EBFB
:1053C4000B0106F0A0F8BAF1000F25D0082108EB74
:1053D40005024A440DEB010008F007FA04460146B1
:1053E4003869FFF71DFF104B9C4206D109EB0500FD
:1053F400524602A9304406F086F83869103006F0A7
:105404006EFA2046FFF7F2FE05463846FFF73CFFEA
:10541400284605B0BDE8F08F034CEEE71D46F7E7DC
:105424006FF01505F4E700BF0000AD0B4FF05023FB
:10543400022230B5C3F8B825436887B01D6A044614
:105444000021284603AA06F05AFB002851DB039BDF
:105454002A681979186806F06FFB002849DB0022D6
:1054640001212B20FEF762FB656822692846324938
:1054740002F006F9FFF7BAFE00283ADBEB7A023BAA
:10548400012B38D9AD7A033D012D8CBF00250125B0
:10549400204606F08BFA00282BDBC2B2C0F3801042
:1054A400854201AD29D12046FFF7EEFE00230322F9
:1054B4000493CDE902239F2320460595CDF804D01B
:1054C4008DF80C30FFF7BAFE054628B9024603A949
:1054D400204606F019FA05462046FFF7D5FE35B9F1
:1054E4006068032269461C3005F0E4FF08B16FF0E0
:1054F400120007B030BD0125CAE7002382F0400244
:10550400ADF800308DF800200122204603A9CDE932
:105514000223CDF804D005938DF80C20049506F0F1
:10552400F3F90028E5D1204606F040FA0028E0DB34
:10553400C307F8D4B7E700BFE7B800002DE9F84F78
:105544000E1E80461746D0F804906DDBD9F818304B
:10555400B2189A4268D8002F66D046EA0703C3F30C
:105564000B03002B60D1FFF769FE044698BBD8F803
:10557400100006F0C3F92146404606F002FA04463C
:1055840028BBD8F8100006F0B2F9DFF8A4A0D9F8C7
:105594001830BB4225D108F02BF9BB4605462946F5
:1055A400D8F81000FFF73CFE224B9D4237D1B7EBF1
:1055B4000B075E44EBD1D8F81000103006F08FF9D9
:1055C4000121404606F0DDF9002C08BF0446D8F856
:1055D400100006F084F94046FFF756FE2046BDE869
:1055E400F88FB7F5803F09D3B3B23BB931460120F8
:1055F40002F0DEF94FF4803B0546D0E7B7F5805F53
:1056040009D3C6F30B0030B9314602F0D1F94FF497
:10561400805B0546C3E74FF0000B5546BFE72846BD
:10562400FFF7E4FD0446C6E76FF01504D6E700BFB4
:105634000400AD0B0000AD0B2DE9FF4705460F46F6
:105644001E469046002A00F08180002B7ED0042B59
:1056540001D99A077AD1BB0778D1002F6A6875DB24
:105664009269BB19934271D82846FFF7E7FD0446B7
:10567400002860D1286906F041F92146284606F041
:1056840080F90446286906F032F9002C40D1032E33
:105694001CD83A460421684608F0A7F80446014697
:1056A4002869FFF7BDFD2B4B9C4231D13246414660
:1056B400684605F028FF3A460421684608F092F847
:1056C400044601462869FFF7ABFD21E008F060437A
:1056D400B3F1005F36D0DFF87CA0102EB14628BFAE
:1056E4004FF0100941464A46684605F00CFF3A4619
:1056F4001021684608F076F8044601462869FFF749
:105704008FFD544504D1B6EB0906C8444F44E4D197
:105714002869103006F0E3F80121284606F031F933
:105724000646286906F0DBF8002C14BF20463046F4
:10573400FFF75CFD04462846FFF7A6FD204604B0AB
:10574400BDE8F0873A4631464046B7E76FF01504A6
:10575400F4E700BF0000AD0B024B0B6001231360A4
:10576400704700BF20E600000048704728E60000AC
:105774002DE9F7431C460B44B3F5802F0D4617461D
:105784002BD8002929DB44EA010616F0030624D1AC
:105794000422FF210DEB020005F0C0FEDFF840807B
:1057A40008EB0509A64208D33A4645443C44A242C4
:1057B4000CD1002003B0BDE8F083042209EB0601FC
:1057C4000DEB020005F076FE0436EBE72B7812F8B9
:1057D400011B0B4005F8013BE9E76FF01500E9E711
:1057E40080E30120104608B51A460B44B3F5802F18
:1057F40007D8002905DB044B194405F084FE00207A
:1058040008BD6FF01500FBE780E301205318B3F5E2
:10581400802F70B51BD8002919DB42EA0106C6F3B4
:105824000B06A6B90B4C21F47F6121F00F01150B77
:105834000C44AE4201D1002070BD20464FF480528A
:10584400FF2105F06BFE013604F58054F1E76FF09B
:105854001500F1E780E3012008B54FF48022FF2111
:10586400024805F05BFE002008BD00BF80E3012074
:105874004FF4802301480B60704700BF80E3012090
:10588400024B0B6001231360704700BFA0C00120CE
:105894000048704744E6000010B50122064811464E
:1058A40008F052F907F091FF044C206007F08AFFDA
:1058B4006060002010BD00BFA8C00120A0C001206E
:1058C40070B50D46144607F07DFF2146064628466E
:1058D40006F087F800B3B5FBF6F306FB1353DBB908
:1058E400B4FBF6F306FB1340B0B9A64213D84FF04D
:1058F400FF324FF0FF330A4803F0E4FA07F062FF87
:105904000646284601F0E4FCA41B3544F9D10448BA
:1059140003F0B8FA204670BD6FF01500FBE700BF36
:10592400A8C001202DE9F0410E461946304615461F
:105934001C4606F056F8B8B3CCB34FF0FF324FF024
:10594400FF331C4803F0BEFA16F003070CD0C7F16E
:105954000407A74228BF2746294630463A4601F0A5
:10596400E5FC3E443D44E41B002724F0030847457E
:1059740007EB060013D16FF00303A20803FB0242F6
:10598400E9190AB101F0D2FC0B4AD2F80034DB0762
:10599400FBD5084803F076FA0020BDE8F081E95908
:1059A40001F0B4FC0437E2E76FF01500F5E7204698
:1059B400F3E700BFA8C001200090035001238340F7
:1059C40010B5DC430D4AD2E8EF1F01EA040CC2E82B
:1059D400EECFBEF1000FF6D14FF4803202FA00F0A0
:1059E40002F15022C2F80803BFF35F8FBFF36F8F39
:1059F4000B4214BF0120002010BD00BFBCC0012019
:105A04001949F8B5044622F07F450868C1E9002326
:105A1400A5F50013101AB3F5400F22D2134B1B68DF
:105A24001A0A1B065E19124B42F10007C3E900670C
:105A3400012603F0EBFEA30003F1502303F58033AA
:105A4400D3F84025AA420BD11EB94FF40002C3F883
:105A540040254FF48030074B00FA04F4C3F8444364
:105A6400F8BD0026E5E700BF80A50020C0C00120E6
:105A740068A5002000500150E1B101230E4A834083
:105A8400D2E8EF1F1943C2E8EC1FBCF1000FF7D1B5
:105A94004FF48033094A8340C2F80433084BD3E8F7
:105AA400AF3F23FA00F0C30742BF4FF40012054B87
:105AB400C3F80021704700BFBCC001200050015052
:105AC400B8C0012000E100E00D4B1868010A00068F
:105AD400BFF35F8F0B4BD3F80435181841F1000165
