:020000040100F9
:10000000480500217D200001D13C00015120000164
:10001000512000015120000151200001000000008A
:10002000000000000000000000000000C51B0001EF
:10003000512000010000000051200001512000016A
:10004000211C0001211C0001211C0001211C0001B8
:10005000211C0001211C0001211C0001211C0001A8
:10006000211C0001211C0001211C0001211C000198
:10007000211C0001211C0001211C0001211C000188
:10008000211C0001211C0001211C0001211C000178
:10009000211C0001211C0001211C0001211C000168
:1000A000211C0001211C0001211C0001211C000158
:1000B000211C0001211C00010000000000000000C4
:1000C0000000000000000000000000000000000030
:1000D0000000000000000000000000000000000020
:1000E0000000000000000000000000000000000010
:1000F0000000000000000000000000000000000000
:1001000000000000000000000000000000000000EF
:1001100000000000000000000000000000000000DF
:1001200000000000000000000000000000000000CF
:1001300000000000000000000000000000000000BF
:1001400000000000000000000000000000000000AF
:10015000000000000000000000000000000000009F
:10016000000000000000000000000000000000008F
:10017000000000000000000000000000000000007F
:10018000000000000000000000000000000000006F
:10019000000000000000000000000000000000005F
:1001A000000000000000000000000000000000004F
:1001B000000000000000000000000000000000003F
:1001C000000000000000000000000000000000002F
:1001D000000000000000000000000000000000001F
:1001E000000000000000000000000000000000000F
:1001F00000000000000000000000000000000000FF
:10020000DEE61E284CBBCE8F023500003C0000000D
:100210000C5200000100000000000001000000017D
:10022000FFFF02910000000000000000000000003D
:0C023000000000000000000000000000C2
:04023C00FFFFFFFFC2
:1002400053B94AB9002908BF00281CBF4FF0FF313D
:100250004FF0FF3000F00CB8ADF1080C6DE904CEA2
:1002600000F0D0F9DDF804E0DDE9022304B07047C6
:10027000704700BF30B44FF0000310F8014B11F885
:10028000015B013A84EA050443EA0403F5D1A3F1D2
:1002900001034FEAD37030BC704700BF4FF000033A
:1002A00010F8012B013943EA0203F9D1A3F101034C
:1002B0004FEAD370704700BF30B411F8014B12F809
:1002C000015B6C4000F8014B013BF6D130BC70473C
:1002D0002DE9F04F90E8F00F00F140004FF0040ED0
:1002E00059E0F0B4826BC36B046805252426875956
:1002F0003C444FEA724787EAF24787EA92273C4438
:1003000042684FEAF21787EAB24787EAD2073C44CD
:1003100040F8044B032D08BF6FF01B0687593A4481
:100320004FEA734787EAF34787EA93273A444368DB
:100330004FEAF31787EAB34787EAD3073A4440F80E
:10034000042B87593B444FEA744787EAF44787EA0E
:1003500094273B4444684FEAF41787EAB44787EA96
:10036000D4073B4440F8043B013DC0D1A0F13C0020
:10037000076A3C444FEA724787EAF24787EA9227C6
:100380003C4402684FEAF21787EAB24787EAD2078D
:100390003C44C463F0BC4FF0020288EA781C8CEA4B
:1003A000F84C0BEBBC1C8AEA090303EA080383EA56
:1003B0000A039C4450F8043B9C4451F8043B9C4481
:1003C000674444EA050B0BEA060B04EA05034BEA13
:1003D000030BE34484EAF42383EA34530BEBB30BBB
:1003E00087EA771C8CEAF74C0AEBBC1C89EA080305
:1003F00003EA070383EA09039C4450F8043B9C4446
:1004000051F8043B9C4466444BEA040A0AEA050A94
:100410000BEA04034AEA030AE2448BEAFB2383EA79
:100420003B530AEBB30A86EA761C8CEAF64C09EBDE
:10043000BC1C88EA070303EA060383EA08039C441A
:1004400050F8043B9C4451F8043B9C4465444AEA00
:100450000B0909EA04090AEA0B0349EA0309E14422
:100460008AEAFA2383EA3A5309EBB30985EA751C51
:100470008CEAF54C08EBBC1C87EA060303EA05038B
:1004800083EA07039C4450F8043B9C4451F8043B26
:100490009C44644449EA0A0808EA0B0809EA0A038A
:1004A00048EA0308E04489EAF92383EA395308EB70
:1004B000B30884EA741C8CEAF44C07EBBC1C86EA93
:1004C000050303EA040383EA06039C4450F8043B53
:1004D0009C4451F8043B9C44E34448EA090707EA7A
:1004E0000A0708EA090347EA0307674488EAF8238A
:1004F00083EA385307EBB3078BEA7B1C8CEAFB4C8F
:1005000006EBBC1C85EA040303EA0B0383EA05033C
:100510009C4450F8043B9C4451F8043B9C44E24406
:1005200047EA080606EA090607EA080346EA030658
:10053000664487EAF72383EA375306EBB3068AEA71
:100540007A1C8CEAFA4C05EBBC1C84EA0B0303EA28
:100550000A0383EA04039C4450F8043B9C4451F88A
:10056000043B9C44E14446EA070505EA080506EA1F
:10057000070345EA0305654486EAF62383EA365312
:1005800005EBB30589EA791C8CEAF94C04EBBC1C39
:100590008BEA0A0303EA090383EA0B039C4450F83D
:1005A000043B9C4451F8043B9C44E04445EA060467
:1005B00004EA070405EA060344EA0304644485EAFE
:1005C000F52383EA355304EBB304013A7FF4E5AE37
:1005D000A0F14000BEF1010E7FF483AEA0F1400C0B
:1005E0009CE80F00001949199219DB19ACE80F00BB
:1005F0009CE80F004044494452445B44ACE80F007F
:10060000BDE8F08F2DE9F04F07468C460846099E5D
:1006100015463C461946002B40F0C5808242B2FA8E
:1006200082F746D94FB1C7F1200E00FA07F3BD405B
:1006300024FA0EFEBC404EEA030C4FEA15481FFA9E
:1006400085FE220CBCFBF8F908FB19C309FB0EFA66
:1006500042EA03439A4528D9EB1809F1FF3004D246
:100660009A4502D9A9F102002B44A3EB0A03A4B2D4
:10067000B3FBF8F208FB123302FB0EFE44EA03441C
:10068000A64514D92C1902F1FF3303D2A64501D98E
:10069000931E2C44A4EB0E0443EA00401EB1FC4020
:1006A000002334607360BDE8F08F4846DDE71346F1
:1006B000F0E702B9FFDE87BB831A01214FEA154E2E
:1006C000AAB2200CB3FBFEFC0EFB1C330CFB02F8A1
:1006D00040EA0343984562D9EB180CF1FF3004D28D
:1006E000984502D9ACF102002B44A3EB0803A4B255
:1006F000B3FBFEFC0EFB1C330CFB02F244EA03448A
:10070000A2424ED92C190CF1FF3304D2A24202D9D5
:10071000ACF102032C44A41ABEE7C7F1200CBD4083
:1007200000FA07F320FA0CF84FEA154E24FA0CFCF5
:10073000BC404CEA0302ABB2B8FBFEFC110C0EFB52
:100740001C800CFB03F941EA0040814523D928189D
:100750000CF1FF3104D2814502D9ACF102012844E9
:10076000A0EB090092B2B0FBFEFC0EFB1C000CFBE0
:1007700003F842EA004398450FD9EB180CF1FF3219
:1007800004D2984502D9ACF102022B44A3EB080332
:1007900042EA014192E76146E2E76246F6E76046D7
:1007A000A3E76346B7E7834205D90EB1C6E90070F7
:1007B0000021084677E7B3FA83F181B9834201D378
:1007C000BA420AD8BC1A60EB030301209C46002EF3
:1007D00067D0C6E9004C002165E70846F7E7C1F19C
:1007E000200C8B4002FA01F522FA0CF420FA0CFBE3
:1007F00027FA0CF28F401C4300FA01F34FEA144928
:1008000013431FFA84FE1A0CBBFBF9F809FB18BB53
:1008100008FB0EFA42EA0B4292453ED9A21808F1B3
:10082000FF3004D2924502D9A8F102002244A2EB83
:100830000A029BB2B2FBF9F809FB182208FB0EFE74
:1008400043EA024296452AD9A21808F1FF3304D29E
:10085000964502D9A8F10203224443EA0040A2EBE4
:100860000E02A0FB05939A42CE46984602D306D1CB
:100870004F4504D20138B9EB050E63EB040886B18D
:10088000B7EB0E0362EB080707FA0CFCCB40CF4036
:100890004CEA0303C6E900379DE74046C7E74346F5
:1008A000DBE73146FFE600002DE9F04D0FF2D82BD3
:1008B000DBE900AB0027B2B0CDE900AB0FF2D02BE3
:1008C000DBE900AB1446CDE902AB0FF2CC2BDBE940
:1008D00000AB0546CDE904AB0FF2C42BDBE900AB5E
:1008E000CDE93072CDE906AB002A78D180273A21D4
:1008F00001200E236E46CDF881200DEB07080DF187
:1009000085028DF880700027022B176021D0032B01
:1009100057601ED0042B97601BD0052BD76018D0D2
:10092000062B176115D0072B576112D0082B976142
:100930000FD0092BD7610CD00A2B176209D00B2BD3
:10094000576206D00C2B976203D00E2BD76208BFDC
:100950001763B1EB830F00EB830012D0431C00221E
:1009600032A901443B2B01F8482C0AD032A90B4490
:1009700003F8482C392800F102031CBF5B1803F868
:10098000482C630F8DF8BB30630D8DF8BC30630BC2
:1009900041468DF8BD3030466309E4008DF8BE3025
:1009A0008DF8BF4003F008F8DDE90001DDE902231E
:1009B00006BA14BA18BA09BADDE9042312BA696092
:1009C0002A6119BADDE9062312BA1BBA2E60AC609F
:1009D000E8606961AA61EB6132B0BDE8F08D6E46F6
:1009E0003046884602F08AFF241A034608EB0401C9
:1009F000002800F0B880421E022A45D958F8042089
:100A000020928208012A3AD04868022A219036D0E2
:100A10008868032A229032D0C868042A23902ED0F6
:100A20000869052A24902AD04869062A259026D0EC
:100A30008869072A269022D0C869082A27901ED0E4
:100A4000086A092A28901AD0486A0A2A299016D0DA
:100A5000886A0B2A2A9012D0C86A0C2A2B900ED0D2
:100A6000086B0D2A2C900AD0486B0E2A2D9006D0C8
:100A70000F2A886B18BFCA6B2E9018BF2F9223F0D5
:100A80000307BB42394414D0087832AA3A4402F82A
:100A9000480C7A1C93420CD932A802440237487899
:100AA000BB4202F8480C04D98A7832A90F4407F8EF
:100AB000482C8021581C32AA1A443828309302F856
:100AC000481C5AD93F282DD8002232A908443E2B71
:100AD00003F1020100F8482C24D032A801443D2B38
:100AE00001F8482C03F103011CD001443C2B01F810
:100AF000482C03F1040115D001443B2B01F8482C8C
:100B000003F105010ED001443A2B01F8482C03F102
:100B1000060107D003463E290B4403F8482C01D1B7
:100B20008DF8BF200DF180084146304602F044FFA9
:100B30003A28319C3FF625AF431C3B2BC0F13A02CB
:100B4000C0F13B0188BF0121022A7FF608AF0023D4
:100B500000F18002B3508B083244012B02F10402F1
:100B60007FF4D1AEF5E6802230903A210120319C0D
:100B70000DEB02088DF88020E9E7319C0DF180082B
:100B8000DAE700BFAFF3008067E6096A85AE67BBAE
:100B900072F36E3C3AF54FA57F520E518C68059B5F
:100BA000ABD9831F19CDE05B2DE9F04385B0324806
:100BB00003F04BFA28B9314805B0BDE8F04302F024
:100BC00048BF4FF408414FF0807003F097F938B1F7
:100BD0002B4802F03EFF05B0BDE8F04302F0C6B975
:100BE00002F08CF9054602F0C9F9E8B903F0FEF904
:100BF00004460146284603F0ABF910B921462148C6
:100C000005E01D4802F0CCF9014618B11E4802F07B
:100C100020FFE0E72946284603F09AF910B102F0D8
:100C2000FBF9FEE72946EAE74FF45E31174803F087
:100C300065F9014608B11648E9E70446DFF8549023
:100C4000DFF8548001AF59F8046B98E807002E4490
:100C500087E807000C223946304603F050F800B907
:100C60001EB90134052CEED10026304605B0BDE892
:100C7000F04301F0EDBF00BFC44000011844000183
:100C8000304400015E4400018844000100880001F6
:100C9000A7440001584200011042000138B54468E1
:100CA000054604F00304032C816002D02CB100201F
:100CB00000E0006800236B6038BD45220449054808
:100CC00002F099FF4521024802F08EFFEFE700BFD6
:100CD000C9440001EC440001014B1B68184700BFE8
:100CE0000000002107B50B46002102460091034891
:100CF00000F0E4F903B05DF804FB00BFD90C00017B
:100D00002DE9F74FB0F81880044618F0080F924606
:100D10000ED001290CBF48F0100848F02008A0F8B8
:100D200018808AF31188BFF36F8F03B0BDE8F08F8E
:100D3000B04FDFF8C49208F00708022906D1204618
:100D400002F094FE0028ECD0012861D1D4F814B050
:100D5000228BBBF1000F17DA0026256822F007026C
:100D6000C4E9006642F001022283218B01F00702F0
:100D7000424503D0A068002840F0EE8015B9002E4F
:100D800000F005810020E8E002F00701481F01287B
:100D900020D8002022F007020629256892B2C4E973
:100DA00000000AD13DB12846618B0068013189B24B
:100DB0000028FAD1618342F002022046228302F029
:100DC00055FE06460028D0D0228B42F02002228316
:100DD0000026CAE704290DD122F0070292B220466C
:100DE000228302F043FE054680B142F02002002536
:100DF0002283EDE740F21B123946484602F0FBFE23
:100E000040F21B11384602F0EFFE00252E46ACE7FB
:100E1000032831D1B8F1000F0AD0394648464FF4C3
:100E2000AB7202F0E8FE4FF4AB71384602F0DCFE24
:100E3000236853B93946484640F2571202F0DBFEA8
:100E400040F25711384602F0CFFE23691E6856B9AA
:100E5000394648464FF4AD7202F0CDFE4FF4AD7105
:100E6000384602F0C1FE238B23F0070343F006034C
:100E700000252383AB4678E704282ED1B8F1020F72
:100E80000AD03946484640F25D1202F0B4FE40F204
:100E90005D11384602F0A8FE638B53B139464846CF
:100EA0004FF4AF7202F0A7FE4FF4AF71384602F074
:100EB0009BFE23695E6856B93946484640F2611286
:100EC00002F099FE40F26111384602F08DFE238B4C
:100ED00023F0070343F00403CAE705282ED1B8F135
:100EE000010F0AD0394648464FF4B27202F083FE31
:100EF0004FF4B271384602F077FE236853B9394691
:100F0000484640F2651202F076FE40F2651138461E
:100F100002F06AFE23699E6856B9394648464FF486
:100F2000B47202F068FE4FF4B471384602F05CFE11
:100F3000238B23F0070343F0050399E7002540F2D4
:100F40006B123946484602F056FE40F26B113846A5
:100F500002F04AFE2E468DE7012041F00801218370
:100F60008AF31188BFF36F8F00BB002D31D116B10A
:100F700020462249B0474FF02003EFF3118A83F354
:100F80001288BFF36F8F238B23F008032383238BF7
:100F9000DA0627D5012123F010032383B4F8188043
:100FA00008F0070800297FF4C8AEBAE6A168002956
:100FB000DBD0D1F800805B462046D1F804A0019236
:100FC000D047019AB8F1000FCFD04146D8F8008041
:100FD000F1E729465B46204601922D6802F062FD4A
:100FE000019AC2E713F020011EBF23F02003022163
:100FF0002383D3E704450001EC440001D13A00010A
:101000002DE9F04104460F4602F070FD051E32DB6B
:101010004FF02003EFF3118883F31288BFF36F8F33
:101020004FF6FF71638B228B8B4202F007063AD09A
:10103000022E0FD1013363833546012388F31188D3
:10104000BFF36F8FBBB1002332463946204602F012
:1010500029FD10E0930701D0062E0FD100233B603D
:101060006368EBB9C4E900773546F6B94246022118
:101070002046FFF745FE2846BDE8F081052E16D034
:10108000012E0AD00B490C484FF4E47202F0B3FD74
:101090004FF4E471074802F0A7FD6FF0040504E087
:1010A0001F606760E0E76FF00A050023C6E76FF096
:1010B0008505FAE704450001EC4400012DE9F04FF5
:1010C0008B4692461C46002591B002909AF800008B
:1010D00008B9284663E325280AF1010707D05946D5
:1010E000029B98470028C0F25A83013512E2182269
:1010F00000210AA802F01FFE9AF80130252B78D0B3
:1011000000221046964694461646394617F8013B8B
:101110002B2B00F09D8000F29480202B00F09B8010
:10112000232B00F09B802EB19DF8306046F0040622
:101130008DF83060BCF1000F05D09DF8306046F0AE
:1011400008068DF83060BEF1000F05D09DF83060C4
:1011500046F010068DF8306028B19DF8300040F060
:1011600020008DF830002AB19DF8302042F0400276
:101170008DF830209DF8302002F04400442803D13F
:101180006FF386128DF830209DF830202A2B42F024
:1011900080028DF830207BD19DF831204B1C42F02D
:1011A00001028DF831201A782E2A0CBF012100216E
:1011B0009DF8312061F341028DF8312074D15A78C5
:1011C0002A2A6AD000210A260133184610F8012B7A
:1011D000A2F13007092F40F28E809DF830200E9149
:1011E000C2F3400040EAD17161F341028DF8302032
:1011F0005AE00AF102078DF833309DF83130D907F3
:1012000040F1498154F8049BB9F1000F07DA9DF8C9
:101210003020C9F1000942F004028DF830205A074D
:1012200040F1428154F8048BB8F1000F80F2418103
:101230009DF831306FF341038DF831304FF0FF38B6
:1012400037E12D2B0CD0302B7FF46DAF01225CE702
:101250004FF0010C59E74FF0010E56E7012054E71B
:10126000012652E733460CFB0202303A1E4616F8BE
:10127000010BA0F13007092FF4D9994293D09DF8C2
:1012800030100D92D20F62F341018DF830108AE7D1
:101290000B4600224FF00A0CE8E79DF8312002339C
:1012A00042F004028DF831201F4617F8012B6C2AFA
:1012B00041D025D8682A2BD06A2A46D04C2A4CD057
:1012C0001F4617F8012B9DF83130782A8DF833200E
:1012D00000F2D980572A4DD8412A03D0453A022A34
:1012E00000F2D18004229DF8323062F302038DF8BF
:1012F000323001239EE006FB01210346303964E7CA
:10130000742A26D07A2ADBD106229DF831300DE0EE
:101310005A78682A9DF8312006D1012161F3C6026E
:101320008DF831209F1CCCE71346022262F3C603DE
:101330008DF83130C5E75A786C2A9DF8312001D1FB
:101340000421EBE713460322F0E705229DF8313034
:10135000ECE707229DF83130E8E7BDF8303023F4A0
:10136000F04323F0020343F4804343F00203ADF85B
:101370003030A6E7A2F15801202900F2848001A0B4
:1013800050F821F04914000187140001871400016E
:1013900087140001871400018714000187140001DD
:1013A0008714000187140001E51200018714000171
:1013B0004914000109140001E5120001E5120001C1
:1013C000E5120001871400010914000187140001CF
:1013D00087140001871400018714000151140001D3
:1013E000491400016D1400018714000187140001E5
:1013F0006D140001871400014914000187140001D5
:10140000871400014914000101209DF8321003F0F7
:10141000780360F30201402B8DF8321002BF9DF873
:10142000301041F001018DF83010632A31D1003BBA
:1014300018BF01239DF83020C2F340010B4363F332
:1014400041028DF83020D8E602209DF83210DEE708
:1014500003219DF8322003F07803A3F1400061F3EB
:10146000020243428DF832204341E3E703219DF815
:10147000322013F0780F61F3020214BF012300231E
:101480008DF83220D6E79DF8303043F001038DF817
:1014900030300023CEE79DF93020002AACBF4FF05A
:1014A000FF39DDF83490BAE69B077FF5C7AEDDF86B
:1014B00038800023CDE90D339DF832309DF831108E
:1014C00003F00703012BC1F3C30135D1CB1E042B5D
:1014D00022D8DFE803F003090921210054F8043B76
:1014E000DA17CDE90A3206E0073424F00704F4E8FD
:1014F0000223CDE90A239DF8303013F0030659D0BA
:101500003B4652465946029802F058FB0028C0F26A
:1015100046810544BA46D9E554F8043B01294FEA0F
:10152000E372CDE90A3202D19DF92830D8E70229C9
:10153000E1D1BDF92830D3E7022B29D1CB1E042BF2
:1015400013D8DFE803F0030A0A121200002322680E
:10155000201D0A920B930446CDE7E01D20F0070002
:10156000F0E80223CDE90A23F5E754F8043B01290A
:101570000A934FF000030B9305D19DF828300A938E
:1015800000230B93B7E70229B5D1BDF82830F6E761
:10159000042B09D1E31D23F0070303F10804D3E969
:1015A0000023CDE90A23A6E7032B04BF54F8043B2C
:1015B0000A93A0E79DF833007828ABD8622822D898
:1015C00025283FF48CAD5828A4D1DDE90A010DF19E
:1015D000260300930CAA04AB02F0AAFA8246B8F1E3
:1015E000000F0DF126000CDB9DF83020A0EB0A0364
:1015F0006FF3861298458DF8302002D9A8EB0303CB
:101600000D9380463EE06338152883D801A252F836
:1016100020F000BF95160001F91600011515000114
:10162000151500011515000115150001F916000129
:1016300015150001151500011515000115150001FE
:10164000531700012117000125170001151500018E
:10165000151500016D160001151500012117000177
:10166000151500011515000121170001B8F1000F33
:10167000DDF828A00ADB4146504602F037FB002681
:101680000AEB0008BAF1000F0CD143E7504602F014
:1016900026FBF4E700260A9B0DF1100A8DF81030A6
:1016A0000DF11108A8EB0A0306B101339DF83220B1
:1016B000D00668D5023352060D9948BF0E9A0B44E6
:1016C00048BF9B18B9F1000F76DD9DF83020A9EBDB
:1016D0000309C2F38003039353076DD4500661D509
:1016E00046B159463046029B9847002857DB039B7A
:1016F00001351E46302356E01E070FD413F01006A6
:1017000018BF2026DDE90A23002BBFF65EAF524248
:1017100063EB43032D26CDE90A2356E72B26F1E799
:10172000002652E70A9840B30DF1260300930021EA
:1017300004AB0CAA02F0FCF9BDF83230824603F08B
:10174000EF0343F4F04343F010030026ADF83230CA
:1017500045E70A9B07293FF6DDAEDFE801F00C0400
:10176000060C08080C0C1D70D4E61D80D2E6EA17A2
:10177000C3E90052CEE61D60CCE6DFF8C8A00646FD
:101780000AF105088EE7110748BF013393E71846B1
:1017900003935946029B98470028039B04DA11B033
:1017A000BDE8F08F20234D444A46002AA5EB0901ED
:1017B00009F1FF39EBDC0D4636B159463046029B44
:1017C00098470028EBDB01359DF83230D90601D46B
:1017D0001A0706D559463020029B98470028DEDBC1
:1017E00001359DF83230DB0607D559469DF83300A8
:1017F000029B98470028D2DB01350D9E2E44731BB7
:10180000002B16DC434652465946029802F0D6F9A0
:101810000028C4DB0544A944A9EB0503002B7FF78E
:1018200079AE59462020029B98470028B7DB013546
:10183000F2E759463020029B98470028AFDB01357C
:10184000DDE700BF264500014FF02002EFF31183D2
:1018500082F31288BFF36F8F0121044AC2F840154A
:1018600083F31188BFF36F8F002070470000084199
:1018700020B1034B800143F001031847704700BFBC
:101880005042000101F098BC42680B6810B59342C9
:101890000C4606D90548452102F0BBF900206060DE
:1018A00010BD4B68012013444B60F9E7304500013F
:1018B00030B5054685B0C06801AA02F0ECFA0446CE
:1018C00038B1452102460C4802F0A3F9204605B084
:1018D00030BD01992B6A8B42F8D0E868029A836880
:1018E0009B689847044618B1024645210348EBE738
:1018F000019B2B62EAE700BF554500017B450001D3
:10190000F8B58568044675B1D0E90436013D1E443A
:10191000A919FFF7CDFF051E07DA33462A464521F0
:101920002C4802F076F92846F8BDE06802F07EF90E
:10193000A568B5FBF0F300FB13555DB1451BE068EE
:101940008368DB6898472768A36801792A46F818F6
:1019500002F0F1F9A368E06822682B4481684D68C1
:101960003146A847054620B10246334645211A486C
:10197000D7E7E369E3B92369A2681344236100232D
:10198000A360D0E7535CDB4353540131A368226862
:101990008B42F7D8E06881680F683146B847074640
:1019A00040B1024645210D4802F033F93D46BAE701
:1019B0000146EBE73246E369A1682068984706468E
:1019C0000028D8D002464521054802F022F93546C4
:1019D000A9E700BF9C450001CF450001F845000183
:1019E000134600012DE9F7430D46DDE90A869146CD
:1019F0001F46044620B96FF00D0003B0BDE8F08328
:101A00000029F8D0002AF6D000930023084601935D
:101A100002F00CF9B7FBF0F303FB107020B1452185
:101A2000174802F0F6F8E6E76A462846154902F03C
:101A300036FA019B002BDED006EB0802934202D25D
:101A400045211148EDE7284602F0F0F8B8FBF0F325
:101A500003FB10800028F3D1C4E90097E560206102
:101A6000A060C4F8148016B9019EA6EB08060C9B72
:101A70000020E3614FF0FF33A6612362BDE700BFA2
:101A80002C46000189180001684600010149102216
:101A90000A60704710ED00E072B6494081F311888A
:101AA00020BF80F3118862B6704700BF37B5054686
:101AB0000C46C9B18B6810480093D1E90023452139
:101AC00002F0A7F8636945210093D4E903230B488A
:101AD00002F09FF84521E269094802F09AF8452191
:101AE000A269084802F095F82146284603B0BDE8EF
:101AF000304001F09BBD00BF8E460001C246000190
:101B0000F64600010A47000143B2002B08DB012220
:101B100000F01F0002FA00F0024A5B0942F82300BD
:101B2000704700BF00E100E0054B420953F8222056
:101B3000012300F01F0003FA00F01040704700BFBF
:101B400000E100E038B54C1C072C054608D90D49CA
:101B50000D485B2202F04FF85B210A4802F044F87E
:101B60006BB2002BACBF03F16043084B4FEA441447
:101B7000E4B2ABBF03F5614305F00F0583F8004302
:101B80005C5538BD3D470001EC44000114ED00E018
:101B900030BFFFF7FDBF00BF08B5084B084A23F070
:101BA0007F039360BFF34F8FBFF36F8F01F0A2FDF0
:101BB00001F0E2FD00F056FA01F0A8FD000000017E
:101BC00000ED00E01EF0040F0CBFEFF30880EFF310
:101BD0000980816911F8021C0229FFD001B502F0C9
:101BE0006FF801BD0446084611461A46002383F3E8
:101BF0000B880A4B2025A3F5806686F30B8883F3B8
:101C0000098863B64FF0000383F31188BFF36F8F29
:101C1000A04785F31188BFF36F8FFEE748050021C9
:101C200001B5EFF30580A0F110004FEAC0000449B0
:101C3000014409C99847BDE801400249084700002E
:101C4000DC400001491C0001704700BF38B5214C41
:101C50004521214801F0DDFFA36A9D0103D54521FF
:101C60001E4801F0D6FFA36ADC0103D545211C48BC
:101C700001F0CFFF174DAC6A14F4801404D0452155
:101C8000184801F0C6FF0224AB6A180303D54521AA
:101C9000154801F0BEFF0F4DAB6A590303D545212E
:101CA000124801F0B6FFAB6A9A0303D545211048EC
:101CB00001F0AFFF074DAB6ADB0303D545210D48AB
:101CC00001F0A7FFAB6A20466FEA03436FEA1343B4
:101CD000AB6238BD00ED00E07347000190470001A2
:101CE000A8470001C7470001F64700011948000155
:101CF000434800016248000170B5204C06460D467D
:101D00001F48452101F085FFA36ADB0403D5452167
:101D10001C4801F07EFFA36A1C0503D545211A4823
:101D200001F077FF154CA36A980510D54521174897
:101D300001F06FFFA26BA36A190408D5452114486E
:101D400001F067FF1EB1A36A23F40043A3620B4CAA
:101D5000A36A5A0503D545210E4801F05AFFA36A2C
:101D6000DB0503D545210C4801F053FF0020034A51
:101D7000936A43F47F439362287070BD00ED00E0E6
:101D800092480001AD480001C3480001DB48000152
:101D9000F9480001134900013349000170B5274C8F
:101DA00006460D462648452101F033FFA36AD806B2
:101DB00003D54521234801F02CFFA36A190703D559
:101DC0004521214801F025FF1C4CA36A9A0710D534
:101DD00045211E4801F01DFF626BA36A1B0608D552
:101DE00045211B4801F015FF1EB1A36A23F08003B3
:101DF000A362124CA36AD80703D54521154801F008
:101E000008FFA36AD90602D4A36A9A070ED50B4B22
:101E10009B6ADB060AD51049104840F2591201F0BE
:101E2000EAFE40F259110C4801F0DEFE0020034AA0
:101E3000936A43F0FF039362287070BD00ED00E0E9
:101E4000504900016B490001C3480001A34900014A
:101E5000C0490001DB490001FF490001EC440001D9
:101E60002DE9F041674B0026D3F804808AB0C8F30F
:101E7000080786F31188BFF36F8F02F07F43B3F139
:101E80007F4F07D102F00C03082B10D145215E488B
:101E900001F0BFFE40F205425C495D4801F0ABFE37
:101EA00040F20541594801F09FFE002506E0130766
:101EB0004EBF0D4605460126002DEBD00024FB1E2B
:101EC0008DF80740092B00F28A80DFE803F0057DDA
:101ED00081658888888888854A4F45214D4801F06A
:101EE00098FE8DF80740FC6A14F0020405D04521E5
:101EF000494801F08EFE002406E0FB6A002B1DDA43
:101F00004521464801F085FE9DF807309BB9202207
:101F1000294602A801F004FF099B002E6CD0C3F3F0
:101F2000080222B96FEA53236FEA4323099320463C
:101F300002A9FFF7BBFD0AB0BDE8F081FC6A14F00E
:101F4000804438D04521364801F063FEAB6933F850
:101F5000022C4DF602739A4206D145212A68314877
:101F600001F057FE2C68CFE7BB6ADBB233B101202A
:101F70000DF10701FFF712FF0446C5E7BB6A13F432
:101F80007F4F05D001200DF10701FFF7B5FEF3E704
:101F9000BC6A240C240414B1FFF758FEECE71B497B
:101FA00040F2D7221A4801F026FE40F2D721174806
:101FB00001F01AFEA8E7154940F2DB22144801F0AF
:101FC0001AFE40F2DB21F2E700200DF10701D1E714
:101FD00000200DF10701D8E74521134889E713498F
:101FE00018F4F87F124A134808BF0A46A7F11003F5
:101FF000452101F00EFE7EE723F4FF7323F0010379
:1020000094E700BF00ED00E0674A0001FF490001CE
:10201000EC440001974A0001B34A0001D94A00018B
:10202000EC4A0001104B0001314B0001394A00011C
:102030004E4A00015A4B0001044B5A6942F010020B
:102040005A615A6942F480625A61704700ED00E0BB
:10205000EFF30880EFF3098101B57246FFF700FF47
:1020600001BD00BF002320210348C21801331E2BED
:1020700082F80013F9D1704700E100E0002080F3FE
:102080001488BFF36F8F002080F30A8880F30B88D9
:10209000FFF7F8FB00200E490860BFF34F8F0D4893
:1020A00080F3088800F03EF8202080F311880A4869
:1020B0004FF40061401880F30988EFF31480022187
:1020C000084380F31488BFF36F8FFFF765FD0000AE
:1020D00094ED00E04805002148050021BFF34F8F33
:1020E0000549064BCA6802F4E0621343CB60BFF3B4
:1020F0004F8F00BFFDE700BF00ED00E00400FA05D0
:10210000002318460649D1F89020C2F307229342D3
:1021100000D17047C1F89830C1F8A0000133F6E74C
:1021200000ED00E010B572B6002484F31388FFF7C9
:10213000E7FF23464FF0FF300B4A03F12001013344
:10214000102B42F82100F8D100234FF0FF3003F1AB
:1021500060010133102B42F82100F8D162B6BFF3C1
:102160004F8FBFF36F8F10BD00E100E0402373B5C8
:102170000B4C0093041B0B460D460A49A410614307
:102180000646094A094801F0F2FD011E05DA30460B
:102190002B4602B0BDE87040184702B070BD00BFCA
:1021A000C8000021B76DDBB6E33D0001AC40000183
:1021B00038B5CCB2012C054608D90849084879221F
:1021C00001F019FD7921054801F00EFD0C23296964
:1021D00004FB0314206C00F0070038BD724B0001B3
:1021E000EC440001F8B5CCB2012C0546174606694F
:1021F0000AD91849184840F24D1201F0FCFC40F28F
:102200004D11144801F0F0FC4FF02003EFF3118161
:1022100083F31288BFF36F8F0C2202FB04631B6CE5
:1022200013F0C00301D09F4211D10123002002FB13
:102230000466336481F31188BFF36F8F30B90C23C8
:10224000696803FB0414636898470020F8BD4FF0E9
:10225000FF30EFE7724B0001EC440001084B70B512
:10226000C31A0D4607499B100446594340220648AD
:10227000FFF7B8FF2B4601462046BDE870401847DF
:10228000C8000021B76DDBB6AC40000170B500227C
:10229000012104460520FFF755FC0F4801F03CF8EA
:1022A0000E4B984215D101F059F826690C49304679
:1022B00001F02BFC00280BDB01252469084935645B
:1022C00004F11C0001F021FC002801DB0020E56482
:1022D00070BD6FF00400FBE7192300010000AD0B97
:1022E000A042000101460C2300224B43084870B570
:1022F000C4184033D4E90E561844A26301F024FDFB
:102300002DB132462B46BDE870400248184770BDDB
:10231000C8000021AC400001012808B506D0032800
:1023200008D0A0B90F4B1B6C5B0719D1BDE8084062
:10233000FFF7D8BF0C4940F25E220C4801F05BFC6D
:1023400040F25E21BDE80840074801F04DBC064957
:1023500040F26222054801F04EFC40F26221F1E7B2
:1023600008BD00BFC8000021724B0001EC44000111
:1023700008B54FF02003EFF3118183F31288BFF308
:102380006F8F114A136843F0020013F001031060CD
:102390000BD00E4AD2F80C34D2F80C2413F00103FF
:1023A00003D00B4801F0D0FC012381F31188BFF367
:1023B0006F8F23B1BDE808400020FFF793BF0120D5
:1023C000BDE8084000F0F0BF1801002100500041B6
:1023D00008010021074BD3E8EF2F22F00201C3E8E8
:1023E000E01F0028F7D1D30702D4012001F03EB846
:1023F000704700BF180100212DE9F0410122074676
:102400003F49D1E8EF3FC1E8E02F0028F9D19BB95F
:102410003C493D484B60CB608A60FEF7F1FD0028E7
:102420000ADA3A493A484FF4087201F0E4FB4FF4F3
:102430000871364801F0D8FB87B37B1E012B4CD8BE
:10244000012F06D1334BD3F81C3403F00303022BC6
:1024500024D001F008FE054618B92F4B1B78002B3D
:1024600048D14FF02003EFF3118683F31288BFF3B6
:102470006F8F0125274CDFF8A480D4F81834D4F8E6
:102480001824D2030CD503F00303022B01D0012F33
:1024900006D1F5B186F31188BFF36F8FBDE8F081E7
:1024A0003046FFF7F9FAD4F81835DBB2012BE4D146
:1024B000D4F80421002AE0D00022C4F80421D4F882
:1024C00004210222C4F818252022C8F88021A36024
:1024D000D3E70223C4F80433E0E70C490C4840F288
:1024E000322201F088FBBDE8F04140F2322107487A
:1024F00001F07ABB0222074B0646C3F80823B9E76E
:102500001C010021B8000021E4000021724B0001F1
:10251000EC440001005000414401002100E100E0D2
:10252000024B0B6001231360704700BF20010021A4
:1025300000487047C042000110B501F083FD034C14
:10254000206001F07CFD6060002010BD20010021B2
:1025500070B50C46154601F072FD29460646204628
:1025600001F051FC08B3B4FBF6F306FB134323B9A7
:10257000B5FBF6F006FB105040B12B462246452134
:102580000C4801F046FB6FF015000DE0AE420BD891
:1025900001F055FD064604F18074204600F0C2FFAC
:1025A000AD1B3444F9D1284670BD2B462246452147
:1025B0000148E6E7D84B0001FC4B0001F8B50D4699
:1025C0001946284617461C4601F01DFC58B105F176
:1025D000807545EA040616F003060DD023462A4608
:1025E0004521104803E023462A4645210E4801F0C4
:1025F00010FB6FF01500F8BD8CB124F00304A64267
:1026000005EB060006D1094AD2F80034DB07FBD5FA
:102610000020F0E7B95900F0B7FF0436EFE7204695
:10262000E9E700BF1E4C0001FC4B0001000008411F
:1026300070B50D461946284616461C4601F0E3FBC8
:1026400040B184B12246304605F1807101F068FB4B
:10265000002007E0054823462A46452101F0D9FA23
:102660006FF0150070BD2046FCE700BFFC4B000179
:102670000123834010B5DC430C4AD2E8EF1F01EA86
:10268000040CC2E8EECFBEF1000FF6D14FF4803259
:1026900002FA00F0064AC2F80803BFF35F8FBFF3E7
:1026A0006F8F0B4214BF0120002010BD2C010021B0
:1026B00000600141E1B101230E4A8340D2E8EF1FDF
:1026C0001943C2E8EC1FBCF1000FF7D14FF480337F
:1026D000094A8340C2F80433084BD3E8AF3F23FADA
:1026E00000F0C30742BF4FF48002054BC3F800213E
:1026F000704700BF2C01002100600141280100212A
:1027000000E100E00D4B1868010A0006BFF35F8F7F
:102710000B4BD3F80435181841F10001B3F5801FB5
:102720000AD2084BD3E90023904271EB030303D292
:1027300010F1807041F10001704700BF30010021AD
:1027400000600141180000212DE9F04F85B01646C8
:1027500098460546FFF78CFF0090FFF7D3FFB04285
:1027600071EB080376D2434B301A68EB01019842B3
:1027700071F100037BD2404B03EB0513D3E902ABAD
:10278000D84508BF564550D04FF4803326F07F42DD
:1027900014464FEA850905F1500709F18249BF0047
:1027A000AB4009F5B039BFB207F182470193D9F8C0
:1027B0004005324B07F5B037D3F80415401A20F026
:1027C0007F4021F07F4C0128C9F840C507D1CDE9F1
:1027D0000221132001F04DFCDDE90221274B01F11C
:1027E000020CA4EB0C0020F07F40B0F5000F88BF76
:1027F00064460020386038680198C3F8440324F028
:102800007F40C9F84005D3F80405814206D0201A5C
:10281000023820F07F40B0F5000F19D8A41A24F038
:102820007F4414EB060A48F1000B002412490E986D
:102830002B0101EB0512C850C2E902AB0F9B53609C
:1028400028460099FFF736FF204605B0BDE8F08F17
:102850002046B1E701230A4AAB40D2E8EF1F1943F3
:10286000C2E8E01F0028F8D1B246C346DDE76FF0AA
:102870001504E5E70100000120000021006001418E
:102880002801002173B500244FF0FF304FF0FF31D5
:10289000174D184BC5F80845C3E902014FF48033C2
:1028A00002264FF48002C5F80433134B0121C5F80A
:1028B00004631620C3F880212246FFF743F916204F
:1028C000FFF722F901230D4AAB602B601360D5F8A6
:1028D00004250B4B02F58072009320462346019499
:1028E000FFF732FF3046FFF787FD204602B070BD8C
:1028F000006001412000002100E100E02C010021E6
:10290000052900012DE9F74329490546D1E9000CC5
:10291000141A22F07F4624F0FF0263EB0C07121812
:102920004CEB0703C1E90023A6F50011B1F5400FF8
:102930003AD220490968080A090611EB06081E491F
:1029400040F10009C1E900894FF00108002101911F
:102950001A4912F5807243F1000300912846FFF7EF
:10296000F3FEB4F5807F77F100032CBF0120002037
:1029700000F05EFFAB0003F1824303F5B033D3F800
:10298000402596420DD1B8F1000F03D14FF400025B
:10299000C3F840254FF48030094B00FA05F5C3F821
:1029A000445303B0BDE8F0834FF00008CEE700BF0A
:1029B000300000213001002118000021052900010C
:1029C00000600141354B2DE9F743D3F8042391070B
:1029D0000BD5D3F8042142B10022C3F80421304AB8
:1029E000D3F804311368013313604FF02003EFF381
:1029F000118183F31288BFF36F8F284BD3F8042320
:102A0000D2030ED5274AD2E8EF0F20F00104C2E826
:102A1000E54F002DF7D1002837D1D3F84021002A07
:102A200033D1002381F31188BFF36F8F53B3FFF7C6
:102A300069FE4FF02003EFF3118783F31288BFF391
:102A40006F8F194BD3E90245A04271EB05024FF09D
:102A5000000221D3D3E900164FF0FF384FF0FF39C1
:102A60001A604FF48032C3E902890C4BC3F8482343
:102A700087F31188BFF36F8F21B122462B460020C8
:102A80000096884703B0BDE8F0830022C3F84021D8
:102A9000D3F840310123C5E71146E9E70060014161
:102AA00030010021280100212000002130B5002440
:102AB0000B4A0C4D136805EB0311D1F80818C9B285
:102AC00021B904B113600360002008E00133072B33
:102AD0004FF00104EFD903606FF01B00136030BDAD
:102AE00034010021000008414F4B2DE9F743D3F892
:102AF00020320646B3F5006F0D46904608D04B498C
:102B00004B48212201F077F82121484801F06CF868
:102B100001A8FFF7CBFF044600287BD1424BD3F836
:102B20002012B6FBF1F201FB1262002A76D1D3F833
:102B30002012B5FBF1F201FB1252002A6ED1D3F83C
:102B40002022D3F824325343AB4267D3002D65D003
:102B5000019F072F08D937493548772201F04BF8F4
:102B60007721344801F040F8DFF8BC90D9F82022F2
:102B7000B6FBF2F302FB136343B12E492C487822D3
:102B800001F039F878212B4801F02EF8D9F82032DD
:102B9000D9F8242253439D4208D926492448792252
:102BA00001F029F87921234801F01EF81E4BD3F8D3
:102BB0002022B5FBF2F302FB135343B11D491C481D
:102BC0007B2201F018F87B211A4801F00DF83F0133
:102BD00007F1824303F50023C3F80068C3F80458E3
:102BE000154B1F44C7F80888019A120102F182416F
:102BF00001F50021D1F80008864212D1D1F804185D
:102C00008D420ED11344D3F80838DBB2984518BF73
:102C10006FF00D04204603B0BDE8F0836FF015049B
:102C2000F8E76FF00D04F5E70000FF01654C0001C7
:102C3000EC440001914C000100000841034845218B
:102C400008B500F0E6FF0020FFF748FAC34C00018A
:102C500038B504468169284800F0FBFE4FF0FF318B
:102C6000264BC3F80813BFF36F8F72B60023244AB4
:102C700003F120000133102B42F82010F8D100237B
:102C80004FF0FF3003F160010133102B42F82100B7
:102C9000F8D14FF0E02300221A61D3F8042D03F598
:102CA000506342F000725A605A6A22F4E0225A627B
:102CB000EFF31482920707D5EFF3148222F0020299
:102CC00082F31488BFF36F8FBFF34F8FBFF36F8F03
:102CD000A569012120469D6000F0F8F958B1002354
:102CE00083F30B8883F30A882A6882F3088883F3C6
:102CF00009886B68984738BDE54C000100500041D9
:102D000000E100E01FB50446074A01AB07CA83E8AB
:102D100007000C221946204600F0F1FF00280CBFE6
:102D20002046002004B010BD1C42000170B50546CD
:102D30000024054E56F8040B2844FFF7E3FF10B9B2
:102D40000134052CF6D170BDC84200012DE9FF47C2
:102D5000804610460E4615461C46D2F80C90176960
:102D6000FFF7D0FF48B924B10024204604B0BDE8E5
:102D7000F087524800F06DFEF7E7AB69434503D09A
:102D8000002CF1D14E48F5E71CB9B34201D04D48B3
:102D9000F0E73046FFF7CAFF854203D0002CE3D1AD
:102DA0004948E7E7296A494B994205D0002CDBD115
:102DB000474800F04EFED8E7D5F814A001F013F90B
:102DC000C0F34F0082450BD2002CCDD16D6901F0CC
:102DD0000AF92946C0F34F023E4800F03AFEC4E724
:102DE00015EB090915D2BB1913D2B54211D39D4277
:102DF0000FD209F1FF394E450BD84B4509D917EBD6
:102E0000080702D2EB69434507D2002CACD1324807
:102E1000B0E7002CA8D13148ACE7BB42F5D2321D57
:102E2000A2EB0802D358984503D9002C9CD12C481A
:102E3000A0E79F42F9D92F69DFF8A890374407F13E
:102E4000050A0DF10408574503D1002C8CD1264802
:102E500090E799E8070088E807000C2241463846C9
:102E600000F04DFF00B90FB90137ECE7FA68AB6924
:102E70009A4204D0002C7FF477AF1C487AE72D6982
:102E800001F043F8014620B1002C7FF46DAF1848E3
:102E90008FE72946304607F1100201F03DF8014660
:102EA00020B1002C7FF460AF124882E7002C7FF441
:102EB0005CAF114800F0CDFD012456E7F74C00014E
:102EC000174D00014A4D0001774D0001FFFF0291AF
:102ED000A04D0001C74D0001344E0001074E000116
:102EE000604E0001284200018D4E0001BE4E0001DF
:102EF000F14E0001114F00013D4F0001024B1868D7
:102F0000BFF34F8F704700BF00860001024B9868E7
:102F1000BFF34F8F704700BF0086000170B5FFF709
:102F2000F5FF1423584310490144084601F01EF8E8
:102F3000012802D00024204670BD00260C1D02315D
:102F4000084601F013F88642F4D2A01C01F00EF8F6
:102F50000546204601F00AF80128ECD0023504EBC2
:102F600045040136ECE700BF0C8600014FF000532A
:102F7000014A1A60704700BF15FCBA254FF0005394
:102F80001868054B984205D0044B984214BF0220A4
:102F90000120704700207047B6B3B4B55DCE03F191
:102FA00030B54FF00055184B2A6801469A42ADF5EE
:102FB0000F7D26D10023CDE90133EB680EAA0093E3
:102FC00005A84FF40073FEF70DFD044640B14521FE
:102FD00002460E4800F01DFE20460DF50F7D30BD67
:102FE0000123D5E9011205A800F026FE044618B118
:102FF000024645210648EDE74921064800F009FE52
:10300000EAE76FF00D04E7E7B6B3B4B5574F000138
:10301000794F0001A34F00014FF00053014A1A609D
:10302000704700BF5DCE03F12DE9F043234885B022
:1030300000F0E0FF00250446204B214ED3F83880F5
:10304000DFF88090A84503D8002005B0BDE8F083E4
:10305000636A96E807001F6801AB83E807000C224B
:103060001946384600F04BFE90B98FB1636A21696A
:103070001B681A6991420BD19A69A169914207D8DC
:10308000E169914204D962695B6932EA03030AD0BB
:10309000276A67B10C4800F0DCFC404080F31188DF
:1030A0004FF0040002DFE36801351C44CAE74846DC
:1030B00000F0CFFC636A1F60F5E700BF000200016B
:1030C00034420001E34F0001BA4F00012DE9F04FF7
:1030D0000F46064689B018B9002009B0BDE8F08F48
:1030E00000F088FF4FF000090446B36B4B4501D850
:1030F0000120F2E74FF0000A2A4B01934FF0000B3A
:10310000019B0DF1140853F8042BCDE90132264B35
:1031100053F8045B0393029B1D44244B93E8070080
:1031200088E807000C224146284600F0E8FD039B92
:1031300000B9ADB90BF1010BBBF1050FE8D11C4B88
:103140000AF1010A9A45D9D31FB10023626A1360BC
:1031500013BB236A03B3BFE7DA680130134408E006
:103160002B6A144A9342EAD1AE42E8D0696B05F16A
:103170003C038842E3D025691A699542ECD19A69EB
:10318000A5699542E8D8E5699542E5D962695D6926
:10319000AA43E1D1002FD9D1E36809F101091C4408
:1031A000A3E700BFF0510001DC42000140420001F2
:1031B00001000000FFFF02910022D30003F1FF7322
:1031C00003F58033D3F80013013107D0D3F800138F
:1031D0000132D3F80433202A0B60EED1144BD3F81C
:1031E0003021072A1AD1D3F83431023B032B0CD8F3
:1031F000104AD35C4BB1104BD3F80024D10742BF27
:103200000022C3F81421C3F818210B4BD3F8002473
:10321000D20744BF6FF00102C3F80024074B1A68BD
:10322000074BC3F84425074B074A1A60704700BF95
:103230000000FF0116500001005000410080FF0116
:1032400000600041040000210090D003F7B504465F
:1032500068B101282ED02C492C48D82200F0CBFC94
:10326000D821294803B0BDE8F04000F0BDBC0222DF
:10327000274BC3F80823C3F80401D3F80421012223
:10328000DA6001239C4218BF002542F21077204EDD
:103290008DF8073008BF0DF10705ACB1012C29D01E
:1032A0001C491A484FF44F7200F0A5FC4FF44F71BF
:1032B0001848D7E70022164BC3F80803C3F80021CB
:1032C000D3F800215860DCE725B1D6F8183403F0B4
:1032D00003032B70D6F81834DB0309D51DB19DF814
:1032E0000730012B04D1012000F090FE013FD4D122
:1032F00003B0F0BD25B1D6F80C3403F001032B70F8
:10330000D6F80C34E8E700BF1A500001EC44000185
:10331000005000415750000110B5044650B90A4909
:103320000A4840F2151200F066FC40F215110648FA
:1033300000F05AFC064B1A7922B9012205481C609C
:103340001A7110BD0448FCE71A500001EC4400015A
:10335000380100210000AD0B0C00AD0B08B50E4B81
:103360001B7953B90D490E484FF4977200F043FC96
:103370004FF49771094800F037FC0520FEF7D4FBA5
:1033800010B90520FEF7C0FB0122064BC3F8182533
:10339000C3F8142508BD00BF380100211A500001F0
:1033A000EC440001005000412C4B10B51B79044641
:1033B00053B92B492B484FF4B47200F01CFC4FF466
:1033C000B471274800F010FC74B1012C3BD02449A3
:1033D00024484FF4D37200F00EFCBDE810404FF4C7
:1033E000D3711F4800F000BC1F4AD2F81834D2F83D
:1033F0001814C90312D4D2F81434DB0718D40123EB
:10340000194AC2F818350023C2F80431D2F8043141
:103410000223C2F804330123936010BD03F00303B9
:10342000022BEDD0012BEBD00020FFF70FFFE6E7DA
:10343000D2F81C3403F00303013B012BF4D8022320
:10344000C2F80433E9E70022074BC3F80021D3F8A0
:103450000021C3F804431C60DFE700BF38010021EE
:103460001A500001EC440001005000410A4B10B515
:103470001B79044653B90949094840F2AD1200F0DE
:10348000BAFB40F2AD11054800F0AEFB2046BDE8A6
:103490001040FFF7DBBE00BF380100211A500001C9
:1034A000EC440001174B10B5D3F8002152B10020B5
:1034B000C3F80001D3F800210122C3F80823124BFE
:1034C0001B6898470F4BD3F804218AB10022C3F838
:1034D0000421D3F80421D3F81824D3F8181402F0E7
:1034E0000302012A4FF0020103D1C3F818159A60B4
:1034F00010BDC3F80813044B0120BDE810401B6841
:10350000184700BF0050004138010021044AD2F89A
:103510000034DB07FBD50160BFF35F8F704700BF4E
:103520000000084100F17F43B3F5802F10B5044639
:103530000AD3104910484FF4837200F05CFB4FF43B
:1035400083710C4800F050FBC4F30A037BB90222DC
:103550000A4BC3F804254FF0FF322260D3F8002451
:10356000D207FBD500220648C3F8042510BD054844
:10357000FCE700BF8B500001EC4400010000084153
:103580000000AD0B0A00AD0B70B50D4601210446DD
:1035900000F03EFD50B9124912484FF4CA7200F0D3
:1035A0002AFB4FF4CA710E4800F01EFBA3070AD095
:1035B0000B490C4840F2951200F01DFB40F29511AA
:1035C000074800F011FB0123074E2946C6F80435D1
:1035D0002046FFF79BFF0023C6F8043570BD00BFEF
:1035E0008B500001EC440001000008410E4B70B507
:1035F00053F82040013053F82060A64200D870BD37
:10360000D4E900352846984765B1EB6830B1002809
:10361000B8BF4042FF28A8BFFF2018705A7842F078
:1036200001025A700834E8E7F042000173B504461D
:103630000D464FF02003EFF3118683F31288BFF39A
:103640006F8F0022042896BF164B174B53F820307B
:10365000009245210246154800F0DBFA3DB1EB69C6
:10366000C3F308031BB14521114800F0D2FA002230
:103670004521104B104800F0CCFA29462046FFF7B0
:10368000DDFA042C08D10D490D48932200F0B3FA5D
:1036900093210A4800F0A8FA86F31188BFF36F8FD0
:1036A00002B070BD04430001C7500001D5500001B5
:1036B0000251000128510001305100014D5100011B
:1036C000EC440001012208B5084B02201A70FFF7F4
:1036D0008DFF00F007F90320FFF788FFFDF764FA7C
:1036E000034A137B23F00103137308BD4401002137
:1036F0003800002108B50348034A0021121A00F0DF
:10370000AEFC08BD180000214801002108B5174B88
:1037100003F5006282F3088883F30A880025E0231A
:10372000134C84F82230E57725766576A57684F803
:103730002050636A43F4E023636284F82350FEF769
:103740007BFCFEF7A3F94FF0FF33A362E36200F0C6
:103750007BFC2846FFF74AFF0120FFF747FF2B4677
:103760002A4629460348FEF73DFA00BF48050021D6
:1037700000ED00E0C536000108B50648064A0749D5
:10378000121A00F06EFCBDE80840054A05490648DB
:1037900000F067BC0000002118000021F451000176
:1037A00000000000F451000100000021034B1B68E1
:1037B0000BB900F0A1BB0020704700BF4001002101
:1037C0000D4B10B51C689C4208BF0024FFF7EEFFAC
:1037D00074B1D4E904321B1A62EBE070B3F1004F0C
:1037E00070F1000204DA0028ACBF1846002010BDBA
:1037F0006FF00040FBE700BF0800002130B5036810
:1038000068B10A4A5268904209D043B1D3E9042111
:10381000D0E90445121941EB0501C3E904214268CE
:1038200013605A600023C0E9003330BD0800002156
:103830002DE9F8434FF02003EFF3118583F312884D
:10384000BFF36F8F244FDFF89480254E3860D8F88F
:1038500000003B6840454FEAE371D6E9002E0BD0EB
:1038600050B1D0E9044CA34271EB0C0916DAE41A0A
:103870006CEB010CC0E9044C00249B184EEB0101D9
:10388000C6E900313C60FFF79BFF214600F033FBA7
:1038900085F31188BFF36F8FBDE8F883A2184EEB54
:1038A000E4710023C6E900210022C0E90423FFF7E8
:1038B000A5FF85F31188BFF36F8F836898474FF09A
:1038C0002003EFF3118583F31288BFF36F8F3B68FA
:1038D0001B1B3B60BBE700BF40010021080000212B
:1038E000B0000021024A0349034800F0B2B800BF0B
:1038F00027510001BC510001C95100013F2A2DE9A7
:10390000F041174653D905460C46A2F1400626F071
:103910003F064036DFF89C800E44236840341BBAD3
:103920002B6454F83C3C41461BBA6B6454F8383C59
:1039300028461BBAAB6454F8343C1BBAEB6454F809
:10394000303C1BBA2B6554F82C3C1BBA6B6554F801
:10395000283C1BBAAB6554F8243C1BBAEB6554F801
:10396000203C1BBA2B6654F81C3C1BBA6B6654F8FF
:10397000183C1BBAAB6654F8143C1BBAEB6654F8FF
:10398000103C1BBA2B6754F80C3C1BBA6B6754F8FD
:10399000083C1BBAAB6754F8043C1BBAEB67FCF756
:1039A00097FCB442B9D107F03F00BDE8F081104662
:1039B000BDE8F081184300010A4610B514681A49A1
:1039C00024BA0464546824BA4464946824BA8464AD
:1039D000D46824BAC464146924BA0465546924BA46
:1039E0004465946924BA8465D46924BAC465146AA8
:1039F00024BA0466546A24BA4466946A24BA846673
:103A0000D46A24BAC466146B24BA0467546B24BA0B
:103A10004467946B24BA8467D26B12BAC267FCF70E
:103A200057FC002010BD00BF18430001034658B1E9
:103A3000426802F00302012A03D0032A04D102687B
:103A400012B10020986070476FF015007047002099
:103A500070470FB407B504A951F8040B0191FDF7A5
:103A600041F903B05DF804EB04B07047038B13F029
:103A7000070305D10368002B0CBF0020032070470B
:103A8000022B05D1438B002B14BF0020042070476C
:103A9000012B05D10368002B0CBF002005207047C7
:103AA000002070472DE9F0410D4607461946281DB4
:103AB00090461E46FDF7F2F8044638B133464246BA
:103AC00029463846A446BDE8F0416047BDE8F0818C
:103AD00010B44FF02004EFF3118284F31288BFF387
:103AE0006F8F416110BC0121FDF70AB910B50C467A
:103AF00040B139B1081DFFF799FF28B9A36833F029
:103B0000030301D06FF0150010BD38B50C46054613
:103B100058B151B10B6843B14B6833B11C2200213D
:103B200000F009F900202C6138BD6FF01500FBE7AB
:103B30002DE9F84F9A46D37880466F2B0F461546ED
:103B4000A3F1410B29D024D8582B14BF0A261026E4
:103B5000DDF828903246002340463946FCF770FBDA
:103B6000092AD4B21ED83034B045E4B277F100034C
:103B700009F8014D01D3D14511D82B789B0605D505
:103B8000082E15D1AB7843F00803AB704846BDE86A
:103B9000F88F03F0F703702BD7E70826D8E78046A5
:103BA0000F46D7E7BBF1190F94BF37345734DBE723
:103BB000102EEBD1AB7843F01003E6E72DE9F0418E
:103BC0000746884615461E461446B442A4EB050037
:103BD00002D33EB923782BB1414614F8010BB84704
:103BE0000028F2DABDE8F081404080F311884FF000
:103BF000040002DF70470FB407B504A951F8040BA5
:103C00000191FDF76FF803B05DF804EB04B0704765
:103C100070470FB407B504A951F8040B0191FDF7E3
:103C200061F803B05DF804EB04B0704708B5836831
:103C3000DB689847006808BD2DE9F04789461646BD
:103C40009846044698B382680369134482693344F2
:103C5000934230D80025D4E90170A6EB050A3F1A3B
:103C6000BA4515D2B54209D223685246184409EB29
:103C7000050100F055F8A3685344A360B8F1000FA4
:103C80001CD0A068A8B12046BDE8F047FDF738BEBB
:103C900023683A46184409EB050100F041F86368CF
:103CA0002046A360FDF72CFE18B93D44D3E76FF022
:103CB0000D00BDE8F0876FF00B00FAE74046F8E72B
:103CC00001460068FDF7F2BE00210120FDF7EEBEBF
:103CD00008B5FDF75DFFBDE80840FDF7B5BF034639
:103CE00000201A5C02B970470130FAE70346002051
:103CF0001A5C0AB1884200D170470130F8E70346E8
:103D000010B55AB10139841813F8010B11F8012FBD
:103D1000A34201D09042F7D0801A10BD1046FCE7B4
:103D200010B5431E0A44914200D110BD11F8014B59
:103D300003F8014FF7E70346C9B20244934200D1AA
:103D4000704703F8011BF9E74FF02003EFF31182EE
:103D500083F31288BFF36F8F036803F0C00343F04F
:103D60000203036082F31188BFF36F8F7047F8B5C9
:103D7000069F05460469C9B24FF02000EFF3118C8D
:103D800080F31288BFF36F8F0C2606FB0146306C60
:103D900000F0070EBEF1010F10D1376400268CF33E
:103DA0001188BFF36F8F3EB90C2041430C44C4E926
:103DB0000E236B685B5898473046F8BD00F0C00092
:103DC000874214BF4FF0FF366FF07706E7E713B571
:103DD00080240094FFF7CBFF02B010BD6FF0850088
:103DE000704710B41C240069CBB203FB040000210F
:103DF00010BC10470020FFF7D7BA0020FFF736BBF2
:103E00008022FEF7EFB938B505460C4600F014F9EC
:103E1000002D07DBA84205D9401B84428CBF00203F
:103E2000012038BD0020FCE72DE9F7431C464FF088
:103E3000000883680D46164669461B69C4F8008071
:103E4000C4F8088001AA9847DDE9007C404607F1E4
:103E5000040E604504D16FF0150003B0BDE8F08397
:103E60005EF83090A1682268C4F804907DB9731A96
:103E700057F830800130434528BF434603FB0922F1
:103E8000194498452260A160E3D90020E5E7AB1A08
:103E9000B3FBF9F3ECE713460022FFF7C5BF2DE9AA
:103EA000F0470024836886B0884691461B6902AAC1
:103EB00001A99847A2462546029BAB4202D806B00C
:103EC000BDE8F0870026019F07EBC5077B680493D8
:103ED0003A680AEB0603B24202D89A460135EBE78C
:103EE000494603A803940593C0470028E7D0049BE4
:103EF00001361C44ECE77047002070470222FEF7B1
:103F0000F3BD002070470020704708B5FFF7F9FFA8
:103F100008B9FFF7F8FF08BD30B589B01546012391
:103F20000A460146684600F00EF8044640B92022D1
:103F300069462846FCF79EF9002808BF6FF0640424
:103F4000204609B030BD08B5FCF7AEFC002008BD26
:103F500070B5054608460C46FEF7E8FE21460246C7
:103F600001232846BDE87040FEF7F0BE20F00302B2
:103F700003461068BFF34F8F9B0714BF000C80B23D
:103F8000704708B5FEF7CAFF08B9002008BD023027
:103F9000FFF7ECFF4FF6FF739842F7D1F5E72DE9F5
:103FA000F0410546FEF7BAFF0446FFF7EAFF211D80
:103FB000002407462646A74207D84FF000080DB157
:103FC000C5F800803046BDE8F0810846FFF7CEFF17
:103FD000C3439BB288460231002BF0D09E4238BFCB
:103FE0001E460134E7E70020FFF7D9BF4FF000532A
:103FF0005868704703465A6B00233C309A4200D100
:104000007047C16801330844F8E7004700F031B851
:10401000034603F17F42B2F5802F08460AD351B11F
:1040200003F17E4101F50041B1F5607F2CBF002016
:1040300001207047012070474FF4802070474FF4F3
:104040000060704780207047704738B1C368188897
:10405000C0F30800A0F58073584258417047FFF73D
:104060006ABEFFF75DBEEFF30580003818BF012080
:0C407000704708B1FDF7FCBB70477047BB
:08407C0088C5FF7F0100000070
:1040840049180001000000008D220001AC4000012D
:10409400852800010000000039250001C44000010A
:0840A4002930000100000000BA
:1040AC00AF4B0001884200016C420001100000215E
:1040BC00C8000021D2410001414C00010000000069
:1040CC00AC4200011400002100000000CC410001B2
:1040DC0000000000C93C000100000000C93C0001C8
:1040EC0000000000C93C000100000000C93C0001B8
:1040FC0000000000C93C0001A53400010B40000188
:10410C0000000000C93C000100000000C93C000197
:10411C0000000000C93C000100000000C93C000187
:10412C0000000000C93C000100000000C93C000177
:10413C0000000000C93C000100000000C93C000167
:10414C0000000000C93C000100000000C93C000157
:10415C0000000000C93C000100000000C93C000147
:10416C0000000000C93C000100000000C93C000137
:10417C0000000000C93C000100000000C93C000127
:10418C0000000000C529000100000000C93C00012E
:10419C0000000000C93C000100000000C93C000107
:1041AC0000000000C93C000100000000C93C0001F7
:1041BC0000000000C93C000100000000C93C0001E7
:0C41CC0000800080FF7F00800080FF7FEB
:1041D8008146000103000000CA4B000103000000F3
:1041E800D94C0001030000005B4C000103000000F3
:1041F800B951000103000000B64F000103000000A0
:084208002C4500010300000039
:10421000DEE61E284CBBCE8F02350000DEE61E28EF
:104220004CBBCE8F02350000DEE61E28838451860B
:1042300002350100DEE61E28EAAC45B80235000072
:10424000DEE61E284CBBCE8F0235000000000000C9
:104250000338FDD870470000000000000002000095
:10426000000400000008000000100000DD3D000117
:10427000013E0001CF3D000100000000B12100011E
:10428000000000000000000071230001D5230001A0
:10429000BE4B0001F53D0001FB3D0001C44B000198
:1042A0006D2100015D2200010000000031260001A7
:1042B000BD25000151250001312500012125000106
:1042C00004000000FF0000000000000000020000E9
:1042D00000040000000800000010000000000000C2
:1042E00000020000000400000008000000100000B0
:1042F00084400001944000019C400001AC4000015A
:10430000AC4000016F5100017D510001915100014D
:10431000A0510001AC510001982F8A42914437719D
:10432000CFFBC0B5A5DBB5E95BC25639F111F15938
:10433000A4823F92D55E1CAB98AA07D8015B83127A
:10434000BE853124C37D0C55745DBE72FEB1DE8026
:10435000A706DC9B74F19BC1C1699BE48647BEEF55
:10436000C69DC10FCCA10C246F2CE92DAA84744AE0
:10437000DCA9B05CDA88F97652513E986DC631A856
:10438000C82703B0C77F59BFF30BE0C64791A7D535
:104390005163CA0667292914850AB72738211B2EBD
:1043A000FC6D2C4D130D385354730A65BB0A6A76A5
:1043B0002EC9C281852C7292A1E8BFA24B661AA8B1
:1043C000708B4BC2A3516CC719E892D1240699D6C1
:1043D00085350EF470A06A1016C1A419086C371E3A
:1043E0004C774827B5BCB034B30C1C394AAAD84E18
:1043F0004FCA9C5BF36F2E68EE828F746F63A57853
:104400001478C8840802C78CFAFFBE90EB6C50A4E5
:10441000F7A3F9BEF27871C6466C617368206465D3
:1044200076696365206E6F742072656164790A0035
:104430004661696C656420746F2070726F74656387
:10444000742062306E20666C6173682C2063616E2C
:1044500063656C20737461727475700A0D00556E1B
:1044600061626C6520746F2066696E642076616C91
:104470006964206669726D7761726520696E73691F
:1044800064652025700A0D004661696C65642074BE
:104490006F207472616E7366657220696D61676505
:1044A0003A2025640A0D004661696C656420746FCA
:1044B0002070726F746563742061707020666C6127
:1044C00073683A2025640A0D00574553545F544FD2
:1044D000504449522F7A65706879722F6C69622F47
:1044E0006F732F6E6F746966792E63004153534565
:1044F0005254494F4E204641494C20402025733AA2
:1045000025640A00574553545F544F504449522F75
:104510007A65706879722F6C69622F6F732F6F6E76
:104520006F66662E6300286E696C2900736F6300E6
:1045300025633A204275666665722073697A652044
:10454000697320626967676572207468616E2070A4
:104550006167650A0025633A204572726F722025F3
:1045600064207768696C652067657474696E67207C
:104570007061676520696E666F0A0025633A2045A1
:1045800072726F72202564207768696C652065728D
:104590006173696E6720706167650A0025633A2060
:1045A00073747265616D5F666C6173685F6572617B
:1045B00073655F7061676520657272202564206F86
:1045C00066667365743D30782530387A780A002540
:1045D000633A20666C6173685F7772697465206501
:1045E00072726F72202564206F66667365743D3049
:1045F000782530387A780A0025633A20666C617332
:10460000682072656164206661696C65643A202582
:10461000640A0025633A2063616C6C6261636B20FD
:104620006661696C65643A2025640A0025633A2056
:104630004275666665722073697A65206973206EBB
:104640006F7420616C69676E656420746F206D699A
:104650006E696D616C2077726974652D626C6F6331
:104660006B2D73697A650A0025633A20496E636F82
:10467000727265637420706172616D657465720A2F
:104680000053545245414D5F464C41534800256309
:104690003A2072302F61313A202030782530387836
:1046A000202072312F61323A20203078253038783E
:1046B000202072322F61333A20203078253038782C
:1046C0000A0025633A2072332F61343A2020307873
:1046D00025303878207231322F69703A20203078B6
:1046E00025303878207231342F6C723A202030789F
:1046F000253038780A0025633A2020787073723AA2
:1047000020203078253038780A0025633A20466129
:10471000756C74696E6720696E7374727563746901
:104720006F6E206164647265737320287231352F57
:104730007063293A203078253038780A005745537D
:10474000545F544F504449522F7A65706879722FE4
:10475000617263682F61726D2F636F72652F616183
:1047600072636833322F6972715F6D616E61676564
:104770002E630025633A202A2A2A2A2A20555341EB
:104780004745204641554C54202A2A2A2A2A0A0005
:1047900025633A2020204469766973696F6E206230
:1047A00079207A65726F0A0025633A202020556EC1
:1047B000616C69676E6564206D656D6F72792061EB
:1047C00063636573730A0025633A20202053746184
:1047D000636B206F766572666C6F772028636F6EEF
:1047E000746578742061726561206E6F74207661E3
:1047F0006C6964290A0025633A2020204E6F2063EB
:104800006F70726F636573736F7220696E73747209
:10481000756374696F6E730A0025633A202020491E
:104820006C6C6567616C206C6F6164206F662045FD
:1048300058435F52455455524E20696E746F205054
:10484000430A0025633A202020496C6C6567616C3F
:1048500020757365206F662074686520455053523B
:104860000A0025633A202020417474656D7074201D
:10487000746F206578656375746520756E64656610
:10488000696E656420696E737472756374696F6EA6
:104890000A0025633A202A2A2A2A2A204255532030
:1048A0004641554C54202A2A2A2A2A0A0025633ACE
:1048B000202020537461636B696E67206572726F8C
:1048C000720A0025633A202020556E737461636B71
:1048D000696E67206572726F720A0025633A202044
:1048E000205072656369736520646174612062752C
:1048F00073206572726F720A0025633A202020428D
:1049000046415220416464726573733A20307825C1
:10491000780A0025633A202020496D70726563692A
:104920007365206461746120627573206572726FB3
:10493000720A0025633A202020496E7374727563F1
:1049400074696F6E20627573206572726F720A00EF
:1049500025633A202A2A2A2A2A204D5055204641EA
:10496000554C54202A2A2A2A2A0A0025633A202054
:1049700020537461636B696E67206572726F722079
:1049800028636F6E746578742061726561206D694B
:10499000676874206265206E6F742076616C69644C
:1049A000290A0025633A2020204461746120416374
:1049B000636573732056696F6C6174696F6E0A006A
:1049C00025633A2020204D4D4641522041646472B7
:1049D0006573733A20307825780A0025633A2020E1
:1049E00020496E737472756374696F6E20416363DE
:1049F0006573732056696F6C6174696F6E0A005736
:104A00004553545F544F504449522F7A657068792A
:104A1000722F617263682F61726D2F636F72652FE1
:104A2000616172636833322F636F727465785F6D92
:104A30002F6661756C742E630052657365727665BE
:104A40006420457863657074696F6E202800537028
:104A50007572696F757320696E74657272757074A2
:104A60002028495251200025633A20535053454C89
:104A700020696E20746872656164206D6F646520C2
:104A8000646F6573206E6F7420696E64696361740E
:104A900065205053500A0025633A202A2A2A2A2AE0
:104AA0002048415244204641554C54202A2A2A2A63
:104AB0002A0A0025633A202020427573206661751A
:104AC0006C74206F6E20766563746F7220746162FF
:104AD0006C6520726561640A0025633A20202044D9
:104AE00065627567206576656E740A0025633A20F5
:104AF00020204661756C7420657363616C61746914
:104B00006F6E20287365652062656C6F77290A00D7
:104B100025633A20415243485F455843455054204D
:104B20007769746820726561736F6E2025780A0A50
:104B30000025633A202A2A2A2A2A204465627567BA
:104B4000206D6F6E69746F7220657863657074692B
:104B50006F6E202A2A2A2A2A0A0025633A202A2A46
:104B60002A2A2A20257320256429202A2A2A2A2A4B
:104B70000A00574553545F544F504449522F7A65A9
:104B8000706879722F647269766572732F636C6FC7
:104B9000636B5F636F6E74726F6C2F636C6F636BAC
:104BA0005F636F6E74726F6C5F6E72662E6300630C
:104BB0006C6F636B403431303035303030006866B4
:104BC000636C6B006C66636C6B00636C6F636B5F34
:104BD000636F6E74726F6C0025633A20756E616C42
:104BE00069676E656420616464726573733A20302E
:104BF000782530386C783A257A750A0025633A2092
:104C0000696E76616C696420616464726573733A7D
:104C10002030782530386C783A257A750A0025637B
:104C20003A206E6F7420776F72642D616C69676EC5
:104C300065643A2030782530386C783A257A750AE0
:104C400000666C6173682D636F6E74726F6C6C6557
:104C50007240343130383030303000666C61736807
:104C60005F6E726600574553545F544F504449522B
:104C70002F6E72662F6C69622F6670726F74656337
:104C8000742F6670726F746563745F61636C2E63FA
:104C900000574553545F544F504449522F6D6F6431
:104CA000756C65732F68616C2F6E6F726469632F0A
:104CB0006E7266782F68616C2F6E72665F61636CCE
:104CC0002E680025633A20526573657474696E67B7
:104CD0002073797374656D0A00666174616C5F6539
:104CE00072726F7200426F6F74696E67202830783D
:104CF0002578292E0D0A00496E76616C696420665C
:104D000069726D7761726520696E666F20666F7279
:104D10006D61742E0A0D00546865206669726D77A6
:104D200061726520646F65736E27742062656C6FB5
:104D30006E672061742064657374696E6174696F55
:104D40006E20616464722E0A0D0073726320616EBE
:104D50006420647374206D757374206265206571BE
:104D600075616C20666F72206C6F63616C2063618B
:104D70006C6C732E0A0D004669726D776172652046
:104D8000696E666F20646F65736E277420706F693B
:104D90006E7420746F20697473656C662E0A0D0042
:104DA000466972776D61726520686173206265651E
:104DB0006E20696E76616C6964617465643A203056
:104DC0007825782E0A0D004669726D77617265202C
:104DD00076657273696F6E202825752920697320A6
:104DE000736D616C6C6572207468616E206D6F6E9E
:104DF0006F746F6E696320636F756E7465722028BF
:104E00002575292E0A0D004669726D77617265203D
:104E1000696E666F206973206E6F7420776974689D
:104E2000696E207369676E656420726567696F6E6D
:104E30002E0A0D00426F6F74206164647265737393
:104E4000206973206E6F742077697468696E2073AF
:104E500069676E656420726567696F6E2E0A0D0062
:104E600052657365742068616E646C657220697345
:104E7000206E6F742077697468696E207369676E3D
:104E8000656420726567696F6E2E0A0D00436F7549
:104E90006C64206E6F742066696E642076616C6944
:104EA00064206669726D776172652076616C6964F1
:104EB0006174696F6E20696E666F2E0A0D0056610F
:104EC0006C69646174696F6E20696E666F20646FCF
:104ED00065736E27742062656C6F6E6720746F2037
:104EE00074686973206669726D776172652E0A0D48
:104EF00000626C5F63727970746F5F696E697428A9
:104F0000292072657475726E65642025642E0A0D01
:104F1000004669726D776172652076616C696461C3
:104F200074696F6E206661696C6564207769746866
:104F3000206572726F722025642E0A0D0046697218
:104F40006D77617265206861736820766572696645
:104F50006965642E0A0D0025633A207374726561D9
:104F60006D5F666C6173685F696E69742066616904
:104F70006C65643A2025640A0025633A20737472D4
:104F800065616D5F666C6173685F627566666572A8
:104F900065645F7772697465206661696C3A202583
:104FA000640A0025633A205472616E73666572204C
:104FB000646F6E650A00706364004552524F523A46
:104FC0002043616E6E6F742066756C66696C6C2030
:104FD0004558545F41504920726571756573742E50
:104FE0000D0A005741524E494E473A204F7074699E
:104FF0006F6E616C204558545F4150492072657155
:1050000075657374206E6F742066756C66696C6C60
:1050100065642E0D0A0001000000574553545F548B
:105020004F504449522F6D6F64756C65732F6861E2
:105030006C2F6E6F726469632F6E7266782F647264
:1050400069766572732F7372632F6E7266785F6311
:105050006C6F636B2E6300574553545F544F50443D
:1050600049522F6D6F64756C65732F68616C2F6E7C
:105070006F726469632F6E7266782F68616C2F6E31
:1050800072665F636C6F636B2E6800574553545FA5
:10509000544F504449522F6D6F64756C65732F687F
:1050A000616C2F6E6F726469632F6E7266782F6405
:1050B0007269766572732F7372632F6E7266785F92
:1050C0006E766D632E6300556E6B6E6F776E206526
:1050D00072726F720025633A203E3E3E205A455060
:1050E00048595220464154414C204552524F52207B
:1050F00025643A202573206F6E2043505520256487
:105100000A0025633A204661756C742064757269E3
:105110006E6720696E746572727570742068616E56
:10512000646C696E670A0A00756E6B6E6F776E004D
:1051300025633A2043757272656E742074687265D7
:1051400061643A20257020282573290A00574553A9
:10515000545F544F504449522F7A65706879722FCA
:105160006B65726E656C2F666174616C2E630043B3
:10517000505520657863657074696F6E00556E6870
:10518000616E646C656420696E74657272757074AA
:1051900000537461636B206F766572666C6F770085
:1051A0004B65726E656C206F6F7073004B65726E2D
:1051B000656C2070616E6963006F730076332E3109
:1051C0002E39392D6E637331002A2A2A20426F6FDF
:1051D00074696E67205A6570687972204F53206237
:1051E00075696C64202573202573202A2A2A0A00F9
:0451F00000000001BA
:1051F4004F3A00010090D00308000021080000216C
:085204000000000000000000A2
:040000050100207D59
:00000001FF
